{
	"contracts/Twitter.sol": {
		"Twitter": {
			"abi": [
				{
					"inputs": [],
					"stateMutability": "nonpayable",
					"type": "constructor"
				},
				{
					"inputs": [],
					"name": "MAX_TWEET_LENGTH",
					"outputs": [
						{
							"internalType": "uint16",
							"name": "",
							"type": "uint16"
						}
					],
					"stateMutability": "view",
					"type": "function"
				},
				{
					"inputs": [
						{
							"internalType": "uint16",
							"name": "newTweetLength",
							"type": "uint16"
						}
					],
					"name": "changeTweetLength",
					"outputs": [],
					"stateMutability": "nonpayable",
					"type": "function"
				},
				{
					"inputs": [
						{
							"internalType": "string",
							"name": "_tweet",
							"type": "string"
						}
					],
					"name": "createTweet",
					"outputs": [],
					"stateMutability": "nonpayable",
					"type": "function"
				},
				{
					"inputs": [
						{
							"internalType": "address",
							"name": "_owner",
							"type": "address"
						}
					],
					"name": "getAllTweets",
					"outputs": [
						{
							"components": [
								{
									"internalType": "uint256",
									"name": "id",
									"type": "uint256"
								},
								{
									"internalType": "address",
									"name": "author",
									"type": "address"
								},
								{
									"internalType": "string",
									"name": "content",
									"type": "string"
								},
								{
									"internalType": "uint256",
									"name": "timestamp",
									"type": "uint256"
								},
								{
									"internalType": "uint256",
									"name": "likes",
									"type": "uint256"
								}
							],
							"internalType": "struct Twitter.Tweet[]",
							"name": "",
							"type": "tuple[]"
						}
					],
					"stateMutability": "view",
					"type": "function"
				},
				{
					"inputs": [
						{
							"internalType": "uint256",
							"name": "_i",
							"type": "uint256"
						}
					],
					"name": "getTweet",
					"outputs": [
						{
							"components": [
								{
									"internalType": "uint256",
									"name": "id",
									"type": "uint256"
								},
								{
									"internalType": "address",
									"name": "author",
									"type": "address"
								},
								{
									"internalType": "string",
									"name": "content",
									"type": "string"
								},
								{
									"internalType": "uint256",
									"name": "timestamp",
									"type": "uint256"
								},
								{
									"internalType": "uint256",
									"name": "likes",
									"type": "uint256"
								}
							],
							"internalType": "struct Twitter.Tweet",
							"name": "",
							"type": "tuple"
						}
					],
					"stateMutability": "view",
					"type": "function"
				},
				{
					"inputs": [
						{
							"internalType": "address",
							"name": "author",
							"type": "address"
						},
						{
							"internalType": "uint256",
							"name": "id",
							"type": "uint256"
						}
					],
					"name": "likeTweet",
					"outputs": [],
					"stateMutability": "nonpayable",
					"type": "function"
				},
				{
					"inputs": [],
					"name": "owner",
					"outputs": [
						{
							"internalType": "address",
							"name": "",
							"type": "address"
						}
					],
					"stateMutability": "view",
					"type": "function"
				},
				{
					"inputs": [
						{
							"internalType": "address",
							"name": "",
							"type": "address"
						},
						{
							"internalType": "uint256",
							"name": "",
							"type": "uint256"
						}
					],
					"name": "tweets",
					"outputs": [
						{
							"internalType": "uint256",
							"name": "id",
							"type": "uint256"
						},
						{
							"internalType": "address",
							"name": "author",
							"type": "address"
						},
						{
							"internalType": "string",
							"name": "content",
							"type": "string"
						},
						{
							"internalType": "uint256",
							"name": "timestamp",
							"type": "uint256"
						},
						{
							"internalType": "uint256",
							"name": "likes",
							"type": "uint256"
						}
					],
					"stateMutability": "view",
					"type": "function"
				},
				{
					"inputs": [
						{
							"internalType": "address",
							"name": "author",
							"type": "address"
						},
						{
							"internalType": "uint256",
							"name": "id",
							"type": "uint256"
						}
					],
					"name": "unlikeTweet",
					"outputs": [],
					"stateMutability": "nonpayable",
					"type": "function"
				}
			],
			"devdoc": {
				"kind": "dev",
				"methods": {},
				"version": 1
			},
			"evm": {
				"assembly": "    /* \"contracts/Twitter.sol\":64:1716  contract Twitter {... */\n  mstore(0x40, 0x80)\n    /* \"contracts/Twitter.sol\":120:123  280 */\n  0x0118\n    /* \"contracts/Twitter.sol\":87:123  uint16 public MAX_TWEET_LENGTH = 280 */\n  0x00\n  dup1\n  0x0100\n  exp\n  dup2\n  sload\n  dup2\n  0xffff\n  mul\n  not\n  and\n  swap1\n  dup4\n  0xffff\n  and\n  mul\n  or\n  swap1\n  sstore\n  pop\n    /* \"contracts/Twitter.sol\":346:393  constructor() {... */\n  callvalue\n  dup1\n  iszero\n  tag_1\n  jumpi\n  0x00\n  dup1\n  revert\ntag_1:\n  pop\n    /* \"contracts/Twitter.sol\":376:386  msg.sender */\n  caller\n    /* \"contracts/Twitter.sol\":370:375  owner */\n  0x02\n  0x00\n    /* \"contracts/Twitter.sol\":370:386  owner=msg.sender */\n  0x0100\n  exp\n  dup2\n  sload\n  dup2\n  0xffffffffffffffffffffffffffffffffffffffff\n  mul\n  not\n  and\n  swap1\n  dup4\n  0xffffffffffffffffffffffffffffffffffffffff\n  and\n  mul\n  or\n  swap1\n  sstore\n  pop\n    /* \"contracts/Twitter.sol\":64:1716  contract Twitter {... */\n  dataSize(sub_0)\n  dup1\n  dataOffset(sub_0)\n  0x00\n  codecopy\n  0x00\n  return\nstop\n\nsub_0: assembly {\n        /* \"contracts/Twitter.sol\":64:1716  contract Twitter {... */\n      mstore(0x40, 0x80)\n      callvalue\n      dup1\n      iszero\n      tag_1\n      jumpi\n      0x00\n      dup1\n      revert\n    tag_1:\n      pop\n      jumpi(tag_2, lt(calldatasize, 0x04))\n      shr(0xe0, calldataload(0x00))\n      dup1\n      0x63378216\n      gt\n      tag_12\n      jumpi\n      dup1\n      0x63378216\n      eq\n      tag_7\n      jumpi\n      dup1\n      0x6eb10797\n      eq\n      tag_8\n      jumpi\n      dup1\n      0x7c9cd2bc\n      eq\n      tag_9\n      jumpi\n      dup1\n      0x8da5cb5b\n      eq\n      tag_10\n      jumpi\n      dup1\n      0xc3ad5ecb\n      eq\n      tag_11\n      jumpi\n      jump(tag_2)\n    tag_12:\n      dup1\n      0x05a1b4a9\n      eq\n      tag_3\n      jumpi\n      dup1\n      0x12e7ee1c\n      eq\n      tag_4\n      jumpi\n      dup1\n      0x3d9b569f\n      eq\n      tag_5\n      jumpi\n      dup1\n      0x58bfa4ab\n      eq\n      tag_6\n      jumpi\n    tag_2:\n      0x00\n      dup1\n      revert\n        /* \"contracts/Twitter.sol\":273:314  mapping(address => Tweet[]) public tweets */\n    tag_3:\n      tag_13\n      0x04\n      dup1\n      calldatasize\n      sub\n      dup2\n      add\n      swap1\n      tag_14\n      swap2\n      swap1\n      tag_15\n      jump\t// in\n    tag_14:\n      tag_16\n      jump\t// in\n    tag_13:\n      mload(0x40)\n      tag_17\n      swap6\n      swap5\n      swap4\n      swap3\n      swap2\n      swap1\n      tag_18\n      jump\t// in\n    tag_17:\n      mload(0x40)\n      dup1\n      swap2\n      sub\n      swap1\n      return\n        /* \"contracts/Twitter.sol\":1601:1714  function getAllTweets(address _owner) public view returns (Tweet[] memory) {... */\n    tag_4:\n      tag_19\n      0x04\n      dup1\n      calldatasize\n      sub\n      dup2\n      add\n      swap1\n      tag_20\n      swap2\n      swap1\n      tag_21\n      jump\t// in\n    tag_20:\n      tag_22\n      jump\t// in\n    tag_19:\n      mload(0x40)\n      tag_23\n      swap2\n      swap1\n      tag_24\n      jump\t// in\n    tag_23:\n      mload(0x40)\n      dup1\n      swap2\n      sub\n      swap1\n      return\n        /* \"contracts/Twitter.sol\":1239:1479  function unlikeTweet(address author, uint256 id) external  {... */\n    tag_5:\n      tag_25\n      0x04\n      dup1\n      calldatasize\n      sub\n      dup2\n      add\n      swap1\n      tag_26\n      swap2\n      swap1\n      tag_15\n      jump\t// in\n    tag_26:\n      tag_27\n      jump\t// in\n    tag_25:\n      stop\n        /* \"contracts/Twitter.sol\":504:620  function changeTweetLength(uint16 newTweetLength) public onlyOwner{... */\n    tag_6:\n      tag_28\n      0x04\n      dup1\n      calldatasize\n      sub\n      dup2\n      add\n      swap1\n      tag_29\n      swap2\n      swap1\n      tag_30\n      jump\t// in\n    tag_29:\n      tag_31\n      jump\t// in\n    tag_28:\n      stop\n        /* \"contracts/Twitter.sol\":1064:1233  function likeTweet(address author, uint256 id) external  {... */\n    tag_7:\n      tag_32\n      0x04\n      dup1\n      calldatasize\n      sub\n      dup2\n      add\n      swap1\n      tag_33\n      swap2\n      swap1\n      tag_15\n      jump\t// in\n    tag_33:\n      tag_34\n      jump\t// in\n    tag_32:\n      stop\n        /* \"contracts/Twitter.sol\":87:123  uint16 public MAX_TWEET_LENGTH = 280 */\n    tag_8:\n      tag_35\n      tag_36\n      jump\t// in\n    tag_35:\n      mload(0x40)\n      tag_37\n      swap2\n      swap1\n      tag_38\n      jump\t// in\n    tag_37:\n      mload(0x40)\n      dup1\n      swap2\n      sub\n      swap1\n      return\n        /* \"contracts/Twitter.sol\":625:1058  function createTweet(string memory _tweet) public {... */\n    tag_9:\n      tag_39\n      0x04\n      dup1\n      calldatasize\n      sub\n      dup2\n      add\n      swap1\n      tag_40\n      swap2\n      swap1\n      tag_41\n      jump\t// in\n    tag_40:\n      tag_42\n      jump\t// in\n    tag_39:\n      stop\n        /* \"contracts/Twitter.sol\":320:340  address public owner */\n    tag_10:\n      tag_43\n      tag_44\n      jump\t// in\n    tag_43:\n      mload(0x40)\n      tag_45\n      swap2\n      swap1\n      tag_46\n      jump\t// in\n    tag_45:\n      mload(0x40)\n      dup1\n      swap2\n      sub\n      swap1\n      return\n        /* \"contracts/Twitter.sol\":1484:1595  function getTweet(uint256 _i) public view returns (Tweet memory) {... */\n    tag_11:\n      tag_47\n      0x04\n      dup1\n      calldatasize\n      sub\n      dup2\n      add\n      swap1\n      tag_48\n      swap2\n      swap1\n      tag_49\n      jump\t// in\n    tag_48:\n      tag_50\n      jump\t// in\n    tag_47:\n      mload(0x40)\n      tag_51\n      swap2\n      swap1\n      tag_52\n      jump\t// in\n    tag_51:\n      mload(0x40)\n      dup1\n      swap2\n      sub\n      swap1\n      return\n        /* \"contracts/Twitter.sol\":273:314  mapping(address => Tweet[]) public tweets */\n    tag_16:\n      mstore(0x20, 0x01)\n      dup2\n      0x00\n      mstore\n      keccak256(0x00, 0x40)\n      dup2\n      dup2\n      sload\n      dup2\n      lt\n      tag_53\n      jumpi\n      0x00\n      dup1\n      revert\n    tag_53:\n      swap1\n      0x00\n      mstore\n      keccak256(0x00, 0x20)\n      swap1\n      0x05\n      mul\n      add\n      0x00\n      swap2\n      pop\n      swap2\n      pop\n      pop\n      dup1\n      0x00\n      add\n      sload\n      swap1\n      dup1\n      0x01\n      add\n      0x00\n      swap1\n      sload\n      swap1\n      0x0100\n      exp\n      swap1\n      div\n      0xffffffffffffffffffffffffffffffffffffffff\n      and\n      swap1\n      dup1\n      0x02\n      add\n      dup1\n      sload\n      tag_55\n      swap1\n      tag_56\n      jump\t// in\n    tag_55:\n      dup1\n      0x1f\n      add\n      0x20\n      dup1\n      swap2\n      div\n      mul\n      0x20\n      add\n      mload(0x40)\n      swap1\n      dup2\n      add\n      0x40\n      mstore\n      dup1\n      swap3\n      swap2\n      swap1\n      dup2\n      dup2\n      mstore\n      0x20\n      add\n      dup3\n      dup1\n      sload\n      tag_57\n      swap1\n      tag_56\n      jump\t// in\n    tag_57:\n      dup1\n      iszero\n      tag_58\n      jumpi\n      dup1\n      0x1f\n      lt\n      tag_59\n      jumpi\n      0x0100\n      dup1\n      dup4\n      sload\n      div\n      mul\n      dup4\n      mstore\n      swap2\n      0x20\n      add\n      swap2\n      jump(tag_58)\n    tag_59:\n      dup3\n      add\n      swap2\n      swap1\n      0x00\n      mstore\n      keccak256(0x00, 0x20)\n      swap1\n    tag_60:\n      dup2\n      sload\n      dup2\n      mstore\n      swap1\n      0x01\n      add\n      swap1\n      0x20\n      add\n      dup1\n      dup4\n      gt\n      tag_60\n      jumpi\n      dup3\n      swap1\n      sub\n      0x1f\n      and\n      dup3\n      add\n      swap2\n    tag_58:\n      pop\n      pop\n      pop\n      pop\n      pop\n      swap1\n      dup1\n      0x03\n      add\n      sload\n      swap1\n      dup1\n      0x04\n      add\n      sload\n      swap1\n      pop\n      dup6\n      jump\t// out\n        /* \"contracts/Twitter.sol\":1601:1714  function getAllTweets(address _owner) public view returns (Tweet[] memory) {... */\n    tag_22:\n        /* \"contracts/Twitter.sol\":1660:1674  Tweet[] memory */\n      0x60\n        /* \"contracts/Twitter.sol\":1693:1699  tweets */\n      0x01\n        /* \"contracts/Twitter.sol\":1693:1707  tweets[_owner] */\n      0x00\n        /* \"contracts/Twitter.sol\":1700:1706  _owner */\n      dup4\n        /* \"contracts/Twitter.sol\":1693:1707  tweets[_owner] */\n      0xffffffffffffffffffffffffffffffffffffffff\n      and\n      0xffffffffffffffffffffffffffffffffffffffff\n      and\n      dup2\n      mstore\n      0x20\n      add\n      swap1\n      dup2\n      mstore\n      0x20\n      add\n      0x00\n      keccak256\n        /* \"contracts/Twitter.sol\":1686:1707  return tweets[_owner] */\n      dup1\n      sload\n      dup1\n      0x20\n      mul\n      0x20\n      add\n      mload(0x40)\n      swap1\n      dup2\n      add\n      0x40\n      mstore\n      dup1\n      swap3\n      swap2\n      swap1\n      dup2\n      dup2\n      mstore\n      0x20\n      add\n      0x00\n      swap1\n    tag_62:\n      dup3\n      dup3\n      lt\n      iszero\n      tag_63\n      jumpi\n      dup4\n      dup3\n      swap1\n      0x00\n      mstore\n      keccak256(0x00, 0x20)\n      swap1\n      0x05\n      mul\n      add\n      mload(0x40)\n      dup1\n      0xa0\n      add\n      0x40\n      mstore\n      swap1\n      dup2\n      0x00\n      dup3\n      add\n      sload\n      dup2\n      mstore\n      0x20\n      add\n      0x01\n      dup3\n      add\n      0x00\n      swap1\n      sload\n      swap1\n      0x0100\n      exp\n      swap1\n      div\n      0xffffffffffffffffffffffffffffffffffffffff\n      and\n      0xffffffffffffffffffffffffffffffffffffffff\n      and\n      0xffffffffffffffffffffffffffffffffffffffff\n      and\n      dup2\n      mstore\n      0x20\n      add\n      0x02\n      dup3\n      add\n      dup1\n      sload\n      tag_65\n      swap1\n      tag_56\n      jump\t// in\n    tag_65:\n      dup1\n      0x1f\n      add\n      0x20\n      dup1\n      swap2\n      div\n      mul\n      0x20\n      add\n      mload(0x40)\n      swap1\n      dup2\n      add\n      0x40\n      mstore\n      dup1\n      swap3\n      swap2\n      swap1\n      dup2\n      dup2\n      mstore\n      0x20\n      add\n      dup3\n      dup1\n      sload\n      tag_66\n      swap1\n      tag_56\n      jump\t// in\n    tag_66:\n      dup1\n      iszero\n      tag_67\n      jumpi\n      dup1\n      0x1f\n      lt\n      tag_68\n      jumpi\n      0x0100\n      dup1\n      dup4\n      sload\n      div\n      mul\n      dup4\n      mstore\n      swap2\n      0x20\n      add\n      swap2\n      jump(tag_67)\n    tag_68:\n      dup3\n      add\n      swap2\n      swap1\n      0x00\n      mstore\n      keccak256(0x00, 0x20)\n      swap1\n    tag_69:\n      dup2\n      sload\n      dup2\n      mstore\n      swap1\n      0x01\n      add\n      swap1\n      0x20\n      add\n      dup1\n      dup4\n      gt\n      tag_69\n      jumpi\n      dup3\n      swap1\n      sub\n      0x1f\n      and\n      dup3\n      add\n      swap2\n    tag_67:\n      pop\n      pop\n      pop\n      pop\n      pop\n      dup2\n      mstore\n      0x20\n      add\n      0x03\n      dup3\n      add\n      sload\n      dup2\n      mstore\n      0x20\n      add\n      0x04\n      dup3\n      add\n      sload\n      dup2\n      mstore\n      pop\n      pop\n      dup2\n      mstore\n      0x20\n      add\n      swap1\n      0x01\n      add\n      swap1\n      jump(tag_62)\n    tag_63:\n      pop\n      pop\n      pop\n      pop\n      swap1\n      pop\n        /* \"contracts/Twitter.sol\":1601:1714  function getAllTweets(address _owner) public view returns (Tweet[] memory) {... */\n      swap2\n      swap1\n      pop\n      jump\t// out\n        /* \"contracts/Twitter.sol\":1239:1479  function unlikeTweet(address author, uint256 id) external  {... */\n    tag_27:\n        /* \"contracts/Twitter.sol\":1341:1343  id */\n      dup1\n        /* \"contracts/Twitter.sol\":1316:1322  tweets */\n      0x01\n        /* \"contracts/Twitter.sol\":1316:1330  tweets[author] */\n      0x00\n        /* \"contracts/Twitter.sol\":1323:1329  author */\n      dup5\n        /* \"contracts/Twitter.sol\":1316:1330  tweets[author] */\n      0xffffffffffffffffffffffffffffffffffffffff\n      and\n      0xffffffffffffffffffffffffffffffffffffffff\n      and\n      dup2\n      mstore\n      0x20\n      add\n      swap1\n      dup2\n      mstore\n      0x20\n      add\n      0x00\n      keccak256\n        /* \"contracts/Twitter.sol\":1331:1333  id */\n      dup3\n        /* \"contracts/Twitter.sol\":1316:1334  tweets[author][id] */\n      dup2\n      sload\n      dup2\n      lt\n      tag_71\n      jumpi\n      tag_72\n      tag_73\n      jump\t// in\n    tag_72:\n    tag_71:\n      swap1\n      0x00\n      mstore\n      keccak256(0x00, 0x20)\n      swap1\n      0x05\n      mul\n      add\n        /* \"contracts/Twitter.sol\":1316:1337  tweets[author][id].id */\n      0x00\n      add\n      sload\n        /* \"contracts/Twitter.sol\":1316:1343  tweets[author][id].id == id */\n      eq\n        /* \"contracts/Twitter.sol\":1308:1367  require(tweets[author][id].id == id,\"TWEET DOES NOT EXIST\") */\n      tag_75\n      jumpi\n      mload(0x40)\n      0x08c379a000000000000000000000000000000000000000000000000000000000\n      dup2\n      mstore\n      0x04\n      add\n      tag_76\n      swap1\n      tag_77\n      jump\t// in\n    tag_76:\n      mload(0x40)\n      dup1\n      swap2\n      sub\n      swap1\n      revert\n    tag_75:\n        /* \"contracts/Twitter.sol\":1412:1413  0 */\n      0x00\n        /* \"contracts/Twitter.sol\":1385:1391  tweets */\n      0x01\n        /* \"contracts/Twitter.sol\":1385:1399  tweets[author] */\n      0x00\n        /* \"contracts/Twitter.sol\":1392:1398  author */\n      dup5\n        /* \"contracts/Twitter.sol\":1385:1399  tweets[author] */\n      0xffffffffffffffffffffffffffffffffffffffff\n      and\n      0xffffffffffffffffffffffffffffffffffffffff\n      and\n      dup2\n      mstore\n      0x20\n      add\n      swap1\n      dup2\n      mstore\n      0x20\n      add\n      0x00\n      keccak256\n        /* \"contracts/Twitter.sol\":1400:1402  id */\n      dup3\n        /* \"contracts/Twitter.sol\":1385:1403  tweets[author][id] */\n      dup2\n      sload\n      dup2\n      lt\n      tag_78\n      jumpi\n      tag_79\n      tag_73\n      jump\t// in\n    tag_79:\n    tag_78:\n      swap1\n      0x00\n      mstore\n      keccak256(0x00, 0x20)\n      swap1\n      0x05\n      mul\n      add\n        /* \"contracts/Twitter.sol\":1385:1409  tweets[author][id].likes */\n      0x04\n      add\n      sload\n        /* \"contracts/Twitter.sol\":1385:1413  tweets[author][id].likes > 0 */\n      gt\n        /* \"contracts/Twitter.sol\":1377:1436  require(tweets[author][id].likes > 0 ,\"TWEET HAS NO LIKES\") */\n      tag_81\n      jumpi\n      mload(0x40)\n      0x08c379a000000000000000000000000000000000000000000000000000000000\n      dup2\n      mstore\n      0x04\n      add\n      tag_82\n      swap1\n      tag_83\n      jump\t// in\n    tag_82:\n      mload(0x40)\n      dup1\n      swap2\n      sub\n      swap1\n      revert\n    tag_81:\n        /* \"contracts/Twitter.sol\":1446:1452  tweets */\n      0x01\n        /* \"contracts/Twitter.sol\":1446:1460  tweets[author] */\n      0x00\n        /* \"contracts/Twitter.sol\":1453:1459  author */\n      dup4\n        /* \"contracts/Twitter.sol\":1446:1460  tweets[author] */\n      0xffffffffffffffffffffffffffffffffffffffff\n      and\n      0xffffffffffffffffffffffffffffffffffffffff\n      and\n      dup2\n      mstore\n      0x20\n      add\n      swap1\n      dup2\n      mstore\n      0x20\n      add\n      0x00\n      keccak256\n        /* \"contracts/Twitter.sol\":1461:1463  id */\n      dup2\n        /* \"contracts/Twitter.sol\":1446:1464  tweets[author][id] */\n      dup2\n      sload\n      dup2\n      lt\n      tag_84\n      jumpi\n      tag_85\n      tag_73\n      jump\t// in\n    tag_85:\n    tag_84:\n      swap1\n      0x00\n      mstore\n      keccak256(0x00, 0x20)\n      swap1\n      0x05\n      mul\n      add\n        /* \"contracts/Twitter.sol\":1446:1470  tweets[author][id].likes */\n      0x04\n      add\n      0x00\n        /* \"contracts/Twitter.sol\":1446:1472  tweets[author][id].likes-- */\n      dup2\n      sload\n      dup1\n      swap3\n      swap2\n      swap1\n      tag_87\n      swap1\n      tag_88\n      jump\t// in\n    tag_87:\n      swap2\n      swap1\n      pop\n      sstore\n      pop\n        /* \"contracts/Twitter.sol\":1239:1479  function unlikeTweet(address author, uint256 id) external  {... */\n      pop\n      pop\n      jump\t// out\n        /* \"contracts/Twitter.sol\":504:620  function changeTweetLength(uint16 newTweetLength) public onlyOwner{... */\n    tag_31:\n        /* \"contracts/Twitter.sol\":450:455  owner */\n      0x02\n      0x00\n      swap1\n      sload\n      swap1\n      0x0100\n      exp\n      swap1\n      div\n      0xffffffffffffffffffffffffffffffffffffffff\n      and\n        /* \"contracts/Twitter.sol\":436:455  msg.sender == owner */\n      0xffffffffffffffffffffffffffffffffffffffff\n      and\n        /* \"contracts/Twitter.sol\":436:446  msg.sender */\n      caller\n        /* \"contracts/Twitter.sol\":436:455  msg.sender == owner */\n      0xffffffffffffffffffffffffffffffffffffffff\n      and\n      eq\n        /* \"contracts/Twitter.sol\":428:481  require(msg.sender == owner, \"YOU ARE NOT THE OWNER\") */\n      tag_90\n      jumpi\n      mload(0x40)\n      0x08c379a000000000000000000000000000000000000000000000000000000000\n      dup2\n      mstore\n      0x04\n      add\n      tag_91\n      swap1\n      tag_92\n      jump\t// in\n    tag_91:\n      mload(0x40)\n      dup1\n      swap2\n      sub\n      swap1\n      revert\n    tag_90:\n        /* \"contracts/Twitter.sol\":599:613  newTweetLength */\n      dup1\n        /* \"contracts/Twitter.sol\":580:596  MAX_TWEET_LENGTH */\n      0x00\n      dup1\n        /* \"contracts/Twitter.sol\":580:613  MAX_TWEET_LENGTH = newTweetLength */\n      0x0100\n      exp\n      dup2\n      sload\n      dup2\n      0xffff\n      mul\n      not\n      and\n      swap1\n      dup4\n      0xffff\n      and\n      mul\n      or\n      swap1\n      sstore\n      pop\n        /* \"contracts/Twitter.sol\":504:620  function changeTweetLength(uint16 newTweetLength) public onlyOwner{... */\n      pop\n      jump\t// out\n        /* \"contracts/Twitter.sol\":1064:1233  function likeTweet(address author, uint256 id) external  {... */\n    tag_34:\n        /* \"contracts/Twitter.sol\":1164:1166  id */\n      dup1\n        /* \"contracts/Twitter.sol\":1139:1145  tweets */\n      0x01\n        /* \"contracts/Twitter.sol\":1139:1153  tweets[author] */\n      0x00\n        /* \"contracts/Twitter.sol\":1146:1152  author */\n      dup5\n        /* \"contracts/Twitter.sol\":1139:1153  tweets[author] */\n      0xffffffffffffffffffffffffffffffffffffffff\n      and\n      0xffffffffffffffffffffffffffffffffffffffff\n      and\n      dup2\n      mstore\n      0x20\n      add\n      swap1\n      dup2\n      mstore\n      0x20\n      add\n      0x00\n      keccak256\n        /* \"contracts/Twitter.sol\":1154:1156  id */\n      dup3\n        /* \"contracts/Twitter.sol\":1139:1157  tweets[author][id] */\n      dup2\n      sload\n      dup2\n      lt\n      tag_95\n      jumpi\n      tag_96\n      tag_73\n      jump\t// in\n    tag_96:\n    tag_95:\n      swap1\n      0x00\n      mstore\n      keccak256(0x00, 0x20)\n      swap1\n      0x05\n      mul\n      add\n        /* \"contracts/Twitter.sol\":1139:1160  tweets[author][id].id */\n      0x00\n      add\n      sload\n        /* \"contracts/Twitter.sol\":1139:1166  tweets[author][id].id == id */\n      eq\n        /* \"contracts/Twitter.sol\":1131:1190  require(tweets[author][id].id == id,\"TWEET DOES NOT EXIST\") */\n      tag_98\n      jumpi\n      mload(0x40)\n      0x08c379a000000000000000000000000000000000000000000000000000000000\n      dup2\n      mstore\n      0x04\n      add\n      tag_99\n      swap1\n      tag_77\n      jump\t// in\n    tag_99:\n      mload(0x40)\n      dup1\n      swap2\n      sub\n      swap1\n      revert\n    tag_98:\n        /* \"contracts/Twitter.sol\":1200:1206  tweets */\n      0x01\n        /* \"contracts/Twitter.sol\":1200:1214  tweets[author] */\n      0x00\n        /* \"contracts/Twitter.sol\":1207:1213  author */\n      dup4\n        /* \"contracts/Twitter.sol\":1200:1214  tweets[author] */\n      0xffffffffffffffffffffffffffffffffffffffff\n      and\n      0xffffffffffffffffffffffffffffffffffffffff\n      and\n      dup2\n      mstore\n      0x20\n      add\n      swap1\n      dup2\n      mstore\n      0x20\n      add\n      0x00\n      keccak256\n        /* \"contracts/Twitter.sol\":1215:1217  id */\n      dup2\n        /* \"contracts/Twitter.sol\":1200:1218  tweets[author][id] */\n      dup2\n      sload\n      dup2\n      lt\n      tag_100\n      jumpi\n      tag_101\n      tag_73\n      jump\t// in\n    tag_101:\n    tag_100:\n      swap1\n      0x00\n      mstore\n      keccak256(0x00, 0x20)\n      swap1\n      0x05\n      mul\n      add\n        /* \"contracts/Twitter.sol\":1200:1224  tweets[author][id].likes */\n      0x04\n      add\n      0x00\n        /* \"contracts/Twitter.sol\":1200:1226  tweets[author][id].likes++ */\n      dup2\n      sload\n      dup1\n      swap3\n      swap2\n      swap1\n      tag_103\n      swap1\n      tag_104\n      jump\t// in\n    tag_103:\n      swap2\n      swap1\n      pop\n      sstore\n      pop\n        /* \"contracts/Twitter.sol\":1064:1233  function likeTweet(address author, uint256 id) external  {... */\n      pop\n      pop\n      jump\t// out\n        /* \"contracts/Twitter.sol\":87:123  uint16 public MAX_TWEET_LENGTH = 280 */\n    tag_36:\n      0x00\n      dup1\n      sload\n      swap1\n      0x0100\n      exp\n      swap1\n      div\n      0xffff\n      and\n      dup2\n      jump\t// out\n        /* \"contracts/Twitter.sol\":625:1058  function createTweet(string memory _tweet) public {... */\n    tag_42:\n        /* \"contracts/Twitter.sol\":730:746  MAX_TWEET_LENGTH */\n      0x00\n      dup1\n      sload\n      swap1\n      0x0100\n      exp\n      swap1\n      div\n      0xffff\n      and\n        /* \"contracts/Twitter.sol\":706:746  bytes(_tweet).length <= MAX_TWEET_LENGTH */\n      0xffff\n      and\n        /* \"contracts/Twitter.sol\":712:718  _tweet */\n      dup2\n        /* \"contracts/Twitter.sol\":706:726  bytes(_tweet).length */\n      mload\n        /* \"contracts/Twitter.sol\":706:746  bytes(_tweet).length <= MAX_TWEET_LENGTH */\n      gt\n      iszero\n        /* \"contracts/Twitter.sol\":685:792  require(... */\n      tag_106\n      jumpi\n      mload(0x40)\n      0x08c379a000000000000000000000000000000000000000000000000000000000\n      dup2\n      mstore\n      0x04\n      add\n      tag_107\n      swap1\n      tag_108\n      jump\t// in\n    tag_107:\n      mload(0x40)\n      dup1\n      swap2\n      sub\n      swap1\n      revert\n    tag_106:\n        /* \"contracts/Twitter.sol\":802:823  Tweet memory newTweet */\n      0x00\n        /* \"contracts/Twitter.sol\":826:1008  Tweet({... */\n      mload(0x40)\n      dup1\n      0xa0\n      add\n      0x40\n      mstore\n      dup1\n        /* \"contracts/Twitter.sol\":849:855  tweets */\n      0x01\n        /* \"contracts/Twitter.sol\":849:867  tweets[msg.sender] */\n      0x00\n        /* \"contracts/Twitter.sol\":856:866  msg.sender */\n      caller\n        /* \"contracts/Twitter.sol\":849:867  tweets[msg.sender] */\n      0xffffffffffffffffffffffffffffffffffffffff\n      and\n      0xffffffffffffffffffffffffffffffffffffffff\n      and\n      dup2\n      mstore\n      0x20\n      add\n      swap1\n      dup2\n      mstore\n      0x20\n      add\n      0x00\n      keccak256\n        /* \"contracts/Twitter.sol\":849:874  tweets[msg.sender].length */\n      dup1\n      sload\n      swap1\n      pop\n        /* \"contracts/Twitter.sol\":826:1008  Tweet({... */\n      dup2\n      mstore\n      0x20\n      add\n        /* \"contracts/Twitter.sol\":896:906  msg.sender */\n      caller\n        /* \"contracts/Twitter.sol\":826:1008  Tweet({... */\n      0xffffffffffffffffffffffffffffffffffffffff\n      and\n      dup2\n      mstore\n      0x20\n      add\n        /* \"contracts/Twitter.sol\":929:935  _tweet */\n      dup4\n        /* \"contracts/Twitter.sol\":826:1008  Tweet({... */\n      dup2\n      mstore\n      0x20\n      add\n        /* \"contracts/Twitter.sol\":960:975  block.timestamp */\n      timestamp\n        /* \"contracts/Twitter.sol\":826:1008  Tweet({... */\n      dup2\n      mstore\n      0x20\n      add\n        /* \"contracts/Twitter.sol\":996:997  0 */\n      0x00\n        /* \"contracts/Twitter.sol\":826:1008  Tweet({... */\n      dup2\n      mstore\n      pop\n        /* \"contracts/Twitter.sol\":802:1008  Tweet memory newTweet = Tweet({... */\n      swap1\n      pop\n        /* \"contracts/Twitter.sol\":1018:1024  tweets */\n      0x01\n        /* \"contracts/Twitter.sol\":1018:1036  tweets[msg.sender] */\n      0x00\n        /* \"contracts/Twitter.sol\":1025:1035  msg.sender */\n      caller\n        /* \"contracts/Twitter.sol\":1018:1036  tweets[msg.sender] */\n      0xffffffffffffffffffffffffffffffffffffffff\n      and\n      0xffffffffffffffffffffffffffffffffffffffff\n      and\n      dup2\n      mstore\n      0x20\n      add\n      swap1\n      dup2\n      mstore\n      0x20\n      add\n      0x00\n      keccak256\n        /* \"contracts/Twitter.sol\":1042:1050  newTweet */\n      dup2\n        /* \"contracts/Twitter.sol\":1018:1051  tweets[msg.sender].push(newTweet) */\n      swap1\n      dup1\n      0x01\n      dup2\n      sload\n      add\n      dup1\n      dup3\n      sstore\n      dup1\n      swap2\n      pop\n      pop\n      0x01\n      swap1\n      sub\n      swap1\n      0x00\n      mstore\n      keccak256(0x00, 0x20)\n      swap1\n      0x05\n      mul\n      add\n      0x00\n      swap1\n      swap2\n      swap1\n      swap2\n      swap1\n      swap2\n      pop\n      0x00\n      dup3\n      add\n      mload\n      dup2\n      0x00\n      add\n      sstore\n      0x20\n      dup3\n      add\n      mload\n      dup2\n      0x01\n      add\n      exp(0x0100, 0x00)\n      dup2\n      sload\n      dup2\n      0xffffffffffffffffffffffffffffffffffffffff\n      mul\n      not\n      and\n      swap1\n      dup4\n      0xffffffffffffffffffffffffffffffffffffffff\n      and\n      mul\n      or\n      swap1\n      sstore\n      pop\n      0x40\n      dup3\n      add\n      mload\n      dup2\n      0x02\n      add\n      swap1\n      dup2\n      tag_110\n      swap2\n      swap1\n      tag_111\n      jump\t// in\n    tag_110:\n      pop\n      0x60\n      dup3\n      add\n      mload\n      dup2\n      0x03\n      add\n      sstore\n      0x80\n      dup3\n      add\n      mload\n      dup2\n      0x04\n      add\n      sstore\n      pop\n      pop\n        /* \"contracts/Twitter.sol\":675:1058  {... */\n      pop\n        /* \"contracts/Twitter.sol\":625:1058  function createTweet(string memory _tweet) public {... */\n      pop\n      jump\t// out\n        /* \"contracts/Twitter.sol\":320:340  address public owner */\n    tag_44:\n      0x02\n      0x00\n      swap1\n      sload\n      swap1\n      0x0100\n      exp\n      swap1\n      div\n      0xffffffffffffffffffffffffffffffffffffffff\n      and\n      dup2\n      jump\t// out\n        /* \"contracts/Twitter.sol\":1484:1595  function getTweet(uint256 _i) public view returns (Tweet memory) {... */\n    tag_50:\n        /* \"contracts/Twitter.sol\":1535:1547  Tweet memory */\n      tag_112\n      tag_113\n      jump\t// in\n    tag_112:\n        /* \"contracts/Twitter.sol\":1566:1572  tweets */\n      0x01\n        /* \"contracts/Twitter.sol\":1566:1584  tweets[msg.sender] */\n      0x00\n        /* \"contracts/Twitter.sol\":1573:1583  msg.sender */\n      caller\n        /* \"contracts/Twitter.sol\":1566:1584  tweets[msg.sender] */\n      0xffffffffffffffffffffffffffffffffffffffff\n      and\n      0xffffffffffffffffffffffffffffffffffffffff\n      and\n      dup2\n      mstore\n      0x20\n      add\n      swap1\n      dup2\n      mstore\n      0x20\n      add\n      0x00\n      keccak256\n        /* \"contracts/Twitter.sol\":1585:1587  _i */\n      dup3\n        /* \"contracts/Twitter.sol\":1566:1588  tweets[msg.sender][_i] */\n      dup2\n      sload\n      dup2\n      lt\n      tag_115\n      jumpi\n      tag_116\n      tag_73\n      jump\t// in\n    tag_116:\n    tag_115:\n      swap1\n      0x00\n      mstore\n      keccak256(0x00, 0x20)\n      swap1\n      0x05\n      mul\n      add\n        /* \"contracts/Twitter.sol\":1559:1588  return tweets[msg.sender][_i] */\n      mload(0x40)\n      dup1\n      0xa0\n      add\n      0x40\n      mstore\n      swap1\n      dup2\n      0x00\n      dup3\n      add\n      sload\n      dup2\n      mstore\n      0x20\n      add\n      0x01\n      dup3\n      add\n      0x00\n      swap1\n      sload\n      swap1\n      0x0100\n      exp\n      swap1\n      div\n      0xffffffffffffffffffffffffffffffffffffffff\n      and\n      0xffffffffffffffffffffffffffffffffffffffff\n      and\n      0xffffffffffffffffffffffffffffffffffffffff\n      and\n      dup2\n      mstore\n      0x20\n      add\n      0x02\n      dup3\n      add\n      dup1\n      sload\n      tag_118\n      swap1\n      tag_56\n      jump\t// in\n    tag_118:\n      dup1\n      0x1f\n      add\n      0x20\n      dup1\n      swap2\n      div\n      mul\n      0x20\n      add\n      mload(0x40)\n      swap1\n      dup2\n      add\n      0x40\n      mstore\n      dup1\n      swap3\n      swap2\n      swap1\n      dup2\n      dup2\n      mstore\n      0x20\n      add\n      dup3\n      dup1\n      sload\n      tag_119\n      swap1\n      tag_56\n      jump\t// in\n    tag_119:\n      dup1\n      iszero\n      tag_120\n      jumpi\n      dup1\n      0x1f\n      lt\n      tag_121\n      jumpi\n      0x0100\n      dup1\n      dup4\n      sload\n      div\n      mul\n      dup4\n      mstore\n      swap2\n      0x20\n      add\n      swap2\n      jump(tag_120)\n    tag_121:\n      dup3\n      add\n      swap2\n      swap1\n      0x00\n      mstore\n      keccak256(0x00, 0x20)\n      swap1\n    tag_122:\n      dup2\n      sload\n      dup2\n      mstore\n      swap1\n      0x01\n      add\n      swap1\n      0x20\n      add\n      dup1\n      dup4\n      gt\n      tag_122\n      jumpi\n      dup3\n      swap1\n      sub\n      0x1f\n      and\n      dup3\n      add\n      swap2\n    tag_120:\n      pop\n      pop\n      pop\n      pop\n      pop\n      dup2\n      mstore\n      0x20\n      add\n      0x03\n      dup3\n      add\n      sload\n      dup2\n      mstore\n      0x20\n      add\n      0x04\n      dup3\n      add\n      sload\n      dup2\n      mstore\n      pop\n      pop\n      swap1\n      pop\n        /* \"contracts/Twitter.sol\":1484:1595  function getTweet(uint256 _i) public view returns (Tweet memory) {... */\n      swap2\n      swap1\n      pop\n      jump\t// out\n    tag_113:\n      mload(0x40)\n      dup1\n      0xa0\n      add\n      0x40\n      mstore\n      dup1\n      0x00\n      dup2\n      mstore\n      0x20\n      add\n      and(0xffffffffffffffffffffffffffffffffffffffff, 0x00)\n      dup2\n      mstore\n      0x20\n      add\n      0x60\n      dup2\n      mstore\n      0x20\n      add\n      0x00\n      dup2\n      mstore\n      0x20\n      add\n      0x00\n      dup2\n      mstore\n      pop\n      swap1\n      jump\t// out\n        /* \"#utility.yul\":7:82   */\n    tag_123:\n        /* \"#utility.yul\":40:46   */\n      0x00\n        /* \"#utility.yul\":73:75   */\n      0x40\n        /* \"#utility.yul\":67:76   */\n      mload\n        /* \"#utility.yul\":57:76   */\n      swap1\n      pop\n        /* \"#utility.yul\":7:82   */\n      swap1\n      jump\t// out\n        /* \"#utility.yul\":88:205   */\n    tag_124:\n        /* \"#utility.yul\":197:198   */\n      0x00\n        /* \"#utility.yul\":194:195   */\n      dup1\n        /* \"#utility.yul\":187:199   */\n      revert\n        /* \"#utility.yul\":211:328   */\n    tag_125:\n        /* \"#utility.yul\":320:321   */\n      0x00\n        /* \"#utility.yul\":317:318   */\n      dup1\n        /* \"#utility.yul\":310:322   */\n      revert\n        /* \"#utility.yul\":334:460   */\n    tag_126:\n        /* \"#utility.yul\":371:378   */\n      0x00\n        /* \"#utility.yul\":411:453   */\n      0xffffffffffffffffffffffffffffffffffffffff\n        /* \"#utility.yul\":404:409   */\n      dup3\n        /* \"#utility.yul\":400:454   */\n      and\n        /* \"#utility.yul\":389:454   */\n      swap1\n      pop\n        /* \"#utility.yul\":334:460   */\n      swap2\n      swap1\n      pop\n      jump\t// out\n        /* \"#utility.yul\":466:562   */\n    tag_127:\n        /* \"#utility.yul\":503:510   */\n      0x00\n        /* \"#utility.yul\":532:556   */\n      tag_196\n        /* \"#utility.yul\":550:555   */\n      dup3\n        /* \"#utility.yul\":532:556   */\n      tag_126\n      jump\t// in\n    tag_196:\n        /* \"#utility.yul\":521:556   */\n      swap1\n      pop\n        /* \"#utility.yul\":466:562   */\n      swap2\n      swap1\n      pop\n      jump\t// out\n        /* \"#utility.yul\":568:690   */\n    tag_128:\n        /* \"#utility.yul\":641:665   */\n      tag_198\n        /* \"#utility.yul\":659:664   */\n      dup2\n        /* \"#utility.yul\":641:665   */\n      tag_127\n      jump\t// in\n    tag_198:\n        /* \"#utility.yul\":634:639   */\n      dup2\n        /* \"#utility.yul\":631:666   */\n      eq\n        /* \"#utility.yul\":621:684   */\n      tag_199\n      jumpi\n        /* \"#utility.yul\":680:681   */\n      0x00\n        /* \"#utility.yul\":677:678   */\n      dup1\n        /* \"#utility.yul\":670:682   */\n      revert\n        /* \"#utility.yul\":621:684   */\n    tag_199:\n        /* \"#utility.yul\":568:690   */\n      pop\n      jump\t// out\n        /* \"#utility.yul\":696:835   */\n    tag_129:\n        /* \"#utility.yul\":742:747   */\n      0x00\n        /* \"#utility.yul\":780:786   */\n      dup2\n        /* \"#utility.yul\":767:787   */\n      calldataload\n        /* \"#utility.yul\":758:787   */\n      swap1\n      pop\n        /* \"#utility.yul\":796:829   */\n      tag_201\n        /* \"#utility.yul\":823:828   */\n      dup2\n        /* \"#utility.yul\":796:829   */\n      tag_128\n      jump\t// in\n    tag_201:\n        /* \"#utility.yul\":696:835   */\n      swap3\n      swap2\n      pop\n      pop\n      jump\t// out\n        /* \"#utility.yul\":841:918   */\n    tag_130:\n        /* \"#utility.yul\":878:885   */\n      0x00\n        /* \"#utility.yul\":907:912   */\n      dup2\n        /* \"#utility.yul\":896:912   */\n      swap1\n      pop\n        /* \"#utility.yul\":841:918   */\n      swap2\n      swap1\n      pop\n      jump\t// out\n        /* \"#utility.yul\":924:1046   */\n    tag_131:\n        /* \"#utility.yul\":997:1021   */\n      tag_204\n        /* \"#utility.yul\":1015:1020   */\n      dup2\n        /* \"#utility.yul\":997:1021   */\n      tag_130\n      jump\t// in\n    tag_204:\n        /* \"#utility.yul\":990:995   */\n      dup2\n        /* \"#utility.yul\":987:1022   */\n      eq\n        /* \"#utility.yul\":977:1040   */\n      tag_205\n      jumpi\n        /* \"#utility.yul\":1036:1037   */\n      0x00\n        /* \"#utility.yul\":1033:1034   */\n      dup1\n        /* \"#utility.yul\":1026:1038   */\n      revert\n        /* \"#utility.yul\":977:1040   */\n    tag_205:\n        /* \"#utility.yul\":924:1046   */\n      pop\n      jump\t// out\n        /* \"#utility.yul\":1052:1191   */\n    tag_132:\n        /* \"#utility.yul\":1098:1103   */\n      0x00\n        /* \"#utility.yul\":1136:1142   */\n      dup2\n        /* \"#utility.yul\":1123:1143   */\n      calldataload\n        /* \"#utility.yul\":1114:1143   */\n      swap1\n      pop\n        /* \"#utility.yul\":1152:1185   */\n      tag_207\n        /* \"#utility.yul\":1179:1184   */\n      dup2\n        /* \"#utility.yul\":1152:1185   */\n      tag_131\n      jump\t// in\n    tag_207:\n        /* \"#utility.yul\":1052:1191   */\n      swap3\n      swap2\n      pop\n      pop\n      jump\t// out\n        /* \"#utility.yul\":1197:1671   */\n    tag_15:\n        /* \"#utility.yul\":1265:1271   */\n      0x00\n        /* \"#utility.yul\":1273:1279   */\n      dup1\n        /* \"#utility.yul\":1322:1324   */\n      0x40\n        /* \"#utility.yul\":1310:1319   */\n      dup4\n        /* \"#utility.yul\":1301:1308   */\n      dup6\n        /* \"#utility.yul\":1297:1320   */\n      sub\n        /* \"#utility.yul\":1293:1325   */\n      slt\n        /* \"#utility.yul\":1290:1409   */\n      iszero\n      tag_209\n      jumpi\n        /* \"#utility.yul\":1328:1407   */\n      tag_210\n      tag_124\n      jump\t// in\n    tag_210:\n        /* \"#utility.yul\":1290:1409   */\n    tag_209:\n        /* \"#utility.yul\":1448:1449   */\n      0x00\n        /* \"#utility.yul\":1473:1526   */\n      tag_211\n        /* \"#utility.yul\":1518:1525   */\n      dup6\n        /* \"#utility.yul\":1509:1515   */\n      dup3\n        /* \"#utility.yul\":1498:1507   */\n      dup7\n        /* \"#utility.yul\":1494:1516   */\n      add\n        /* \"#utility.yul\":1473:1526   */\n      tag_129\n      jump\t// in\n    tag_211:\n        /* \"#utility.yul\":1463:1526   */\n      swap3\n      pop\n        /* \"#utility.yul\":1419:1536   */\n      pop\n        /* \"#utility.yul\":1575:1577   */\n      0x20\n        /* \"#utility.yul\":1601:1654   */\n      tag_212\n        /* \"#utility.yul\":1646:1653   */\n      dup6\n        /* \"#utility.yul\":1637:1643   */\n      dup3\n        /* \"#utility.yul\":1626:1635   */\n      dup7\n        /* \"#utility.yul\":1622:1644   */\n      add\n        /* \"#utility.yul\":1601:1654   */\n      tag_132\n      jump\t// in\n    tag_212:\n        /* \"#utility.yul\":1591:1654   */\n      swap2\n      pop\n        /* \"#utility.yul\":1546:1664   */\n      pop\n        /* \"#utility.yul\":1197:1671   */\n      swap3\n      pop\n      swap3\n      swap1\n      pop\n      jump\t// out\n        /* \"#utility.yul\":1677:1795   */\n    tag_133:\n        /* \"#utility.yul\":1764:1788   */\n      tag_214\n        /* \"#utility.yul\":1782:1787   */\n      dup2\n        /* \"#utility.yul\":1764:1788   */\n      tag_130\n      jump\t// in\n    tag_214:\n        /* \"#utility.yul\":1759:1762   */\n      dup3\n        /* \"#utility.yul\":1752:1789   */\n      mstore\n        /* \"#utility.yul\":1677:1795   */\n      pop\n      pop\n      jump\t// out\n        /* \"#utility.yul\":1801:1919   */\n    tag_134:\n        /* \"#utility.yul\":1888:1912   */\n      tag_216\n        /* \"#utility.yul\":1906:1911   */\n      dup2\n        /* \"#utility.yul\":1888:1912   */\n      tag_127\n      jump\t// in\n    tag_216:\n        /* \"#utility.yul\":1883:1886   */\n      dup3\n        /* \"#utility.yul\":1876:1913   */\n      mstore\n        /* \"#utility.yul\":1801:1919   */\n      pop\n      pop\n      jump\t// out\n        /* \"#utility.yul\":1925:2024   */\n    tag_135:\n        /* \"#utility.yul\":1977:1983   */\n      0x00\n        /* \"#utility.yul\":2011:2016   */\n      dup2\n        /* \"#utility.yul\":2005:2017   */\n      mload\n        /* \"#utility.yul\":1995:2017   */\n      swap1\n      pop\n        /* \"#utility.yul\":1925:2024   */\n      swap2\n      swap1\n      pop\n      jump\t// out\n        /* \"#utility.yul\":2030:2199   */\n    tag_136:\n        /* \"#utility.yul\":2114:2125   */\n      0x00\n        /* \"#utility.yul\":2148:2154   */\n      dup3\n        /* \"#utility.yul\":2143:2146   */\n      dup3\n        /* \"#utility.yul\":2136:2155   */\n      mstore\n        /* \"#utility.yul\":2188:2192   */\n      0x20\n        /* \"#utility.yul\":2183:2186   */\n      dup3\n        /* \"#utility.yul\":2179:2193   */\n      add\n        /* \"#utility.yul\":2164:2193   */\n      swap1\n      pop\n        /* \"#utility.yul\":2030:2199   */\n      swap3\n      swap2\n      pop\n      pop\n      jump\t// out\n        /* \"#utility.yul\":2205:2451   */\n    tag_137:\n        /* \"#utility.yul\":2286:2287   */\n      0x00\n        /* \"#utility.yul\":2296:2409   */\n    tag_220:\n        /* \"#utility.yul\":2310:2316   */\n      dup4\n        /* \"#utility.yul\":2307:2308   */\n      dup2\n        /* \"#utility.yul\":2304:2317   */\n      lt\n        /* \"#utility.yul\":2296:2409   */\n      iszero\n      tag_222\n      jumpi\n        /* \"#utility.yul\":2395:2396   */\n      dup1\n        /* \"#utility.yul\":2390:2393   */\n      dup3\n        /* \"#utility.yul\":2386:2397   */\n      add\n        /* \"#utility.yul\":2380:2398   */\n      mload\n        /* \"#utility.yul\":2376:2377   */\n      dup2\n        /* \"#utility.yul\":2371:2374   */\n      dup5\n        /* \"#utility.yul\":2367:2378   */\n      add\n        /* \"#utility.yul\":2360:2399   */\n      mstore\n        /* \"#utility.yul\":2332:2334   */\n      0x20\n        /* \"#utility.yul\":2329:2330   */\n      dup2\n        /* \"#utility.yul\":2325:2335   */\n      add\n        /* \"#utility.yul\":2320:2335   */\n      swap1\n      pop\n        /* \"#utility.yul\":2296:2409   */\n      jump(tag_220)\n    tag_222:\n        /* \"#utility.yul\":2443:2444   */\n      0x00\n        /* \"#utility.yul\":2434:2440   */\n      dup5\n        /* \"#utility.yul\":2429:2432   */\n      dup5\n        /* \"#utility.yul\":2425:2441   */\n      add\n        /* \"#utility.yul\":2418:2445   */\n      mstore\n        /* \"#utility.yul\":2267:2451   */\n      pop\n        /* \"#utility.yul\":2205:2451   */\n      pop\n      pop\n      pop\n      jump\t// out\n        /* \"#utility.yul\":2457:2559   */\n    tag_138:\n        /* \"#utility.yul\":2498:2504   */\n      0x00\n        /* \"#utility.yul\":2549:2551   */\n      0x1f\n        /* \"#utility.yul\":2545:2552   */\n      not\n        /* \"#utility.yul\":2540:2542   */\n      0x1f\n        /* \"#utility.yul\":2533:2538   */\n      dup4\n        /* \"#utility.yul\":2529:2543   */\n      add\n        /* \"#utility.yul\":2525:2553   */\n      and\n        /* \"#utility.yul\":2515:2553   */\n      swap1\n      pop\n        /* \"#utility.yul\":2457:2559   */\n      swap2\n      swap1\n      pop\n      jump\t// out\n        /* \"#utility.yul\":2565:2942   */\n    tag_139:\n        /* \"#utility.yul\":2653:2656   */\n      0x00\n        /* \"#utility.yul\":2681:2720   */\n      tag_225\n        /* \"#utility.yul\":2714:2719   */\n      dup3\n        /* \"#utility.yul\":2681:2720   */\n      tag_135\n      jump\t// in\n    tag_225:\n        /* \"#utility.yul\":2736:2807   */\n      tag_226\n        /* \"#utility.yul\":2800:2806   */\n      dup2\n        /* \"#utility.yul\":2795:2798   */\n      dup6\n        /* \"#utility.yul\":2736:2807   */\n      tag_136\n      jump\t// in\n    tag_226:\n        /* \"#utility.yul\":2729:2807   */\n      swap4\n      pop\n        /* \"#utility.yul\":2816:2881   */\n      tag_227\n        /* \"#utility.yul\":2874:2880   */\n      dup2\n        /* \"#utility.yul\":2869:2872   */\n      dup6\n        /* \"#utility.yul\":2862:2866   */\n      0x20\n        /* \"#utility.yul\":2855:2860   */\n      dup7\n        /* \"#utility.yul\":2851:2867   */\n      add\n        /* \"#utility.yul\":2816:2881   */\n      tag_137\n      jump\t// in\n    tag_227:\n        /* \"#utility.yul\":2906:2935   */\n      tag_228\n        /* \"#utility.yul\":2928:2934   */\n      dup2\n        /* \"#utility.yul\":2906:2935   */\n      tag_138\n      jump\t// in\n    tag_228:\n        /* \"#utility.yul\":2901:2904   */\n      dup5\n        /* \"#utility.yul\":2897:2936   */\n      add\n        /* \"#utility.yul\":2890:2936   */\n      swap2\n      pop\n        /* \"#utility.yul\":2657:2942   */\n      pop\n        /* \"#utility.yul\":2565:2942   */\n      swap3\n      swap2\n      pop\n      pop\n      jump\t// out\n        /* \"#utility.yul\":2948:3703   */\n    tag_18:\n        /* \"#utility.yul\":3173:3177   */\n      0x00\n        /* \"#utility.yul\":3211:3214   */\n      0xa0\n        /* \"#utility.yul\":3200:3209   */\n      dup3\n        /* \"#utility.yul\":3196:3215   */\n      add\n        /* \"#utility.yul\":3188:3215   */\n      swap1\n      pop\n        /* \"#utility.yul\":3225:3296   */\n      tag_230\n        /* \"#utility.yul\":3293:3294   */\n      0x00\n        /* \"#utility.yul\":3282:3291   */\n      dup4\n        /* \"#utility.yul\":3278:3295   */\n      add\n        /* \"#utility.yul\":3269:3275   */\n      dup9\n        /* \"#utility.yul\":3225:3296   */\n      tag_133\n      jump\t// in\n    tag_230:\n        /* \"#utility.yul\":3306:3378   */\n      tag_231\n        /* \"#utility.yul\":3374:3376   */\n      0x20\n        /* \"#utility.yul\":3363:3372   */\n      dup4\n        /* \"#utility.yul\":3359:3377   */\n      add\n        /* \"#utility.yul\":3350:3356   */\n      dup8\n        /* \"#utility.yul\":3306:3378   */\n      tag_134\n      jump\t// in\n    tag_231:\n        /* \"#utility.yul\":3425:3434   */\n      dup2\n        /* \"#utility.yul\":3419:3423   */\n      dup2\n        /* \"#utility.yul\":3415:3435   */\n      sub\n        /* \"#utility.yul\":3410:3412   */\n      0x40\n        /* \"#utility.yul\":3399:3408   */\n      dup4\n        /* \"#utility.yul\":3395:3413   */\n      add\n        /* \"#utility.yul\":3388:3436   */\n      mstore\n        /* \"#utility.yul\":3453:3531   */\n      tag_232\n        /* \"#utility.yul\":3526:3530   */\n      dup2\n        /* \"#utility.yul\":3517:3523   */\n      dup7\n        /* \"#utility.yul\":3453:3531   */\n      tag_139\n      jump\t// in\n    tag_232:\n        /* \"#utility.yul\":3445:3531   */\n      swap1\n      pop\n        /* \"#utility.yul\":3541:3613   */\n      tag_233\n        /* \"#utility.yul\":3609:3611   */\n      0x60\n        /* \"#utility.yul\":3598:3607   */\n      dup4\n        /* \"#utility.yul\":3594:3612   */\n      add\n        /* \"#utility.yul\":3585:3591   */\n      dup6\n        /* \"#utility.yul\":3541:3613   */\n      tag_133\n      jump\t// in\n    tag_233:\n        /* \"#utility.yul\":3623:3696   */\n      tag_234\n        /* \"#utility.yul\":3691:3694   */\n      0x80\n        /* \"#utility.yul\":3680:3689   */\n      dup4\n        /* \"#utility.yul\":3676:3695   */\n      add\n        /* \"#utility.yul\":3667:3673   */\n      dup5\n        /* \"#utility.yul\":3623:3696   */\n      tag_133\n      jump\t// in\n    tag_234:\n        /* \"#utility.yul\":2948:3703   */\n      swap7\n      swap6\n      pop\n      pop\n      pop\n      pop\n      pop\n      pop\n      jump\t// out\n        /* \"#utility.yul\":3709:4038   */\n    tag_21:\n        /* \"#utility.yul\":3768:3774   */\n      0x00\n        /* \"#utility.yul\":3817:3819   */\n      0x20\n        /* \"#utility.yul\":3805:3814   */\n      dup3\n        /* \"#utility.yul\":3796:3803   */\n      dup5\n        /* \"#utility.yul\":3792:3815   */\n      sub\n        /* \"#utility.yul\":3788:3820   */\n      slt\n        /* \"#utility.yul\":3785:3904   */\n      iszero\n      tag_236\n      jumpi\n        /* \"#utility.yul\":3823:3902   */\n      tag_237\n      tag_124\n      jump\t// in\n    tag_237:\n        /* \"#utility.yul\":3785:3904   */\n    tag_236:\n        /* \"#utility.yul\":3943:3944   */\n      0x00\n        /* \"#utility.yul\":3968:4021   */\n      tag_238\n        /* \"#utility.yul\":4013:4020   */\n      dup5\n        /* \"#utility.yul\":4004:4010   */\n      dup3\n        /* \"#utility.yul\":3993:4002   */\n      dup6\n        /* \"#utility.yul\":3989:4011   */\n      add\n        /* \"#utility.yul\":3968:4021   */\n      tag_129\n      jump\t// in\n    tag_238:\n        /* \"#utility.yul\":3958:4021   */\n      swap2\n      pop\n        /* \"#utility.yul\":3914:4031   */\n      pop\n        /* \"#utility.yul\":3709:4038   */\n      swap3\n      swap2\n      pop\n      pop\n      jump\t// out\n        /* \"#utility.yul\":4044:4179   */\n    tag_140:\n        /* \"#utility.yul\":4132:4138   */\n      0x00\n        /* \"#utility.yul\":4166:4171   */\n      dup2\n        /* \"#utility.yul\":4160:4172   */\n      mload\n        /* \"#utility.yul\":4150:4172   */\n      swap1\n      pop\n        /* \"#utility.yul\":4044:4179   */\n      swap2\n      swap1\n      pop\n      jump\t// out\n        /* \"#utility.yul\":4185:4390   */\n    tag_141:\n        /* \"#utility.yul\":4305:4316   */\n      0x00\n        /* \"#utility.yul\":4339:4345   */\n      dup3\n        /* \"#utility.yul\":4334:4337   */\n      dup3\n        /* \"#utility.yul\":4327:4346   */\n      mstore\n        /* \"#utility.yul\":4379:4383   */\n      0x20\n        /* \"#utility.yul\":4374:4377   */\n      dup3\n        /* \"#utility.yul\":4370:4384   */\n      add\n        /* \"#utility.yul\":4355:4384   */\n      swap1\n      pop\n        /* \"#utility.yul\":4185:4390   */\n      swap3\n      swap2\n      pop\n      pop\n      jump\t// out\n        /* \"#utility.yul\":4396:4549   */\n    tag_142:\n        /* \"#utility.yul\":4484:4488   */\n      0x00\n        /* \"#utility.yul\":4507:4510   */\n      dup2\n        /* \"#utility.yul\":4499:4510   */\n      swap1\n      pop\n        /* \"#utility.yul\":4537:4541   */\n      0x20\n        /* \"#utility.yul\":4532:4535   */\n      dup3\n        /* \"#utility.yul\":4528:4542   */\n      add\n        /* \"#utility.yul\":4520:4542   */\n      swap1\n      pop\n        /* \"#utility.yul\":4396:4549   */\n      swap2\n      swap1\n      pop\n      jump\t// out\n        /* \"#utility.yul\":4555:4663   */\n    tag_143:\n        /* \"#utility.yul\":4632:4656   */\n      tag_243\n        /* \"#utility.yul\":4650:4655   */\n      dup2\n        /* \"#utility.yul\":4632:4656   */\n      tag_130\n      jump\t// in\n    tag_243:\n        /* \"#utility.yul\":4627:4630   */\n      dup3\n        /* \"#utility.yul\":4620:4657   */\n      mstore\n        /* \"#utility.yul\":4555:4663   */\n      pop\n      pop\n      jump\t// out\n        /* \"#utility.yul\":4669:4777   */\n    tag_144:\n        /* \"#utility.yul\":4746:4770   */\n      tag_245\n        /* \"#utility.yul\":4764:4769   */\n      dup2\n        /* \"#utility.yul\":4746:4770   */\n      tag_127\n      jump\t// in\n    tag_245:\n        /* \"#utility.yul\":4741:4744   */\n      dup3\n        /* \"#utility.yul\":4734:4771   */\n      mstore\n        /* \"#utility.yul\":4669:4777   */\n      pop\n      pop\n      jump\t// out\n        /* \"#utility.yul\":4783:4942   */\n    tag_145:\n        /* \"#utility.yul\":4857:4868   */\n      0x00\n        /* \"#utility.yul\":4891:4897   */\n      dup3\n        /* \"#utility.yul\":4886:4889   */\n      dup3\n        /* \"#utility.yul\":4879:4898   */\n      mstore\n        /* \"#utility.yul\":4931:4935   */\n      0x20\n        /* \"#utility.yul\":4926:4929   */\n      dup3\n        /* \"#utility.yul\":4922:4936   */\n      add\n        /* \"#utility.yul\":4907:4936   */\n      swap1\n      pop\n        /* \"#utility.yul\":4783:4942   */\n      swap3\n      swap2\n      pop\n      pop\n      jump\t// out\n        /* \"#utility.yul\":4948:5305   */\n    tag_146:\n        /* \"#utility.yul\":5026:5029   */\n      0x00\n        /* \"#utility.yul\":5054:5093   */\n      tag_248\n        /* \"#utility.yul\":5087:5092   */\n      dup3\n        /* \"#utility.yul\":5054:5093   */\n      tag_135\n      jump\t// in\n    tag_248:\n        /* \"#utility.yul\":5109:5170   */\n      tag_249\n        /* \"#utility.yul\":5163:5169   */\n      dup2\n        /* \"#utility.yul\":5158:5161   */\n      dup6\n        /* \"#utility.yul\":5109:5170   */\n      tag_145\n      jump\t// in\n    tag_249:\n        /* \"#utility.yul\":5102:5170   */\n      swap4\n      pop\n        /* \"#utility.yul\":5179:5244   */\n      tag_250\n        /* \"#utility.yul\":5237:5243   */\n      dup2\n        /* \"#utility.yul\":5232:5235   */\n      dup6\n        /* \"#utility.yul\":5225:5229   */\n      0x20\n        /* \"#utility.yul\":5218:5223   */\n      dup7\n        /* \"#utility.yul\":5214:5230   */\n      add\n        /* \"#utility.yul\":5179:5244   */\n      tag_137\n      jump\t// in\n    tag_250:\n        /* \"#utility.yul\":5269:5298   */\n      tag_251\n        /* \"#utility.yul\":5291:5297   */\n      dup2\n        /* \"#utility.yul\":5269:5298   */\n      tag_138\n      jump\t// in\n    tag_251:\n        /* \"#utility.yul\":5264:5267   */\n      dup5\n        /* \"#utility.yul\":5260:5299   */\n      add\n        /* \"#utility.yul\":5253:5299   */\n      swap2\n      pop\n        /* \"#utility.yul\":5030:5305   */\n      pop\n        /* \"#utility.yul\":4948:5305   */\n      swap3\n      swap2\n      pop\n      pop\n      jump\t// out\n        /* \"#utility.yul\":5363:6482   */\n    tag_147:\n        /* \"#utility.yul\":5464:5467   */\n      0x00\n        /* \"#utility.yul\":5500:5504   */\n      0xa0\n        /* \"#utility.yul\":5495:5498   */\n      dup4\n        /* \"#utility.yul\":5491:5505   */\n      add\n        /* \"#utility.yul\":5585:5589   */\n      0x00\n        /* \"#utility.yul\":5578:5583   */\n      dup4\n        /* \"#utility.yul\":5574:5590   */\n      add\n        /* \"#utility.yul\":5568:5591   */\n      mload\n        /* \"#utility.yul\":5604:5667   */\n      tag_253\n        /* \"#utility.yul\":5661:5665   */\n      0x00\n        /* \"#utility.yul\":5656:5659   */\n      dup7\n        /* \"#utility.yul\":5652:5666   */\n      add\n        /* \"#utility.yul\":5638:5650   */\n      dup3\n        /* \"#utility.yul\":5604:5667   */\n      tag_143\n      jump\t// in\n    tag_253:\n        /* \"#utility.yul\":5515:5677   */\n      pop\n        /* \"#utility.yul\":5761:5765   */\n      0x20\n        /* \"#utility.yul\":5754:5759   */\n      dup4\n        /* \"#utility.yul\":5750:5766   */\n      add\n        /* \"#utility.yul\":5744:5767   */\n      mload\n        /* \"#utility.yul\":5780:5843   */\n      tag_254\n        /* \"#utility.yul\":5837:5841   */\n      0x20\n        /* \"#utility.yul\":5832:5835   */\n      dup7\n        /* \"#utility.yul\":5828:5842   */\n      add\n        /* \"#utility.yul\":5814:5826   */\n      dup3\n        /* \"#utility.yul\":5780:5843   */\n      tag_144\n      jump\t// in\n    tag_254:\n        /* \"#utility.yul\":5687:5853   */\n      pop\n        /* \"#utility.yul\":5938:5942   */\n      0x40\n        /* \"#utility.yul\":5931:5936   */\n      dup4\n        /* \"#utility.yul\":5927:5943   */\n      add\n        /* \"#utility.yul\":5921:5944   */\n      mload\n        /* \"#utility.yul\":5991:5994   */\n      dup5\n        /* \"#utility.yul\":5985:5989   */\n      dup3\n        /* \"#utility.yul\":5981:5995   */\n      sub\n        /* \"#utility.yul\":5974:5978   */\n      0x40\n        /* \"#utility.yul\":5969:5972   */\n      dup7\n        /* \"#utility.yul\":5965:5979   */\n      add\n        /* \"#utility.yul\":5958:5996   */\n      mstore\n        /* \"#utility.yul\":6017:6090   */\n      tag_255\n        /* \"#utility.yul\":6085:6089   */\n      dup3\n        /* \"#utility.yul\":6071:6083   */\n      dup3\n        /* \"#utility.yul\":6017:6090   */\n      tag_146\n      jump\t// in\n    tag_255:\n        /* \"#utility.yul\":6009:6090   */\n      swap2\n      pop\n        /* \"#utility.yul\":5863:6101   */\n      pop\n        /* \"#utility.yul\":6188:6192   */\n      0x60\n        /* \"#utility.yul\":6181:6186   */\n      dup4\n        /* \"#utility.yul\":6177:6193   */\n      add\n        /* \"#utility.yul\":6171:6194   */\n      mload\n        /* \"#utility.yul\":6207:6270   */\n      tag_256\n        /* \"#utility.yul\":6264:6268   */\n      0x60\n        /* \"#utility.yul\":6259:6262   */\n      dup7\n        /* \"#utility.yul\":6255:6269   */\n      add\n        /* \"#utility.yul\":6241:6253   */\n      dup3\n        /* \"#utility.yul\":6207:6270   */\n      tag_143\n      jump\t// in\n    tag_256:\n        /* \"#utility.yul\":6111:6280   */\n      pop\n        /* \"#utility.yul\":6363:6367   */\n      0x80\n        /* \"#utility.yul\":6356:6361   */\n      dup4\n        /* \"#utility.yul\":6352:6368   */\n      add\n        /* \"#utility.yul\":6346:6369   */\n      mload\n        /* \"#utility.yul\":6382:6445   */\n      tag_257\n        /* \"#utility.yul\":6439:6443   */\n      0x80\n        /* \"#utility.yul\":6434:6437   */\n      dup7\n        /* \"#utility.yul\":6430:6444   */\n      add\n        /* \"#utility.yul\":6416:6428   */\n      dup3\n        /* \"#utility.yul\":6382:6445   */\n      tag_143\n      jump\t// in\n    tag_257:\n        /* \"#utility.yul\":6290:6455   */\n      pop\n        /* \"#utility.yul\":6472:6476   */\n      dup1\n        /* \"#utility.yul\":6465:6476   */\n      swap2\n      pop\n        /* \"#utility.yul\":5469:6482   */\n      pop\n        /* \"#utility.yul\":5363:6482   */\n      swap3\n      swap2\n      pop\n      pop\n      jump\t// out\n        /* \"#utility.yul\":6488:6728   */\n    tag_148:\n        /* \"#utility.yul\":6599:6609   */\n      0x00\n        /* \"#utility.yul\":6634:6722   */\n      tag_259\n        /* \"#utility.yul\":6718:6721   */\n      dup4\n        /* \"#utility.yul\":6710:6716   */\n      dup4\n        /* \"#utility.yul\":6634:6722   */\n      tag_147\n      jump\t// in\n    tag_259:\n        /* \"#utility.yul\":6620:6722   */\n      swap1\n      pop\n        /* \"#utility.yul\":6488:6728   */\n      swap3\n      swap2\n      pop\n      pop\n      jump\t// out\n        /* \"#utility.yul\":6734:6868   */\n    tag_149:\n        /* \"#utility.yul\":6825:6829   */\n      0x00\n        /* \"#utility.yul\":6857:6861   */\n      0x20\n        /* \"#utility.yul\":6852:6855   */\n      dup3\n        /* \"#utility.yul\":6848:6862   */\n      add\n        /* \"#utility.yul\":6840:6862   */\n      swap1\n      pop\n        /* \"#utility.yul\":6734:6868   */\n      swap2\n      swap1\n      pop\n      jump\t// out\n        /* \"#utility.yul\":6930:8009   */\n    tag_150:\n        /* \"#utility.yul\":7091:7094   */\n      0x00\n        /* \"#utility.yul\":7120:7195   */\n      tag_262\n        /* \"#utility.yul\":7189:7194   */\n      dup3\n        /* \"#utility.yul\":7120:7195   */\n      tag_140\n      jump\t// in\n    tag_262:\n        /* \"#utility.yul\":7211:7318   */\n      tag_263\n        /* \"#utility.yul\":7311:7317   */\n      dup2\n        /* \"#utility.yul\":7306:7309   */\n      dup6\n        /* \"#utility.yul\":7211:7318   */\n      tag_141\n      jump\t// in\n    tag_263:\n        /* \"#utility.yul\":7204:7318   */\n      swap4\n      pop\n        /* \"#utility.yul\":7344:7347   */\n      dup4\n        /* \"#utility.yul\":7389:7393   */\n      0x20\n        /* \"#utility.yul\":7381:7387   */\n      dup3\n        /* \"#utility.yul\":7377:7394   */\n      mul\n        /* \"#utility.yul\":7372:7375   */\n      dup6\n        /* \"#utility.yul\":7368:7395   */\n      add\n        /* \"#utility.yul\":7419:7496   */\n      tag_264\n        /* \"#utility.yul\":7490:7495   */\n      dup6\n        /* \"#utility.yul\":7419:7496   */\n      tag_142\n      jump\t// in\n    tag_264:\n        /* \"#utility.yul\":7519:7526   */\n      dup1\n        /* \"#utility.yul\":7550:7551   */\n      0x00\n        /* \"#utility.yul\":7535:7964   */\n    tag_265:\n        /* \"#utility.yul\":7560:7566   */\n      dup6\n        /* \"#utility.yul\":7557:7558   */\n      dup2\n        /* \"#utility.yul\":7554:7567   */\n      lt\n        /* \"#utility.yul\":7535:7964   */\n      iszero\n      tag_267\n      jumpi\n        /* \"#utility.yul\":7631:7640   */\n      dup5\n        /* \"#utility.yul\":7625:7629   */\n      dup5\n        /* \"#utility.yul\":7621:7641   */\n      sub\n        /* \"#utility.yul\":7616:7619   */\n      dup10\n        /* \"#utility.yul\":7609:7642   */\n      mstore\n        /* \"#utility.yul\":7682:7688   */\n      dup2\n        /* \"#utility.yul\":7676:7689   */\n      mload\n        /* \"#utility.yul\":7710:7816   */\n      tag_268\n        /* \"#utility.yul\":7811:7815   */\n      dup6\n        /* \"#utility.yul\":7796:7809   */\n      dup3\n        /* \"#utility.yul\":7710:7816   */\n      tag_148\n      jump\t// in\n    tag_268:\n        /* \"#utility.yul\":7702:7816   */\n      swap5\n      pop\n        /* \"#utility.yul\":7839:7920   */\n      tag_269\n        /* \"#utility.yul\":7913:7919   */\n      dup4\n        /* \"#utility.yul\":7839:7920   */\n      tag_149\n      jump\t// in\n    tag_269:\n        /* \"#utility.yul\":7829:7920   */\n      swap3\n      pop\n        /* \"#utility.yul\":7949:7953   */\n      0x20\n        /* \"#utility.yul\":7944:7947   */\n      dup11\n        /* \"#utility.yul\":7940:7954   */\n      add\n        /* \"#utility.yul\":7933:7954   */\n      swap10\n      pop\n        /* \"#utility.yul\":7595:7964   */\n      pop\n        /* \"#utility.yul\":7582:7583   */\n      0x01\n        /* \"#utility.yul\":7579:7580   */\n      dup2\n        /* \"#utility.yul\":7575:7584   */\n      add\n        /* \"#utility.yul\":7570:7584   */\n      swap1\n      pop\n        /* \"#utility.yul\":7535:7964   */\n      jump(tag_265)\n    tag_267:\n        /* \"#utility.yul\":7539:7553   */\n      pop\n        /* \"#utility.yul\":7980:7984   */\n      dup3\n        /* \"#utility.yul\":7973:7984   */\n      swap8\n      pop\n        /* \"#utility.yul\":8000:8003   */\n      dup8\n        /* \"#utility.yul\":7993:8003   */\n      swap6\n      pop\n        /* \"#utility.yul\":7096:8009   */\n      pop\n      pop\n      pop\n      pop\n      pop\n        /* \"#utility.yul\":6930:8009   */\n      swap3\n      swap2\n      pop\n      pop\n      jump\t// out\n        /* \"#utility.yul\":8015:8472   */\n    tag_24:\n        /* \"#utility.yul\":8200:8204   */\n      0x00\n        /* \"#utility.yul\":8238:8240   */\n      0x20\n        /* \"#utility.yul\":8227:8236   */\n      dup3\n        /* \"#utility.yul\":8223:8241   */\n      add\n        /* \"#utility.yul\":8215:8241   */\n      swap1\n      pop\n        /* \"#utility.yul\":8287:8296   */\n      dup2\n        /* \"#utility.yul\":8281:8285   */\n      dup2\n        /* \"#utility.yul\":8277:8297   */\n      sub\n        /* \"#utility.yul\":8273:8274   */\n      0x00\n        /* \"#utility.yul\":8262:8271   */\n      dup4\n        /* \"#utility.yul\":8258:8275   */\n      add\n        /* \"#utility.yul\":8251:8298   */\n      mstore\n        /* \"#utility.yul\":8315:8465   */\n      tag_271\n        /* \"#utility.yul\":8460:8464   */\n      dup2\n        /* \"#utility.yul\":8451:8457   */\n      dup5\n        /* \"#utility.yul\":8315:8465   */\n      tag_150\n      jump\t// in\n    tag_271:\n        /* \"#utility.yul\":8307:8465   */\n      swap1\n      pop\n        /* \"#utility.yul\":8015:8472   */\n      swap3\n      swap2\n      pop\n      pop\n      jump\t// out\n        /* \"#utility.yul\":8478:8567   */\n    tag_151:\n        /* \"#utility.yul\":8514:8521   */\n      0x00\n        /* \"#utility.yul\":8554:8560   */\n      0xffff\n        /* \"#utility.yul\":8547:8552   */\n      dup3\n        /* \"#utility.yul\":8543:8561   */\n      and\n        /* \"#utility.yul\":8532:8561   */\n      swap1\n      pop\n        /* \"#utility.yul\":8478:8567   */\n      swap2\n      swap1\n      pop\n      jump\t// out\n        /* \"#utility.yul\":8573:8693   */\n    tag_152:\n        /* \"#utility.yul\":8645:8668   */\n      tag_274\n        /* \"#utility.yul\":8662:8667   */\n      dup2\n        /* \"#utility.yul\":8645:8668   */\n      tag_151\n      jump\t// in\n    tag_274:\n        /* \"#utility.yul\":8638:8643   */\n      dup2\n        /* \"#utility.yul\":8635:8669   */\n      eq\n        /* \"#utility.yul\":8625:8687   */\n      tag_275\n      jumpi\n        /* \"#utility.yul\":8683:8684   */\n      0x00\n        /* \"#utility.yul\":8680:8681   */\n      dup1\n        /* \"#utility.yul\":8673:8685   */\n      revert\n        /* \"#utility.yul\":8625:8687   */\n    tag_275:\n        /* \"#utility.yul\":8573:8693   */\n      pop\n      jump\t// out\n        /* \"#utility.yul\":8699:8836   */\n    tag_153:\n        /* \"#utility.yul\":8744:8749   */\n      0x00\n        /* \"#utility.yul\":8782:8788   */\n      dup2\n        /* \"#utility.yul\":8769:8789   */\n      calldataload\n        /* \"#utility.yul\":8760:8789   */\n      swap1\n      pop\n        /* \"#utility.yul\":8798:8830   */\n      tag_277\n        /* \"#utility.yul\":8824:8829   */\n      dup2\n        /* \"#utility.yul\":8798:8830   */\n      tag_152\n      jump\t// in\n    tag_277:\n        /* \"#utility.yul\":8699:8836   */\n      swap3\n      swap2\n      pop\n      pop\n      jump\t// out\n        /* \"#utility.yul\":8842:9169   */\n    tag_30:\n        /* \"#utility.yul\":8900:8906   */\n      0x00\n        /* \"#utility.yul\":8949:8951   */\n      0x20\n        /* \"#utility.yul\":8937:8946   */\n      dup3\n        /* \"#utility.yul\":8928:8935   */\n      dup5\n        /* \"#utility.yul\":8924:8947   */\n      sub\n        /* \"#utility.yul\":8920:8952   */\n      slt\n        /* \"#utility.yul\":8917:9036   */\n      iszero\n      tag_279\n      jumpi\n        /* \"#utility.yul\":8955:9034   */\n      tag_280\n      tag_124\n      jump\t// in\n    tag_280:\n        /* \"#utility.yul\":8917:9036   */\n    tag_279:\n        /* \"#utility.yul\":9075:9076   */\n      0x00\n        /* \"#utility.yul\":9100:9152   */\n      tag_281\n        /* \"#utility.yul\":9144:9151   */\n      dup5\n        /* \"#utility.yul\":9135:9141   */\n      dup3\n        /* \"#utility.yul\":9124:9133   */\n      dup6\n        /* \"#utility.yul\":9120:9142   */\n      add\n        /* \"#utility.yul\":9100:9152   */\n      tag_153\n      jump\t// in\n    tag_281:\n        /* \"#utility.yul\":9090:9152   */\n      swap2\n      pop\n        /* \"#utility.yul\":9046:9162   */\n      pop\n        /* \"#utility.yul\":8842:9169   */\n      swap3\n      swap2\n      pop\n      pop\n      jump\t// out\n        /* \"#utility.yul\":9175:9290   */\n    tag_154:\n        /* \"#utility.yul\":9260:9283   */\n      tag_283\n        /* \"#utility.yul\":9277:9282   */\n      dup2\n        /* \"#utility.yul\":9260:9283   */\n      tag_151\n      jump\t// in\n    tag_283:\n        /* \"#utility.yul\":9255:9258   */\n      dup3\n        /* \"#utility.yul\":9248:9284   */\n      mstore\n        /* \"#utility.yul\":9175:9290   */\n      pop\n      pop\n      jump\t// out\n        /* \"#utility.yul\":9296:9514   */\n    tag_38:\n        /* \"#utility.yul\":9387:9391   */\n      0x00\n        /* \"#utility.yul\":9425:9427   */\n      0x20\n        /* \"#utility.yul\":9414:9423   */\n      dup3\n        /* \"#utility.yul\":9410:9428   */\n      add\n        /* \"#utility.yul\":9402:9428   */\n      swap1\n      pop\n        /* \"#utility.yul\":9438:9507   */\n      tag_285\n        /* \"#utility.yul\":9504:9505   */\n      0x00\n        /* \"#utility.yul\":9493:9502   */\n      dup4\n        /* \"#utility.yul\":9489:9506   */\n      add\n        /* \"#utility.yul\":9480:9486   */\n      dup5\n        /* \"#utility.yul\":9438:9507   */\n      tag_154\n      jump\t// in\n    tag_285:\n        /* \"#utility.yul\":9296:9514   */\n      swap3\n      swap2\n      pop\n      pop\n      jump\t// out\n        /* \"#utility.yul\":9520:9637   */\n    tag_155:\n        /* \"#utility.yul\":9629:9630   */\n      0x00\n        /* \"#utility.yul\":9626:9627   */\n      dup1\n        /* \"#utility.yul\":9619:9631   */\n      revert\n        /* \"#utility.yul\":9643:9760   */\n    tag_156:\n        /* \"#utility.yul\":9752:9753   */\n      0x00\n        /* \"#utility.yul\":9749:9750   */\n      dup1\n        /* \"#utility.yul\":9742:9754   */\n      revert\n        /* \"#utility.yul\":9766:9946   */\n    tag_157:\n        /* \"#utility.yul\":9814:9891   */\n      0x4e487b7100000000000000000000000000000000000000000000000000000000\n        /* \"#utility.yul\":9811:9812   */\n      0x00\n        /* \"#utility.yul\":9804:9892   */\n      mstore\n        /* \"#utility.yul\":9911:9915   */\n      0x41\n        /* \"#utility.yul\":9908:9909   */\n      0x04\n        /* \"#utility.yul\":9901:9916   */\n      mstore\n        /* \"#utility.yul\":9935:9939   */\n      0x24\n        /* \"#utility.yul\":9932:9933   */\n      0x00\n        /* \"#utility.yul\":9925:9940   */\n      revert\n        /* \"#utility.yul\":9952:10233   */\n    tag_158:\n        /* \"#utility.yul\":10035:10062   */\n      tag_290\n        /* \"#utility.yul\":10057:10061   */\n      dup3\n        /* \"#utility.yul\":10035:10062   */\n      tag_138\n      jump\t// in\n    tag_290:\n        /* \"#utility.yul\":10027:10033   */\n      dup2\n        /* \"#utility.yul\":10023:10063   */\n      add\n        /* \"#utility.yul\":10165:10171   */\n      dup2\n        /* \"#utility.yul\":10153:10163   */\n      dup2\n        /* \"#utility.yul\":10150:10172   */\n      lt\n        /* \"#utility.yul\":10129:10147   */\n      0xffffffffffffffff\n        /* \"#utility.yul\":10117:10127   */\n      dup3\n        /* \"#utility.yul\":10114:10148   */\n      gt\n        /* \"#utility.yul\":10111:10173   */\n      or\n        /* \"#utility.yul\":10108:10196   */\n      iszero\n      tag_291\n      jumpi\n        /* \"#utility.yul\":10176:10194   */\n      tag_292\n      tag_157\n      jump\t// in\n    tag_292:\n        /* \"#utility.yul\":10108:10196   */\n    tag_291:\n        /* \"#utility.yul\":10216:10226   */\n      dup1\n        /* \"#utility.yul\":10212:10214   */\n      0x40\n        /* \"#utility.yul\":10205:10227   */\n      mstore\n        /* \"#utility.yul\":9995:10233   */\n      pop\n        /* \"#utility.yul\":9952:10233   */\n      pop\n      pop\n      jump\t// out\n        /* \"#utility.yul\":10239:10368   */\n    tag_159:\n        /* \"#utility.yul\":10273:10279   */\n      0x00\n        /* \"#utility.yul\":10300:10320   */\n      tag_294\n      tag_123\n      jump\t// in\n    tag_294:\n        /* \"#utility.yul\":10290:10320   */\n      swap1\n      pop\n        /* \"#utility.yul\":10329:10362   */\n      tag_295\n        /* \"#utility.yul\":10357:10361   */\n      dup3\n        /* \"#utility.yul\":10349:10355   */\n      dup3\n        /* \"#utility.yul\":10329:10362   */\n      tag_158\n      jump\t// in\n    tag_295:\n        /* \"#utility.yul\":10239:10368   */\n      swap2\n      swap1\n      pop\n      jump\t// out\n        /* \"#utility.yul\":10374:10682   */\n    tag_160:\n        /* \"#utility.yul\":10436:10440   */\n      0x00\n        /* \"#utility.yul\":10526:10544   */\n      0xffffffffffffffff\n        /* \"#utility.yul\":10518:10524   */\n      dup3\n        /* \"#utility.yul\":10515:10545   */\n      gt\n        /* \"#utility.yul\":10512:10568   */\n      iszero\n      tag_297\n      jumpi\n        /* \"#utility.yul\":10548:10566   */\n      tag_298\n      tag_157\n      jump\t// in\n    tag_298:\n        /* \"#utility.yul\":10512:10568   */\n    tag_297:\n        /* \"#utility.yul\":10586:10615   */\n      tag_299\n        /* \"#utility.yul\":10608:10614   */\n      dup3\n        /* \"#utility.yul\":10586:10615   */\n      tag_138\n      jump\t// in\n    tag_299:\n        /* \"#utility.yul\":10578:10615   */\n      swap1\n      pop\n        /* \"#utility.yul\":10670:10674   */\n      0x20\n        /* \"#utility.yul\":10664:10668   */\n      dup2\n        /* \"#utility.yul\":10660:10675   */\n      add\n        /* \"#utility.yul\":10652:10675   */\n      swap1\n      pop\n        /* \"#utility.yul\":10374:10682   */\n      swap2\n      swap1\n      pop\n      jump\t// out\n        /* \"#utility.yul\":10688:10834   */\n    tag_161:\n        /* \"#utility.yul\":10785:10791   */\n      dup3\n        /* \"#utility.yul\":10780:10783   */\n      dup2\n        /* \"#utility.yul\":10775:10778   */\n      dup4\n        /* \"#utility.yul\":10762:10792   */\n      calldatacopy\n        /* \"#utility.yul\":10826:10827   */\n      0x00\n        /* \"#utility.yul\":10817:10823   */\n      dup4\n        /* \"#utility.yul\":10812:10815   */\n      dup4\n        /* \"#utility.yul\":10808:10824   */\n      add\n        /* \"#utility.yul\":10801:10828   */\n      mstore\n        /* \"#utility.yul\":10688:10834   */\n      pop\n      pop\n      pop\n      jump\t// out\n        /* \"#utility.yul\":10840:11265   */\n    tag_162:\n        /* \"#utility.yul\":10918:10923   */\n      0x00\n        /* \"#utility.yul\":10943:11009   */\n      tag_302\n        /* \"#utility.yul\":10959:11008   */\n      tag_303\n        /* \"#utility.yul\":11001:11007   */\n      dup5\n        /* \"#utility.yul\":10959:11008   */\n      tag_160\n      jump\t// in\n    tag_303:\n        /* \"#utility.yul\":10943:11009   */\n      tag_159\n      jump\t// in\n    tag_302:\n        /* \"#utility.yul\":10934:11009   */\n      swap1\n      pop\n        /* \"#utility.yul\":11032:11038   */\n      dup3\n        /* \"#utility.yul\":11025:11030   */\n      dup2\n        /* \"#utility.yul\":11018:11039   */\n      mstore\n        /* \"#utility.yul\":11070:11074   */\n      0x20\n        /* \"#utility.yul\":11063:11068   */\n      dup2\n        /* \"#utility.yul\":11059:11075   */\n      add\n        /* \"#utility.yul\":11108:11111   */\n      dup5\n        /* \"#utility.yul\":11099:11105   */\n      dup5\n        /* \"#utility.yul\":11094:11097   */\n      dup5\n        /* \"#utility.yul\":11090:11106   */\n      add\n        /* \"#utility.yul\":11087:11112   */\n      gt\n        /* \"#utility.yul\":11084:11196   */\n      iszero\n      tag_304\n      jumpi\n        /* \"#utility.yul\":11115:11194   */\n      tag_305\n      tag_156\n      jump\t// in\n    tag_305:\n        /* \"#utility.yul\":11084:11196   */\n    tag_304:\n        /* \"#utility.yul\":11205:11259   */\n      tag_306\n        /* \"#utility.yul\":11252:11258   */\n      dup5\n        /* \"#utility.yul\":11247:11250   */\n      dup3\n        /* \"#utility.yul\":11242:11245   */\n      dup6\n        /* \"#utility.yul\":11205:11259   */\n      tag_161\n      jump\t// in\n    tag_306:\n        /* \"#utility.yul\":10924:11265   */\n      pop\n        /* \"#utility.yul\":10840:11265   */\n      swap4\n      swap3\n      pop\n      pop\n      pop\n      jump\t// out\n        /* \"#utility.yul\":11285:11625   */\n    tag_163:\n        /* \"#utility.yul\":11341:11346   */\n      0x00\n        /* \"#utility.yul\":11390:11393   */\n      dup3\n        /* \"#utility.yul\":11383:11387   */\n      0x1f\n        /* \"#utility.yul\":11375:11381   */\n      dup4\n        /* \"#utility.yul\":11371:11388   */\n      add\n        /* \"#utility.yul\":11367:11394   */\n      slt\n        /* \"#utility.yul\":11357:11479   */\n      tag_308\n      jumpi\n        /* \"#utility.yul\":11398:11477   */\n      tag_309\n      tag_155\n      jump\t// in\n    tag_309:\n        /* \"#utility.yul\":11357:11479   */\n    tag_308:\n        /* \"#utility.yul\":11515:11521   */\n      dup2\n        /* \"#utility.yul\":11502:11522   */\n      calldataload\n        /* \"#utility.yul\":11540:11619   */\n      tag_310\n        /* \"#utility.yul\":11615:11618   */\n      dup5\n        /* \"#utility.yul\":11607:11613   */\n      dup3\n        /* \"#utility.yul\":11600:11604   */\n      0x20\n        /* \"#utility.yul\":11592:11598   */\n      dup7\n        /* \"#utility.yul\":11588:11605   */\n      add\n        /* \"#utility.yul\":11540:11619   */\n      tag_162\n      jump\t// in\n    tag_310:\n        /* \"#utility.yul\":11531:11619   */\n      swap2\n      pop\n        /* \"#utility.yul\":11347:11625   */\n      pop\n        /* \"#utility.yul\":11285:11625   */\n      swap3\n      swap2\n      pop\n      pop\n      jump\t// out\n        /* \"#utility.yul\":11631:12140   */\n    tag_41:\n        /* \"#utility.yul\":11700:11706   */\n      0x00\n        /* \"#utility.yul\":11749:11751   */\n      0x20\n        /* \"#utility.yul\":11737:11746   */\n      dup3\n        /* \"#utility.yul\":11728:11735   */\n      dup5\n        /* \"#utility.yul\":11724:11747   */\n      sub\n        /* \"#utility.yul\":11720:11752   */\n      slt\n        /* \"#utility.yul\":11717:11836   */\n      iszero\n      tag_312\n      jumpi\n        /* \"#utility.yul\":11755:11834   */\n      tag_313\n      tag_124\n      jump\t// in\n    tag_313:\n        /* \"#utility.yul\":11717:11836   */\n    tag_312:\n        /* \"#utility.yul\":11903:11904   */\n      0x00\n        /* \"#utility.yul\":11892:11901   */\n      dup3\n        /* \"#utility.yul\":11888:11905   */\n      add\n        /* \"#utility.yul\":11875:11906   */\n      calldataload\n        /* \"#utility.yul\":11933:11951   */\n      0xffffffffffffffff\n        /* \"#utility.yul\":11925:11931   */\n      dup2\n        /* \"#utility.yul\":11922:11952   */\n      gt\n        /* \"#utility.yul\":11919:12036   */\n      iszero\n      tag_314\n      jumpi\n        /* \"#utility.yul\":11955:12034   */\n      tag_315\n      tag_125\n      jump\t// in\n    tag_315:\n        /* \"#utility.yul\":11919:12036   */\n    tag_314:\n        /* \"#utility.yul\":12060:12123   */\n      tag_316\n        /* \"#utility.yul\":12115:12122   */\n      dup5\n        /* \"#utility.yul\":12106:12112   */\n      dup3\n        /* \"#utility.yul\":12095:12104   */\n      dup6\n        /* \"#utility.yul\":12091:12113   */\n      add\n        /* \"#utility.yul\":12060:12123   */\n      tag_163\n      jump\t// in\n    tag_316:\n        /* \"#utility.yul\":12050:12123   */\n      swap2\n      pop\n        /* \"#utility.yul\":11846:12133   */\n      pop\n        /* \"#utility.yul\":11631:12140   */\n      swap3\n      swap2\n      pop\n      pop\n      jump\t// out\n        /* \"#utility.yul\":12146:12368   */\n    tag_46:\n        /* \"#utility.yul\":12239:12243   */\n      0x00\n        /* \"#utility.yul\":12277:12279   */\n      0x20\n        /* \"#utility.yul\":12266:12275   */\n      dup3\n        /* \"#utility.yul\":12262:12280   */\n      add\n        /* \"#utility.yul\":12254:12280   */\n      swap1\n      pop\n        /* \"#utility.yul\":12290:12361   */\n      tag_318\n        /* \"#utility.yul\":12358:12359   */\n      0x00\n        /* \"#utility.yul\":12347:12356   */\n      dup4\n        /* \"#utility.yul\":12343:12360   */\n      add\n        /* \"#utility.yul\":12334:12340   */\n      dup5\n        /* \"#utility.yul\":12290:12361   */\n      tag_134\n      jump\t// in\n    tag_318:\n        /* \"#utility.yul\":12146:12368   */\n      swap3\n      swap2\n      pop\n      pop\n      jump\t// out\n        /* \"#utility.yul\":12374:12703   */\n    tag_49:\n        /* \"#utility.yul\":12433:12439   */\n      0x00\n        /* \"#utility.yul\":12482:12484   */\n      0x20\n        /* \"#utility.yul\":12470:12479   */\n      dup3\n        /* \"#utility.yul\":12461:12468   */\n      dup5\n        /* \"#utility.yul\":12457:12480   */\n      sub\n        /* \"#utility.yul\":12453:12485   */\n      slt\n        /* \"#utility.yul\":12450:12569   */\n      iszero\n      tag_320\n      jumpi\n        /* \"#utility.yul\":12488:12567   */\n      tag_321\n      tag_124\n      jump\t// in\n    tag_321:\n        /* \"#utility.yul\":12450:12569   */\n    tag_320:\n        /* \"#utility.yul\":12608:12609   */\n      0x00\n        /* \"#utility.yul\":12633:12686   */\n      tag_322\n        /* \"#utility.yul\":12678:12685   */\n      dup5\n        /* \"#utility.yul\":12669:12675   */\n      dup3\n        /* \"#utility.yul\":12658:12667   */\n      dup6\n        /* \"#utility.yul\":12654:12676   */\n      add\n        /* \"#utility.yul\":12633:12686   */\n      tag_132\n      jump\t// in\n    tag_322:\n        /* \"#utility.yul\":12623:12686   */\n      swap2\n      pop\n        /* \"#utility.yul\":12579:12696   */\n      pop\n        /* \"#utility.yul\":12374:12703   */\n      swap3\n      swap2\n      pop\n      pop\n      jump\t// out\n        /* \"#utility.yul\":12761:13890   */\n    tag_164:\n        /* \"#utility.yul\":12872:12875   */\n      0x00\n        /* \"#utility.yul\":12908:12912   */\n      0xa0\n        /* \"#utility.yul\":12903:12906   */\n      dup4\n        /* \"#utility.yul\":12899:12913   */\n      add\n        /* \"#utility.yul\":12993:12997   */\n      0x00\n        /* \"#utility.yul\":12986:12991   */\n      dup4\n        /* \"#utility.yul\":12982:12998   */\n      add\n        /* \"#utility.yul\":12976:12999   */\n      mload\n        /* \"#utility.yul\":13012:13075   */\n      tag_324\n        /* \"#utility.yul\":13069:13073   */\n      0x00\n        /* \"#utility.yul\":13064:13067   */\n      dup7\n        /* \"#utility.yul\":13060:13074   */\n      add\n        /* \"#utility.yul\":13046:13058   */\n      dup3\n        /* \"#utility.yul\":13012:13075   */\n      tag_143\n      jump\t// in\n    tag_324:\n        /* \"#utility.yul\":12923:13085   */\n      pop\n        /* \"#utility.yul\":13169:13173   */\n      0x20\n        /* \"#utility.yul\":13162:13167   */\n      dup4\n        /* \"#utility.yul\":13158:13174   */\n      add\n        /* \"#utility.yul\":13152:13175   */\n      mload\n        /* \"#utility.yul\":13188:13251   */\n      tag_325\n        /* \"#utility.yul\":13245:13249   */\n      0x20\n        /* \"#utility.yul\":13240:13243   */\n      dup7\n        /* \"#utility.yul\":13236:13250   */\n      add\n        /* \"#utility.yul\":13222:13234   */\n      dup3\n        /* \"#utility.yul\":13188:13251   */\n      tag_144\n      jump\t// in\n    tag_325:\n        /* \"#utility.yul\":13095:13261   */\n      pop\n        /* \"#utility.yul\":13346:13350   */\n      0x40\n        /* \"#utility.yul\":13339:13344   */\n      dup4\n        /* \"#utility.yul\":13335:13351   */\n      add\n        /* \"#utility.yul\":13329:13352   */\n      mload\n        /* \"#utility.yul\":13399:13402   */\n      dup5\n        /* \"#utility.yul\":13393:13397   */\n      dup3\n        /* \"#utility.yul\":13389:13403   */\n      sub\n        /* \"#utility.yul\":13382:13386   */\n      0x40\n        /* \"#utility.yul\":13377:13380   */\n      dup7\n        /* \"#utility.yul\":13373:13387   */\n      add\n        /* \"#utility.yul\":13366:13404   */\n      mstore\n        /* \"#utility.yul\":13425:13498   */\n      tag_326\n        /* \"#utility.yul\":13493:13497   */\n      dup3\n        /* \"#utility.yul\":13479:13491   */\n      dup3\n        /* \"#utility.yul\":13425:13498   */\n      tag_146\n      jump\t// in\n    tag_326:\n        /* \"#utility.yul\":13417:13498   */\n      swap2\n      pop\n        /* \"#utility.yul\":13271:13509   */\n      pop\n        /* \"#utility.yul\":13596:13600   */\n      0x60\n        /* \"#utility.yul\":13589:13594   */\n      dup4\n        /* \"#utility.yul\":13585:13601   */\n      add\n        /* \"#utility.yul\":13579:13602   */\n      mload\n        /* \"#utility.yul\":13615:13678   */\n      tag_327\n        /* \"#utility.yul\":13672:13676   */\n      0x60\n        /* \"#utility.yul\":13667:13670   */\n      dup7\n        /* \"#utility.yul\":13663:13677   */\n      add\n        /* \"#utility.yul\":13649:13661   */\n      dup3\n        /* \"#utility.yul\":13615:13678   */\n      tag_143\n      jump\t// in\n    tag_327:\n        /* \"#utility.yul\":13519:13688   */\n      pop\n        /* \"#utility.yul\":13771:13775   */\n      0x80\n        /* \"#utility.yul\":13764:13769   */\n      dup4\n        /* \"#utility.yul\":13760:13776   */\n      add\n        /* \"#utility.yul\":13754:13777   */\n      mload\n        /* \"#utility.yul\":13790:13853   */\n      tag_328\n        /* \"#utility.yul\":13847:13851   */\n      0x80\n        /* \"#utility.yul\":13842:13845   */\n      dup7\n        /* \"#utility.yul\":13838:13852   */\n      add\n        /* \"#utility.yul\":13824:13836   */\n      dup3\n        /* \"#utility.yul\":13790:13853   */\n      tag_143\n      jump\t// in\n    tag_328:\n        /* \"#utility.yul\":13698:13863   */\n      pop\n        /* \"#utility.yul\":13880:13884   */\n      dup1\n        /* \"#utility.yul\":13873:13884   */\n      swap2\n      pop\n        /* \"#utility.yul\":12877:13890   */\n      pop\n        /* \"#utility.yul\":12761:13890   */\n      swap3\n      swap2\n      pop\n      pop\n      jump\t// out\n        /* \"#utility.yul\":13896:14253   */\n    tag_52:\n        /* \"#utility.yul\":14031:14035   */\n      0x00\n        /* \"#utility.yul\":14069:14071   */\n      0x20\n        /* \"#utility.yul\":14058:14067   */\n      dup3\n        /* \"#utility.yul\":14054:14072   */\n      add\n        /* \"#utility.yul\":14046:14072   */\n      swap1\n      pop\n        /* \"#utility.yul\":14118:14127   */\n      dup2\n        /* \"#utility.yul\":14112:14116   */\n      dup2\n        /* \"#utility.yul\":14108:14128   */\n      sub\n        /* \"#utility.yul\":14104:14105   */\n      0x00\n        /* \"#utility.yul\":14093:14102   */\n      dup4\n        /* \"#utility.yul\":14089:14106   */\n      add\n        /* \"#utility.yul\":14082:14129   */\n      mstore\n        /* \"#utility.yul\":14146:14246   */\n      tag_330\n        /* \"#utility.yul\":14241:14245   */\n      dup2\n        /* \"#utility.yul\":14232:14238   */\n      dup5\n        /* \"#utility.yul\":14146:14246   */\n      tag_164\n      jump\t// in\n    tag_330:\n        /* \"#utility.yul\":14138:14246   */\n      swap1\n      pop\n        /* \"#utility.yul\":13896:14253   */\n      swap3\n      swap2\n      pop\n      pop\n      jump\t// out\n        /* \"#utility.yul\":14259:14439   */\n    tag_165:\n        /* \"#utility.yul\":14307:14384   */\n      0x4e487b7100000000000000000000000000000000000000000000000000000000\n        /* \"#utility.yul\":14304:14305   */\n      0x00\n        /* \"#utility.yul\":14297:14385   */\n      mstore\n        /* \"#utility.yul\":14404:14408   */\n      0x22\n        /* \"#utility.yul\":14401:14402   */\n      0x04\n        /* \"#utility.yul\":14394:14409   */\n      mstore\n        /* \"#utility.yul\":14428:14432   */\n      0x24\n        /* \"#utility.yul\":14425:14426   */\n      0x00\n        /* \"#utility.yul\":14418:14433   */\n      revert\n        /* \"#utility.yul\":14445:14765   */\n    tag_56:\n        /* \"#utility.yul\":14489:14495   */\n      0x00\n        /* \"#utility.yul\":14526:14527   */\n      0x02\n        /* \"#utility.yul\":14520:14524   */\n      dup3\n        /* \"#utility.yul\":14516:14528   */\n      div\n        /* \"#utility.yul\":14506:14528   */\n      swap1\n      pop\n        /* \"#utility.yul\":14573:14574   */\n      0x01\n        /* \"#utility.yul\":14567:14571   */\n      dup3\n        /* \"#utility.yul\":14563:14575   */\n      and\n        /* \"#utility.yul\":14594:14612   */\n      dup1\n        /* \"#utility.yul\":14584:14665   */\n      tag_333\n      jumpi\n        /* \"#utility.yul\":14650:14654   */\n      0x7f\n        /* \"#utility.yul\":14642:14648   */\n      dup3\n        /* \"#utility.yul\":14638:14655   */\n      and\n        /* \"#utility.yul\":14628:14655   */\n      swap2\n      pop\n        /* \"#utility.yul\":14584:14665   */\n    tag_333:\n        /* \"#utility.yul\":14712:14714   */\n      0x20\n        /* \"#utility.yul\":14704:14710   */\n      dup3\n        /* \"#utility.yul\":14701:14715   */\n      lt\n        /* \"#utility.yul\":14681:14699   */\n      dup2\n        /* \"#utility.yul\":14678:14716   */\n      sub\n        /* \"#utility.yul\":14675:14759   */\n      tag_334\n      jumpi\n        /* \"#utility.yul\":14731:14749   */\n      tag_335\n      tag_165\n      jump\t// in\n    tag_335:\n        /* \"#utility.yul\":14675:14759   */\n    tag_334:\n        /* \"#utility.yul\":14496:14765   */\n      pop\n        /* \"#utility.yul\":14445:14765   */\n      swap2\n      swap1\n      pop\n      jump\t// out\n        /* \"#utility.yul\":14771:14951   */\n    tag_73:\n        /* \"#utility.yul\":14819:14896   */\n      0x4e487b7100000000000000000000000000000000000000000000000000000000\n        /* \"#utility.yul\":14816:14817   */\n      0x00\n        /* \"#utility.yul\":14809:14897   */\n      mstore\n        /* \"#utility.yul\":14916:14920   */\n      0x32\n        /* \"#utility.yul\":14913:14914   */\n      0x04\n        /* \"#utility.yul\":14906:14921   */\n      mstore\n        /* \"#utility.yul\":14940:14944   */\n      0x24\n        /* \"#utility.yul\":14937:14938   */\n      0x00\n        /* \"#utility.yul\":14930:14945   */\n      revert\n        /* \"#utility.yul\":14957:15127   */\n    tag_166:\n        /* \"#utility.yul\":15097:15119   */\n      0x545745455420444f4553204e4f54204558495354000000000000000000000000\n        /* \"#utility.yul\":15093:15094   */\n      0x00\n        /* \"#utility.yul\":15085:15091   */\n      dup3\n        /* \"#utility.yul\":15081:15095   */\n      add\n        /* \"#utility.yul\":15074:15120   */\n      mstore\n        /* \"#utility.yul\":14957:15127   */\n      pop\n      jump\t// out\n        /* \"#utility.yul\":15133:15499   */\n    tag_167:\n        /* \"#utility.yul\":15275:15278   */\n      0x00\n        /* \"#utility.yul\":15296:15363   */\n      tag_339\n        /* \"#utility.yul\":15360:15362   */\n      0x14\n        /* \"#utility.yul\":15355:15358   */\n      dup4\n        /* \"#utility.yul\":15296:15363   */\n      tag_136\n      jump\t// in\n    tag_339:\n        /* \"#utility.yul\":15289:15363   */\n      swap2\n      pop\n        /* \"#utility.yul\":15372:15465   */\n      tag_340\n        /* \"#utility.yul\":15461:15464   */\n      dup3\n        /* \"#utility.yul\":15372:15465   */\n      tag_166\n      jump\t// in\n    tag_340:\n        /* \"#utility.yul\":15490:15492   */\n      0x20\n        /* \"#utility.yul\":15485:15488   */\n      dup3\n        /* \"#utility.yul\":15481:15493   */\n      add\n        /* \"#utility.yul\":15474:15493   */\n      swap1\n      pop\n        /* \"#utility.yul\":15133:15499   */\n      swap2\n      swap1\n      pop\n      jump\t// out\n        /* \"#utility.yul\":15505:15924   */\n    tag_77:\n        /* \"#utility.yul\":15671:15675   */\n      0x00\n        /* \"#utility.yul\":15709:15711   */\n      0x20\n        /* \"#utility.yul\":15698:15707   */\n      dup3\n        /* \"#utility.yul\":15694:15712   */\n      add\n        /* \"#utility.yul\":15686:15712   */\n      swap1\n      pop\n        /* \"#utility.yul\":15758:15767   */\n      dup2\n        /* \"#utility.yul\":15752:15756   */\n      dup2\n        /* \"#utility.yul\":15748:15768   */\n      sub\n        /* \"#utility.yul\":15744:15745   */\n      0x00\n        /* \"#utility.yul\":15733:15742   */\n      dup4\n        /* \"#utility.yul\":15729:15746   */\n      add\n        /* \"#utility.yul\":15722:15769   */\n      mstore\n        /* \"#utility.yul\":15786:15917   */\n      tag_342\n        /* \"#utility.yul\":15912:15916   */\n      dup2\n        /* \"#utility.yul\":15786:15917   */\n      tag_167\n      jump\t// in\n    tag_342:\n        /* \"#utility.yul\":15778:15917   */\n      swap1\n      pop\n        /* \"#utility.yul\":15505:15924   */\n      swap2\n      swap1\n      pop\n      jump\t// out\n        /* \"#utility.yul\":15930:16098   */\n    tag_168:\n        /* \"#utility.yul\":16070:16090   */\n      0x545745455420484153204e4f204c494b45530000000000000000000000000000\n        /* \"#utility.yul\":16066:16067   */\n      0x00\n        /* \"#utility.yul\":16058:16064   */\n      dup3\n        /* \"#utility.yul\":16054:16068   */\n      add\n        /* \"#utility.yul\":16047:16091   */\n      mstore\n        /* \"#utility.yul\":15930:16098   */\n      pop\n      jump\t// out\n        /* \"#utility.yul\":16104:16470   */\n    tag_169:\n        /* \"#utility.yul\":16246:16249   */\n      0x00\n        /* \"#utility.yul\":16267:16334   */\n      tag_345\n        /* \"#utility.yul\":16331:16333   */\n      0x12\n        /* \"#utility.yul\":16326:16329   */\n      dup4\n        /* \"#utility.yul\":16267:16334   */\n      tag_136\n      jump\t// in\n    tag_345:\n        /* \"#utility.yul\":16260:16334   */\n      swap2\n      pop\n        /* \"#utility.yul\":16343:16436   */\n      tag_346\n        /* \"#utility.yul\":16432:16435   */\n      dup3\n        /* \"#utility.yul\":16343:16436   */\n      tag_168\n      jump\t// in\n    tag_346:\n        /* \"#utility.yul\":16461:16463   */\n      0x20\n        /* \"#utility.yul\":16456:16459   */\n      dup3\n        /* \"#utility.yul\":16452:16464   */\n      add\n        /* \"#utility.yul\":16445:16464   */\n      swap1\n      pop\n        /* \"#utility.yul\":16104:16470   */\n      swap2\n      swap1\n      pop\n      jump\t// out\n        /* \"#utility.yul\":16476:16895   */\n    tag_83:\n        /* \"#utility.yul\":16642:16646   */\n      0x00\n        /* \"#utility.yul\":16680:16682   */\n      0x20\n        /* \"#utility.yul\":16669:16678   */\n      dup3\n        /* \"#utility.yul\":16665:16683   */\n      add\n        /* \"#utility.yul\":16657:16683   */\n      swap1\n      pop\n        /* \"#utility.yul\":16729:16738   */\n      dup2\n        /* \"#utility.yul\":16723:16727   */\n      dup2\n        /* \"#utility.yul\":16719:16739   */\n      sub\n        /* \"#utility.yul\":16715:16716   */\n      0x00\n        /* \"#utility.yul\":16704:16713   */\n      dup4\n        /* \"#utility.yul\":16700:16717   */\n      add\n        /* \"#utility.yul\":16693:16740   */\n      mstore\n        /* \"#utility.yul\":16757:16888   */\n      tag_348\n        /* \"#utility.yul\":16883:16887   */\n      dup2\n        /* \"#utility.yul\":16757:16888   */\n      tag_169\n      jump\t// in\n    tag_348:\n        /* \"#utility.yul\":16749:16888   */\n      swap1\n      pop\n        /* \"#utility.yul\":16476:16895   */\n      swap2\n      swap1\n      pop\n      jump\t// out\n        /* \"#utility.yul\":16901:17081   */\n    tag_170:\n        /* \"#utility.yul\":16949:17026   */\n      0x4e487b7100000000000000000000000000000000000000000000000000000000\n        /* \"#utility.yul\":16946:16947   */\n      0x00\n        /* \"#utility.yul\":16939:17027   */\n      mstore\n        /* \"#utility.yul\":17046:17050   */\n      0x11\n        /* \"#utility.yul\":17043:17044   */\n      0x04\n        /* \"#utility.yul\":17036:17051   */\n      mstore\n        /* \"#utility.yul\":17070:17074   */\n      0x24\n        /* \"#utility.yul\":17067:17068   */\n      0x00\n        /* \"#utility.yul\":17060:17075   */\n      revert\n        /* \"#utility.yul\":17087:17258   */\n    tag_88:\n        /* \"#utility.yul\":17126:17129   */\n      0x00\n        /* \"#utility.yul\":17149:17173   */\n      tag_351\n        /* \"#utility.yul\":17167:17172   */\n      dup3\n        /* \"#utility.yul\":17149:17173   */\n      tag_130\n      jump\t// in\n    tag_351:\n        /* \"#utility.yul\":17140:17173   */\n      swap2\n      pop\n        /* \"#utility.yul\":17195:17199   */\n      0x00\n        /* \"#utility.yul\":17188:17193   */\n      dup3\n        /* \"#utility.yul\":17185:17200   */\n      sub\n        /* \"#utility.yul\":17182:17223   */\n      tag_352\n      jumpi\n        /* \"#utility.yul\":17203:17221   */\n      tag_353\n      tag_170\n      jump\t// in\n    tag_353:\n        /* \"#utility.yul\":17182:17223   */\n    tag_352:\n        /* \"#utility.yul\":17250:17251   */\n      0x01\n        /* \"#utility.yul\":17243:17248   */\n      dup3\n        /* \"#utility.yul\":17239:17252   */\n      sub\n        /* \"#utility.yul\":17232:17252   */\n      swap1\n      pop\n        /* \"#utility.yul\":17087:17258   */\n      swap2\n      swap1\n      pop\n      jump\t// out\n        /* \"#utility.yul\":17264:17435   */\n    tag_171:\n        /* \"#utility.yul\":17404:17427   */\n      0x594f5520415245204e4f5420544845204f574e45520000000000000000000000\n        /* \"#utility.yul\":17400:17401   */\n      0x00\n        /* \"#utility.yul\":17392:17398   */\n      dup3\n        /* \"#utility.yul\":17388:17402   */\n      add\n        /* \"#utility.yul\":17381:17428   */\n      mstore\n        /* \"#utility.yul\":17264:17435   */\n      pop\n      jump\t// out\n        /* \"#utility.yul\":17441:17807   */\n    tag_172:\n        /* \"#utility.yul\":17583:17586   */\n      0x00\n        /* \"#utility.yul\":17604:17671   */\n      tag_356\n        /* \"#utility.yul\":17668:17670   */\n      0x15\n        /* \"#utility.yul\":17663:17666   */\n      dup4\n        /* \"#utility.yul\":17604:17671   */\n      tag_136\n      jump\t// in\n    tag_356:\n        /* \"#utility.yul\":17597:17671   */\n      swap2\n      pop\n        /* \"#utility.yul\":17680:17773   */\n      tag_357\n        /* \"#utility.yul\":17769:17772   */\n      dup3\n        /* \"#utility.yul\":17680:17773   */\n      tag_171\n      jump\t// in\n    tag_357:\n        /* \"#utility.yul\":17798:17800   */\n      0x20\n        /* \"#utility.yul\":17793:17796   */\n      dup3\n        /* \"#utility.yul\":17789:17801   */\n      add\n        /* \"#utility.yul\":17782:17801   */\n      swap1\n      pop\n        /* \"#utility.yul\":17441:17807   */\n      swap2\n      swap1\n      pop\n      jump\t// out\n        /* \"#utility.yul\":17813:18232   */\n    tag_92:\n        /* \"#utility.yul\":17979:17983   */\n      0x00\n        /* \"#utility.yul\":18017:18019   */\n      0x20\n        /* \"#utility.yul\":18006:18015   */\n      dup3\n        /* \"#utility.yul\":18002:18020   */\n      add\n        /* \"#utility.yul\":17994:18020   */\n      swap1\n      pop\n        /* \"#utility.yul\":18066:18075   */\n      dup2\n        /* \"#utility.yul\":18060:18064   */\n      dup2\n        /* \"#utility.yul\":18056:18076   */\n      sub\n        /* \"#utility.yul\":18052:18053   */\n      0x00\n        /* \"#utility.yul\":18041:18050   */\n      dup4\n        /* \"#utility.yul\":18037:18054   */\n      add\n        /* \"#utility.yul\":18030:18077   */\n      mstore\n        /* \"#utility.yul\":18094:18225   */\n      tag_359\n        /* \"#utility.yul\":18220:18224   */\n      dup2\n        /* \"#utility.yul\":18094:18225   */\n      tag_172\n      jump\t// in\n    tag_359:\n        /* \"#utility.yul\":18086:18225   */\n      swap1\n      pop\n        /* \"#utility.yul\":17813:18232   */\n      swap2\n      swap1\n      pop\n      jump\t// out\n        /* \"#utility.yul\":18238:18471   */\n    tag_104:\n        /* \"#utility.yul\":18277:18280   */\n      0x00\n        /* \"#utility.yul\":18300:18324   */\n      tag_361\n        /* \"#utility.yul\":18318:18323   */\n      dup3\n        /* \"#utility.yul\":18300:18324   */\n      tag_130\n      jump\t// in\n    tag_361:\n        /* \"#utility.yul\":18291:18324   */\n      swap2\n      pop\n        /* \"#utility.yul\":18346:18412   */\n      0xffffffffffffffffffffffffffffffffffffffffffffffffffffffffffffffff\n        /* \"#utility.yul\":18339:18344   */\n      dup3\n        /* \"#utility.yul\":18336:18413   */\n      sub\n        /* \"#utility.yul\":18333:18436   */\n      tag_362\n      jumpi\n        /* \"#utility.yul\":18416:18434   */\n      tag_363\n      tag_170\n      jump\t// in\n    tag_363:\n        /* \"#utility.yul\":18333:18436   */\n    tag_362:\n        /* \"#utility.yul\":18463:18464   */\n      0x01\n        /* \"#utility.yul\":18456:18461   */\n      dup3\n        /* \"#utility.yul\":18452:18465   */\n      add\n        /* \"#utility.yul\":18445:18465   */\n      swap1\n      pop\n        /* \"#utility.yul\":18238:18471   */\n      swap2\n      swap1\n      pop\n      jump\t// out\n        /* \"#utility.yul\":18477:18647   */\n    tag_173:\n        /* \"#utility.yul\":18617:18639   */\n      0x747765657420697320746f206c6f6e6720212121000000000000000000000000\n        /* \"#utility.yul\":18613:18614   */\n      0x00\n        /* \"#utility.yul\":18605:18611   */\n      dup3\n        /* \"#utility.yul\":18601:18615   */\n      add\n        /* \"#utility.yul\":18594:18640   */\n      mstore\n        /* \"#utility.yul\":18477:18647   */\n      pop\n      jump\t// out\n        /* \"#utility.yul\":18653:19019   */\n    tag_174:\n        /* \"#utility.yul\":18795:18798   */\n      0x00\n        /* \"#utility.yul\":18816:18883   */\n      tag_366\n        /* \"#utility.yul\":18880:18882   */\n      0x14\n        /* \"#utility.yul\":18875:18878   */\n      dup4\n        /* \"#utility.yul\":18816:18883   */\n      tag_136\n      jump\t// in\n    tag_366:\n        /* \"#utility.yul\":18809:18883   */\n      swap2\n      pop\n        /* \"#utility.yul\":18892:18985   */\n      tag_367\n        /* \"#utility.yul\":18981:18984   */\n      dup3\n        /* \"#utility.yul\":18892:18985   */\n      tag_173\n      jump\t// in\n    tag_367:\n        /* \"#utility.yul\":19010:19012   */\n      0x20\n        /* \"#utility.yul\":19005:19008   */\n      dup3\n        /* \"#utility.yul\":19001:19013   */\n      add\n        /* \"#utility.yul\":18994:19013   */\n      swap1\n      pop\n        /* \"#utility.yul\":18653:19019   */\n      swap2\n      swap1\n      pop\n      jump\t// out\n        /* \"#utility.yul\":19025:19444   */\n    tag_108:\n        /* \"#utility.yul\":19191:19195   */\n      0x00\n        /* \"#utility.yul\":19229:19231   */\n      0x20\n        /* \"#utility.yul\":19218:19227   */\n      dup3\n        /* \"#utility.yul\":19214:19232   */\n      add\n        /* \"#utility.yul\":19206:19232   */\n      swap1\n      pop\n        /* \"#utility.yul\":19278:19287   */\n      dup2\n        /* \"#utility.yul\":19272:19276   */\n      dup2\n        /* \"#utility.yul\":19268:19288   */\n      sub\n        /* \"#utility.yul\":19264:19265   */\n      0x00\n        /* \"#utility.yul\":19253:19262   */\n      dup4\n        /* \"#utility.yul\":19249:19266   */\n      add\n        /* \"#utility.yul\":19242:19289   */\n      mstore\n        /* \"#utility.yul\":19306:19437   */\n      tag_369\n        /* \"#utility.yul\":19432:19436   */\n      dup2\n        /* \"#utility.yul\":19306:19437   */\n      tag_174\n      jump\t// in\n    tag_369:\n        /* \"#utility.yul\":19298:19437   */\n      swap1\n      pop\n        /* \"#utility.yul\":19025:19444   */\n      swap2\n      swap1\n      pop\n      jump\t// out\n        /* \"#utility.yul\":19450:19591   */\n    tag_175:\n        /* \"#utility.yul\":19499:19503   */\n      0x00\n        /* \"#utility.yul\":19522:19525   */\n      dup2\n        /* \"#utility.yul\":19514:19525   */\n      swap1\n      pop\n        /* \"#utility.yul\":19545:19548   */\n      dup2\n        /* \"#utility.yul\":19542:19543   */\n      0x00\n        /* \"#utility.yul\":19535:19549   */\n      mstore\n        /* \"#utility.yul\":19579:19583   */\n      0x20\n        /* \"#utility.yul\":19576:19577   */\n      0x00\n        /* \"#utility.yul\":19566:19584   */\n      keccak256\n        /* \"#utility.yul\":19558:19584   */\n      swap1\n      pop\n        /* \"#utility.yul\":19450:19591   */\n      swap2\n      swap1\n      pop\n      jump\t// out\n        /* \"#utility.yul\":19597:19690   */\n    tag_176:\n        /* \"#utility.yul\":19634:19640   */\n      0x00\n        /* \"#utility.yul\":19681:19683   */\n      0x20\n        /* \"#utility.yul\":19676:19678   */\n      0x1f\n        /* \"#utility.yul\":19669:19674   */\n      dup4\n        /* \"#utility.yul\":19665:19679   */\n      add\n        /* \"#utility.yul\":19661:19684   */\n      div\n        /* \"#utility.yul\":19651:19684   */\n      swap1\n      pop\n        /* \"#utility.yul\":19597:19690   */\n      swap2\n      swap1\n      pop\n      jump\t// out\n        /* \"#utility.yul\":19696:19803   */\n    tag_177:\n        /* \"#utility.yul\":19740:19748   */\n      0x00\n        /* \"#utility.yul\":19790:19795   */\n      dup3\n        /* \"#utility.yul\":19784:19788   */\n      dup3\n        /* \"#utility.yul\":19780:19796   */\n      shl\n        /* \"#utility.yul\":19759:19796   */\n      swap1\n      pop\n        /* \"#utility.yul\":19696:19803   */\n      swap3\n      swap2\n      pop\n      pop\n      jump\t// out\n        /* \"#utility.yul\":19809:20202   */\n    tag_178:\n        /* \"#utility.yul\":19878:19884   */\n      0x00\n        /* \"#utility.yul\":19928:19929   */\n      0x08\n        /* \"#utility.yul\":19916:19926   */\n      dup4\n        /* \"#utility.yul\":19912:19930   */\n      mul\n        /* \"#utility.yul\":19951:20048   */\n      tag_374\n        /* \"#utility.yul\":19981:20047   */\n      0xffffffffffffffffffffffffffffffffffffffffffffffffffffffffffffffff\n        /* \"#utility.yul\":19970:19979   */\n      dup3\n        /* \"#utility.yul\":19951:20048   */\n      tag_177\n      jump\t// in\n    tag_374:\n        /* \"#utility.yul\":20069:20108   */\n      tag_375\n        /* \"#utility.yul\":20099:20107   */\n      dup7\n        /* \"#utility.yul\":20088:20097   */\n      dup4\n        /* \"#utility.yul\":20069:20108   */\n      tag_177\n      jump\t// in\n    tag_375:\n        /* \"#utility.yul\":20057:20108   */\n      swap6\n      pop\n        /* \"#utility.yul\":20141:20145   */\n      dup1\n        /* \"#utility.yul\":20137:20146   */\n      not\n        /* \"#utility.yul\":20130:20135   */\n      dup5\n        /* \"#utility.yul\":20126:20147   */\n      and\n        /* \"#utility.yul\":20117:20147   */\n      swap4\n      pop\n        /* \"#utility.yul\":20190:20194   */\n      dup1\n        /* \"#utility.yul\":20180:20188   */\n      dup7\n        /* \"#utility.yul\":20176:20195   */\n      and\n        /* \"#utility.yul\":20169:20174   */\n      dup5\n        /* \"#utility.yul\":20166:20196   */\n      or\n        /* \"#utility.yul\":20156:20196   */\n      swap3\n      pop\n        /* \"#utility.yul\":19885:20202   */\n      pop\n      pop\n        /* \"#utility.yul\":19809:20202   */\n      swap4\n      swap3\n      pop\n      pop\n      pop\n      jump\t// out\n        /* \"#utility.yul\":20208:20268   */\n    tag_179:\n        /* \"#utility.yul\":20236:20239   */\n      0x00\n        /* \"#utility.yul\":20257:20262   */\n      dup2\n        /* \"#utility.yul\":20250:20262   */\n      swap1\n      pop\n        /* \"#utility.yul\":20208:20268   */\n      swap2\n      swap1\n      pop\n      jump\t// out\n        /* \"#utility.yul\":20274:20416   */\n    tag_180:\n        /* \"#utility.yul\":20324:20333   */\n      0x00\n        /* \"#utility.yul\":20357:20410   */\n      tag_378\n        /* \"#utility.yul\":20375:20409   */\n      tag_379\n        /* \"#utility.yul\":20384:20408   */\n      tag_380\n        /* \"#utility.yul\":20402:20407   */\n      dup5\n        /* \"#utility.yul\":20384:20408   */\n      tag_130\n      jump\t// in\n    tag_380:\n        /* \"#utility.yul\":20375:20409   */\n      tag_179\n      jump\t// in\n    tag_379:\n        /* \"#utility.yul\":20357:20410   */\n      tag_130\n      jump\t// in\n    tag_378:\n        /* \"#utility.yul\":20344:20410   */\n      swap1\n      pop\n        /* \"#utility.yul\":20274:20416   */\n      swap2\n      swap1\n      pop\n      jump\t// out\n        /* \"#utility.yul\":20422:20497   */\n    tag_181:\n        /* \"#utility.yul\":20465:20468   */\n      0x00\n        /* \"#utility.yul\":20486:20491   */\n      dup2\n        /* \"#utility.yul\":20479:20491   */\n      swap1\n      pop\n        /* \"#utility.yul\":20422:20497   */\n      swap2\n      swap1\n      pop\n      jump\t// out\n        /* \"#utility.yul\":20503:20772   */\n    tag_182:\n        /* \"#utility.yul\":20613:20652   */\n      tag_383\n        /* \"#utility.yul\":20644:20651   */\n      dup4\n        /* \"#utility.yul\":20613:20652   */\n      tag_180\n      jump\t// in\n    tag_383:\n        /* \"#utility.yul\":20674:20765   */\n      tag_384\n        /* \"#utility.yul\":20723:20764   */\n      tag_385\n        /* \"#utility.yul\":20747:20763   */\n      dup3\n        /* \"#utility.yul\":20723:20764   */\n      tag_181\n      jump\t// in\n    tag_385:\n        /* \"#utility.yul\":20715:20721   */\n      dup5\n        /* \"#utility.yul\":20708:20712   */\n      dup5\n        /* \"#utility.yul\":20702:20713   */\n      sload\n        /* \"#utility.yul\":20674:20765   */\n      tag_178\n      jump\t// in\n    tag_384:\n        /* \"#utility.yul\":20668:20672   */\n      dup3\n        /* \"#utility.yul\":20661:20766   */\n      sstore\n        /* \"#utility.yul\":20579:20772   */\n      pop\n        /* \"#utility.yul\":20503:20772   */\n      pop\n      pop\n      pop\n      jump\t// out\n        /* \"#utility.yul\":20778:20851   */\n    tag_183:\n        /* \"#utility.yul\":20823:20826   */\n      0x00\n        /* \"#utility.yul\":20778:20851   */\n      swap1\n      jump\t// out\n        /* \"#utility.yul\":20857:21046   */\n    tag_184:\n        /* \"#utility.yul\":20934:20966   */\n      tag_388\n      tag_183\n      jump\t// in\n    tag_388:\n        /* \"#utility.yul\":20975:21040   */\n      tag_389\n        /* \"#utility.yul\":21033:21039   */\n      dup2\n        /* \"#utility.yul\":21025:21031   */\n      dup5\n        /* \"#utility.yul\":21019:21023   */\n      dup5\n        /* \"#utility.yul\":20975:21040   */\n      tag_182\n      jump\t// in\n    tag_389:\n        /* \"#utility.yul\":20910:21046   */\n      pop\n        /* \"#utility.yul\":20857:21046   */\n      pop\n      pop\n      jump\t// out\n        /* \"#utility.yul\":21052:21238   */\n    tag_185:\n        /* \"#utility.yul\":21112:21232   */\n    tag_391:\n        /* \"#utility.yul\":21129:21132   */\n      dup2\n        /* \"#utility.yul\":21122:21127   */\n      dup2\n        /* \"#utility.yul\":21119:21133   */\n      lt\n        /* \"#utility.yul\":21112:21232   */\n      iszero\n      tag_393\n      jumpi\n        /* \"#utility.yul\":21183:21222   */\n      tag_394\n        /* \"#utility.yul\":21220:21221   */\n      0x00\n        /* \"#utility.yul\":21213:21218   */\n      dup3\n        /* \"#utility.yul\":21183:21222   */\n      tag_184\n      jump\t// in\n    tag_394:\n        /* \"#utility.yul\":21156:21157   */\n      0x01\n        /* \"#utility.yul\":21149:21154   */\n      dup2\n        /* \"#utility.yul\":21145:21158   */\n      add\n        /* \"#utility.yul\":21136:21158   */\n      swap1\n      pop\n        /* \"#utility.yul\":21112:21232   */\n      jump(tag_391)\n    tag_393:\n        /* \"#utility.yul\":21052:21238   */\n      pop\n      pop\n      jump\t// out\n        /* \"#utility.yul\":21244:21787   */\n    tag_186:\n        /* \"#utility.yul\":21345:21347   */\n      0x1f\n        /* \"#utility.yul\":21340:21343   */\n      dup3\n        /* \"#utility.yul\":21337:21348   */\n      gt\n        /* \"#utility.yul\":21334:21780   */\n      iszero\n      tag_396\n      jumpi\n        /* \"#utility.yul\":21379:21417   */\n      tag_397\n        /* \"#utility.yul\":21411:21416   */\n      dup2\n        /* \"#utility.yul\":21379:21417   */\n      tag_175\n      jump\t// in\n    tag_397:\n        /* \"#utility.yul\":21463:21492   */\n      tag_398\n        /* \"#utility.yul\":21481:21491   */\n      dup5\n        /* \"#utility.yul\":21463:21492   */\n      tag_176\n      jump\t// in\n    tag_398:\n        /* \"#utility.yul\":21453:21461   */\n      dup2\n        /* \"#utility.yul\":21449:21493   */\n      add\n        /* \"#utility.yul\":21646:21648   */\n      0x20\n        /* \"#utility.yul\":21634:21644   */\n      dup6\n        /* \"#utility.yul\":21631:21649   */\n      lt\n        /* \"#utility.yul\":21628:21677   */\n      iszero\n      tag_399\n      jumpi\n        /* \"#utility.yul\":21667:21675   */\n      dup2\n        /* \"#utility.yul\":21652:21675   */\n      swap1\n      pop\n        /* \"#utility.yul\":21628:21677   */\n    tag_399:\n        /* \"#utility.yul\":21690:21770   */\n      tag_400\n        /* \"#utility.yul\":21746:21768   */\n      tag_401\n        /* \"#utility.yul\":21764:21767   */\n      dup6\n        /* \"#utility.yul\":21746:21768   */\n      tag_176\n      jump\t// in\n    tag_401:\n        /* \"#utility.yul\":21736:21744   */\n      dup4\n        /* \"#utility.yul\":21732:21769   */\n      add\n        /* \"#utility.yul\":21719:21730   */\n      dup3\n        /* \"#utility.yul\":21690:21770   */\n      tag_185\n      jump\t// in\n    tag_400:\n        /* \"#utility.yul\":21349:21780   */\n      pop\n      pop\n        /* \"#utility.yul\":21334:21780   */\n    tag_396:\n        /* \"#utility.yul\":21244:21787   */\n      pop\n      pop\n      pop\n      jump\t// out\n        /* \"#utility.yul\":21793:21910   */\n    tag_187:\n        /* \"#utility.yul\":21847:21855   */\n      0x00\n        /* \"#utility.yul\":21897:21902   */\n      dup3\n        /* \"#utility.yul\":21891:21895   */\n      dup3\n        /* \"#utility.yul\":21887:21903   */\n      shr\n        /* \"#utility.yul\":21866:21903   */\n      swap1\n      pop\n        /* \"#utility.yul\":21793:21910   */\n      swap3\n      swap2\n      pop\n      pop\n      jump\t// out\n        /* \"#utility.yul\":21916:22085   */\n    tag_188:\n        /* \"#utility.yul\":21960:21966   */\n      0x00\n        /* \"#utility.yul\":21993:22044   */\n      tag_404\n        /* \"#utility.yul\":22041:22042   */\n      0x00\n        /* \"#utility.yul\":22037:22043   */\n      not\n        /* \"#utility.yul\":22029:22034   */\n      dup5\n        /* \"#utility.yul\":22026:22027   */\n      0x08\n        /* \"#utility.yul\":22022:22035   */\n      mul\n        /* \"#utility.yul\":21993:22044   */\n      tag_187\n      jump\t// in\n    tag_404:\n        /* \"#utility.yul\":21989:22045   */\n      not\n        /* \"#utility.yul\":22074:22078   */\n      dup1\n        /* \"#utility.yul\":22068:22072   */\n      dup4\n        /* \"#utility.yul\":22064:22079   */\n      and\n        /* \"#utility.yul\":22054:22079   */\n      swap2\n      pop\n        /* \"#utility.yul\":21967:22085   */\n      pop\n        /* \"#utility.yul\":21916:22085   */\n      swap3\n      swap2\n      pop\n      pop\n      jump\t// out\n        /* \"#utility.yul\":22090:22385   */\n    tag_189:\n        /* \"#utility.yul\":22166:22170   */\n      0x00\n        /* \"#utility.yul\":22312:22341   */\n      tag_406\n        /* \"#utility.yul\":22337:22340   */\n      dup4\n        /* \"#utility.yul\":22331:22335   */\n      dup4\n        /* \"#utility.yul\":22312:22341   */\n      tag_188\n      jump\t// in\n    tag_406:\n        /* \"#utility.yul\":22304:22341   */\n      swap2\n      pop\n        /* \"#utility.yul\":22374:22377   */\n      dup3\n        /* \"#utility.yul\":22371:22372   */\n      0x02\n        /* \"#utility.yul\":22367:22378   */\n      mul\n        /* \"#utility.yul\":22361:22365   */\n      dup3\n        /* \"#utility.yul\":22358:22379   */\n      or\n        /* \"#utility.yul\":22350:22379   */\n      swap1\n      pop\n        /* \"#utility.yul\":22090:22385   */\n      swap3\n      swap2\n      pop\n      pop\n      jump\t// out\n        /* \"#utility.yul\":22390:23785   */\n    tag_111:\n        /* \"#utility.yul\":22507:22544   */\n      tag_408\n        /* \"#utility.yul\":22540:22543   */\n      dup3\n        /* \"#utility.yul\":22507:22544   */\n      tag_135\n      jump\t// in\n    tag_408:\n        /* \"#utility.yul\":22609:22627   */\n      0xffffffffffffffff\n        /* \"#utility.yul\":22601:22607   */\n      dup2\n        /* \"#utility.yul\":22598:22628   */\n      gt\n        /* \"#utility.yul\":22595:22651   */\n      iszero\n      tag_409\n      jumpi\n        /* \"#utility.yul\":22631:22649   */\n      tag_410\n      tag_157\n      jump\t// in\n    tag_410:\n        /* \"#utility.yul\":22595:22651   */\n    tag_409:\n        /* \"#utility.yul\":22675:22713   */\n      tag_411\n        /* \"#utility.yul\":22707:22711   */\n      dup3\n        /* \"#utility.yul\":22701:22712   */\n      sload\n        /* \"#utility.yul\":22675:22713   */\n      tag_56\n      jump\t// in\n    tag_411:\n        /* \"#utility.yul\":22760:22827   */\n      tag_412\n        /* \"#utility.yul\":22820:22826   */\n      dup3\n        /* \"#utility.yul\":22812:22818   */\n      dup3\n        /* \"#utility.yul\":22806:22810   */\n      dup6\n        /* \"#utility.yul\":22760:22827   */\n      tag_186\n      jump\t// in\n    tag_412:\n        /* \"#utility.yul\":22854:22855   */\n      0x00\n        /* \"#utility.yul\":22878:22882   */\n      0x20\n        /* \"#utility.yul\":22865:22882   */\n      swap1\n      pop\n        /* \"#utility.yul\":22910:22912   */\n      0x1f\n        /* \"#utility.yul\":22902:22908   */\n      dup4\n        /* \"#utility.yul\":22899:22913   */\n      gt\n        /* \"#utility.yul\":22927:22928   */\n      0x01\n        /* \"#utility.yul\":22922:23540   */\n      dup2\n      eq\n      tag_414\n      jumpi\n        /* \"#utility.yul\":23584:23585   */\n      0x00\n        /* \"#utility.yul\":23601:23607   */\n      dup5\n        /* \"#utility.yul\":23598:23675   */\n      iszero\n      tag_415\n      jumpi\n        /* \"#utility.yul\":23650:23659   */\n      dup3\n        /* \"#utility.yul\":23645:23648   */\n      dup8\n        /* \"#utility.yul\":23641:23660   */\n      add\n        /* \"#utility.yul\":23635:23661   */\n      mload\n        /* \"#utility.yul\":23626:23661   */\n      swap1\n      pop\n        /* \"#utility.yul\":23598:23675   */\n    tag_415:\n        /* \"#utility.yul\":23701:23768   */\n      tag_416\n        /* \"#utility.yul\":23761:23767   */\n      dup6\n        /* \"#utility.yul\":23754:23759   */\n      dup3\n        /* \"#utility.yul\":23701:23768   */\n      tag_189\n      jump\t// in\n    tag_416:\n        /* \"#utility.yul\":23695:23699   */\n      dup7\n        /* \"#utility.yul\":23688:23769   */\n      sstore\n        /* \"#utility.yul\":23557:23779   */\n      pop\n        /* \"#utility.yul\":22892:23779   */\n      jump(tag_413)\n        /* \"#utility.yul\":22922:23540   */\n    tag_414:\n        /* \"#utility.yul\":22974:22978   */\n      0x1f\n        /* \"#utility.yul\":22970:22979   */\n      not\n        /* \"#utility.yul\":22962:22968   */\n      dup5\n        /* \"#utility.yul\":22958:22980   */\n      and\n        /* \"#utility.yul\":23008:23045   */\n      tag_417\n        /* \"#utility.yul\":23040:23044   */\n      dup7\n        /* \"#utility.yul\":23008:23045   */\n      tag_175\n      jump\t// in\n    tag_417:\n        /* \"#utility.yul\":23067:23068   */\n      0x00\n        /* \"#utility.yul\":23081:23289   */\n    tag_418:\n        /* \"#utility.yul\":23095:23102   */\n      dup3\n        /* \"#utility.yul\":23092:23093   */\n      dup2\n        /* \"#utility.yul\":23089:23103   */\n      lt\n        /* \"#utility.yul\":23081:23289   */\n      iszero\n      tag_420\n      jumpi\n        /* \"#utility.yul\":23174:23183   */\n      dup5\n        /* \"#utility.yul\":23169:23172   */\n      dup10\n        /* \"#utility.yul\":23165:23184   */\n      add\n        /* \"#utility.yul\":23159:23185   */\n      mload\n        /* \"#utility.yul\":23151:23157   */\n      dup3\n        /* \"#utility.yul\":23144:23186   */\n      sstore\n        /* \"#utility.yul\":23225:23226   */\n      0x01\n        /* \"#utility.yul\":23217:23223   */\n      dup3\n        /* \"#utility.yul\":23213:23227   */\n      add\n        /* \"#utility.yul\":23203:23227   */\n      swap2\n      pop\n        /* \"#utility.yul\":23272:23274   */\n      0x20\n        /* \"#utility.yul\":23261:23270   */\n      dup6\n        /* \"#utility.yul\":23257:23275   */\n      add\n        /* \"#utility.yul\":23244:23275   */\n      swap5\n      pop\n        /* \"#utility.yul\":23118:23122   */\n      0x20\n        /* \"#utility.yul\":23115:23116   */\n      dup2\n        /* \"#utility.yul\":23111:23123   */\n      add\n        /* \"#utility.yul\":23106:23123   */\n      swap1\n      pop\n        /* \"#utility.yul\":23081:23289   */\n      jump(tag_418)\n    tag_420:\n        /* \"#utility.yul\":23317:23323   */\n      dup7\n        /* \"#utility.yul\":23308:23315   */\n      dup4\n        /* \"#utility.yul\":23305:23324   */\n      lt\n        /* \"#utility.yul\":23302:23481   */\n      iszero\n      tag_421\n      jumpi\n        /* \"#utility.yul\":23375:23384   */\n      dup5\n        /* \"#utility.yul\":23370:23373   */\n      dup10\n        /* \"#utility.yul\":23366:23385   */\n      add\n        /* \"#utility.yul\":23360:23386   */\n      mload\n        /* \"#utility.yul\":23418:23466   */\n      tag_422\n        /* \"#utility.yul\":23460:23464   */\n      0x1f\n        /* \"#utility.yul\":23452:23458   */\n      dup10\n        /* \"#utility.yul\":23448:23465   */\n      and\n        /* \"#utility.yul\":23437:23446   */\n      dup3\n        /* \"#utility.yul\":23418:23466   */\n      tag_188\n      jump\t// in\n    tag_422:\n        /* \"#utility.yul\":23410:23416   */\n      dup4\n        /* \"#utility.yul\":23403:23467   */\n      sstore\n        /* \"#utility.yul\":23325:23481   */\n      pop\n        /* \"#utility.yul\":23302:23481   */\n    tag_421:\n        /* \"#utility.yul\":23527:23528   */\n      0x01\n        /* \"#utility.yul\":23523:23524   */\n      0x02\n        /* \"#utility.yul\":23515:23521   */\n      dup9\n        /* \"#utility.yul\":23511:23525   */\n      mul\n        /* \"#utility.yul\":23507:23529   */\n      add\n        /* \"#utility.yul\":23501:23505   */\n      dup9\n        /* \"#utility.yul\":23494:23530   */\n      sstore\n        /* \"#utility.yul\":22929:23540   */\n      pop\n      pop\n      pop\n        /* \"#utility.yul\":22892:23779   */\n    tag_413:\n      pop\n        /* \"#utility.yul\":22482:23785   */\n      pop\n      pop\n      pop\n        /* \"#utility.yul\":22390:23785   */\n      pop\n      pop\n      jump\t// out\n\n    auxdata: 0xa2646970667358221220a57aee3872ffcaecd0116a79e100ace471f60ee8e9561971e9ed3a01745fa49064736f6c63430008120033\n}\n",
				"bytecode": {
					"linkReferences": {},
					"object": "60806040526101186000806101000a81548161ffff021916908361ffff16021790555034801561002e57600080fd5b5033600260006101000a81548173ffffffffffffffffffffffffffffffffffffffff021916908373ffffffffffffffffffffffffffffffffffffffff16021790555061182c8061007f6000396000f3fe608060405234801561001057600080fd5b50600436106100935760003560e01c8063633782161161006657806363378216146101345780636eb10797146101505780637c9cd2bc1461016e5780638da5cb5b1461018a578063c3ad5ecb146101a857610093565b806305a1b4a91461009857806312e7ee1c146100cc5780633d9b569f146100fc57806358bfa4ab14610118575b600080fd5b6100b260048036038101906100ad9190610c73565b6101d8565b6040516100c3959493929190610d61565b60405180910390f35b6100e660048036038101906100e19190610dbb565b6102d3565b6040516100f39190610f88565b60405180910390f35b61011660048036038101906101119190610c73565b610477565b005b610132600480360381019061012d9190610fe4565b61063c565b005b61014e60048036038101906101499190610c73565b6106eb565b005b61015861080b565b6040516101659190611020565b60405180910390f35b61018860048036038101906101839190611170565b61081d565b005b6101926109e1565b60405161019f91906111b9565b60405180910390f35b6101c260048036038101906101bd91906111d4565b610a07565b6040516101cf9190611277565b60405180910390f35b600160205281600052604060002081815481106101f457600080fd5b9060005260206000209060050201600091509150508060000154908060010160009054906101000a900473ffffffffffffffffffffffffffffffffffffffff1690806002018054610244906112c8565b80601f0160208091040260200160405190810160405280929190818152602001828054610270906112c8565b80156102bd5780601f10610292576101008083540402835291602001916102bd565b820191906000526020600020905b8154815290600101906020018083116102a057829003601f168201915b5050505050908060030154908060040154905085565b6060600160008373ffffffffffffffffffffffffffffffffffffffff1673ffffffffffffffffffffffffffffffffffffffff168152602001908152602001600020805480602002602001604051908101604052809291908181526020016000905b8282101561046c57838290600052602060002090600502016040518060a0016040529081600082015481526020016001820160009054906101000a900473ffffffffffffffffffffffffffffffffffffffff1673ffffffffffffffffffffffffffffffffffffffff1673ffffffffffffffffffffffffffffffffffffffff1681526020016002820180546103c7906112c8565b80601f01602080910402602001604051908101604052809291908181526020018280546103f3906112c8565b80156104405780601f1061041557610100808354040283529160200191610440565b820191906000526020600020905b81548152906001019060200180831161042357829003601f168201915b505050505081526020016003820154815260200160048201548152505081526020019060010190610334565b505050509050919050565b80600160008473ffffffffffffffffffffffffffffffffffffffff1673ffffffffffffffffffffffffffffffffffffffff16815260200190815260200160002082815481106104c9576104c86112f9565b5b9060005260206000209060050201600001541461051b576040517f08c379a000000000000000000000000000000000000000000000000000000000815260040161051290611374565b60405180910390fd5b6000600160008473ffffffffffffffffffffffffffffffffffffffff1673ffffffffffffffffffffffffffffffffffffffff168152602001908152602001600020828154811061056e5761056d6112f9565b5b906000526020600020906005020160040154116105c0576040517f08c379a00000000000000000000000000000000000000000000000000000000081526004016105b7906113e0565b60405180910390fd5b600160008373ffffffffffffffffffffffffffffffffffffffff1673ffffffffffffffffffffffffffffffffffffffff1681526020019081526020016000208181548110610611576106106112f9565b5b906000526020600020906005020160040160008154809291906106339061142f565b91905055505050565b600260009054906101000a900473ffffffffffffffffffffffffffffffffffffffff1673ffffffffffffffffffffffffffffffffffffffff163373ffffffffffffffffffffffffffffffffffffffff16146106cc576040517f08c379a00000000000000000000000000000000000000000000000000000000081526004016106c3906114a4565b60405180910390fd5b806000806101000a81548161ffff021916908361ffff16021790555050565b80600160008473ffffffffffffffffffffffffffffffffffffffff1673ffffffffffffffffffffffffffffffffffffffff168152602001908152602001600020828154811061073d5761073c6112f9565b5b9060005260206000209060050201600001541461078f576040517f08c379a000000000000000000000000000000000000000000000000000000000815260040161078690611374565b60405180910390fd5b600160008373ffffffffffffffffffffffffffffffffffffffff1673ffffffffffffffffffffffffffffffffffffffff16815260200190815260200160002081815481106107e0576107df6112f9565b5b90600052602060002090600502016004016000815480929190610802906114c4565b91905055505050565b60008054906101000a900461ffff1681565b60008054906101000a900461ffff1661ffff1681511115610873576040517f08c379a000000000000000000000000000000000000000000000000000000000815260040161086a90611558565b60405180910390fd5b60006040518060a00160405280600160003373ffffffffffffffffffffffffffffffffffffffff1673ffffffffffffffffffffffffffffffffffffffff1681526020019081526020016000208054905081526020013373ffffffffffffffffffffffffffffffffffffffff16815260200183815260200142815260200160008152509050600160003373ffffffffffffffffffffffffffffffffffffffff1673ffffffffffffffffffffffffffffffffffffffff1681526020019081526020016000208190806001815401808255809150506001900390600052602060002090600502016000909190919091506000820151816000015560208201518160010160006101000a81548173ffffffffffffffffffffffffffffffffffffffff021916908373ffffffffffffffffffffffffffffffffffffffff16021790555060408201518160020190816109c69190611724565b50606082015181600301556080820151816004015550505050565b600260009054906101000a900473ffffffffffffffffffffffffffffffffffffffff1681565b610a0f610b86565b600160003373ffffffffffffffffffffffffffffffffffffffff1673ffffffffffffffffffffffffffffffffffffffff1681526020019081526020016000208281548110610a6057610a5f6112f9565b5b90600052602060002090600502016040518060a0016040529081600082015481526020016001820160009054906101000a900473ffffffffffffffffffffffffffffffffffffffff1673ffffffffffffffffffffffffffffffffffffffff1673ffffffffffffffffffffffffffffffffffffffff168152602001600282018054610ae9906112c8565b80601f0160208091040260200160405190810160405280929190818152602001828054610b15906112c8565b8015610b625780601f10610b3757610100808354040283529160200191610b62565b820191906000526020600020905b815481529060010190602001808311610b4557829003601f168201915b50505050508152602001600382015481526020016004820154815250509050919050565b6040518060a0016040528060008152602001600073ffffffffffffffffffffffffffffffffffffffff1681526020016060815260200160008152602001600081525090565b6000604051905090565b600080fd5b600080fd5b600073ffffffffffffffffffffffffffffffffffffffff82169050919050565b6000610c0a82610bdf565b9050919050565b610c1a81610bff565b8114610c2557600080fd5b50565b600081359050610c3781610c11565b92915050565b6000819050919050565b610c5081610c3d565b8114610c5b57600080fd5b50565b600081359050610c6d81610c47565b92915050565b60008060408385031215610c8a57610c89610bd5565b5b6000610c9885828601610c28565b9250506020610ca985828601610c5e565b9150509250929050565b610cbc81610c3d565b82525050565b610ccb81610bff565b82525050565b600081519050919050565b600082825260208201905092915050565b60005b83811015610d0b578082015181840152602081019050610cf0565b60008484015250505050565b6000601f19601f8301169050919050565b6000610d3382610cd1565b610d3d8185610cdc565b9350610d4d818560208601610ced565b610d5681610d17565b840191505092915050565b600060a082019050610d766000830188610cb3565b610d836020830187610cc2565b8181036040830152610d958186610d28565b9050610da46060830185610cb3565b610db16080830184610cb3565b9695505050505050565b600060208284031215610dd157610dd0610bd5565b5b6000610ddf84828501610c28565b91505092915050565b600081519050919050565b600082825260208201905092915050565b6000819050602082019050919050565b610e1d81610c3d565b82525050565b610e2c81610bff565b82525050565b600082825260208201905092915050565b6000610e4e82610cd1565b610e588185610e32565b9350610e68818560208601610ced565b610e7181610d17565b840191505092915050565b600060a083016000830151610e946000860182610e14565b506020830151610ea76020860182610e23565b5060408301518482036040860152610ebf8282610e43565b9150506060830151610ed46060860182610e14565b506080830151610ee76080860182610e14565b508091505092915050565b6000610efe8383610e7c565b905092915050565b6000602082019050919050565b6000610f1e82610de8565b610f288185610df3565b935083602082028501610f3a85610e04565b8060005b85811015610f765784840389528151610f578582610ef2565b9450610f6283610f06565b925060208a01995050600181019050610f3e565b50829750879550505050505092915050565b60006020820190508181036000830152610fa28184610f13565b905092915050565b600061ffff82169050919050565b610fc181610faa565b8114610fcc57600080fd5b50565b600081359050610fde81610fb8565b92915050565b600060208284031215610ffa57610ff9610bd5565b5b600061100884828501610fcf565b91505092915050565b61101a81610faa565b82525050565b60006020820190506110356000830184611011565b92915050565b600080fd5b600080fd5b7f4e487b7100000000000000000000000000000000000000000000000000000000600052604160045260246000fd5b61107d82610d17565b810181811067ffffffffffffffff8211171561109c5761109b611045565b5b80604052505050565b60006110af610bcb565b90506110bb8282611074565b919050565b600067ffffffffffffffff8211156110db576110da611045565b5b6110e482610d17565b9050602081019050919050565b82818337600083830152505050565b600061111361110e846110c0565b6110a5565b90508281526020810184848401111561112f5761112e611040565b5b61113a8482856110f1565b509392505050565b600082601f8301126111575761115661103b565b5b8135611167848260208601611100565b91505092915050565b60006020828403121561118657611185610bd5565b5b600082013567ffffffffffffffff8111156111a4576111a3610bda565b5b6111b084828501611142565b91505092915050565b60006020820190506111ce6000830184610cc2565b92915050565b6000602082840312156111ea576111e9610bd5565b5b60006111f884828501610c5e565b91505092915050565b600060a0830160008301516112196000860182610e14565b50602083015161122c6020860182610e23565b50604083015184820360408601526112448282610e43565b91505060608301516112596060860182610e14565b50608083015161126c6080860182610e14565b508091505092915050565b600060208201905081810360008301526112918184611201565b905092915050565b7f4e487b7100000000000000000000000000000000000000000000000000000000600052602260045260246000fd5b600060028204905060018216806112e057607f821691505b6020821081036112f3576112f2611299565b5b50919050565b7f4e487b7100000000000000000000000000000000000000000000000000000000600052603260045260246000fd5b7f545745455420444f4553204e4f54204558495354000000000000000000000000600082015250565b600061135e601483610cdc565b915061136982611328565b602082019050919050565b6000602082019050818103600083015261138d81611351565b9050919050565b7f545745455420484153204e4f204c494b45530000000000000000000000000000600082015250565b60006113ca601283610cdc565b91506113d582611394565b602082019050919050565b600060208201905081810360008301526113f9816113bd565b9050919050565b7f4e487b7100000000000000000000000000000000000000000000000000000000600052601160045260246000fd5b600061143a82610c3d565b91506000820361144d5761144c611400565b5b600182039050919050565b7f594f5520415245204e4f5420544845204f574e45520000000000000000000000600082015250565b600061148e601583610cdc565b915061149982611458565b602082019050919050565b600060208201905081810360008301526114bd81611481565b9050919050565b60006114cf82610c3d565b91507fffffffffffffffffffffffffffffffffffffffffffffffffffffffffffffffff820361150157611500611400565b5b600182019050919050565b7f747765657420697320746f206c6f6e6720212121000000000000000000000000600082015250565b6000611542601483610cdc565b915061154d8261150c565b602082019050919050565b6000602082019050818103600083015261157181611535565b9050919050565b60008190508160005260206000209050919050565b60006020601f8301049050919050565b600082821b905092915050565b6000600883026115da7fffffffffffffffffffffffffffffffffffffffffffffffffffffffffffffffff8261159d565b6115e4868361159d565b95508019841693508086168417925050509392505050565b6000819050919050565b600061162161161c61161784610c3d565b6115fc565b610c3d565b9050919050565b6000819050919050565b61163b83611606565b61164f61164782611628565b8484546115aa565b825550505050565b600090565b611664611657565b61166f818484611632565b505050565b5b818110156116935761168860008261165c565b600181019050611675565b5050565b601f8211156116d8576116a981611578565b6116b28461158d565b810160208510156116c1578190505b6116d56116cd8561158d565b830182611674565b50505b505050565b600082821c905092915050565b60006116fb600019846008026116dd565b1980831691505092915050565b600061171483836116ea565b9150826002028217905092915050565b61172d82610cd1565b67ffffffffffffffff81111561174657611745611045565b5b61175082546112c8565b61175b828285611697565b600060209050601f83116001811461178e576000841561177c578287015190505b6117868582611708565b8655506117ee565b601f19841661179c86611578565b60005b828110156117c45784890151825560018201915060208501945060208101905061179f565b868310156117e157848901516117dd601f8916826116ea565b8355505b6001600288020188555050505b50505050505056fea2646970667358221220a57aee3872ffcaecd0116a79e100ace471f60ee8e9561971e9ed3a01745fa49064736f6c63430008120033",
					"opcodes": "PUSH1 0x80 PUSH1 0x40 MSTORE PUSH2 0x118 PUSH1 0x0 DUP1 PUSH2 0x100 EXP DUP2 SLOAD DUP2 PUSH2 0xFFFF MUL NOT AND SWAP1 DUP4 PUSH2 0xFFFF AND MUL OR SWAP1 SSTORE POP CALLVALUE DUP1 ISZERO PUSH2 0x2E JUMPI PUSH1 0x0 DUP1 REVERT JUMPDEST POP CALLER PUSH1 0x2 PUSH1 0x0 PUSH2 0x100 EXP DUP2 SLOAD DUP2 PUSH20 0xFFFFFFFFFFFFFFFFFFFFFFFFFFFFFFFFFFFFFFFF MUL NOT AND SWAP1 DUP4 PUSH20 0xFFFFFFFFFFFFFFFFFFFFFFFFFFFFFFFFFFFFFFFF AND MUL OR SWAP1 SSTORE POP PUSH2 0x182C DUP1 PUSH2 0x7F PUSH1 0x0 CODECOPY PUSH1 0x0 RETURN INVALID PUSH1 0x80 PUSH1 0x40 MSTORE CALLVALUE DUP1 ISZERO PUSH2 0x10 JUMPI PUSH1 0x0 DUP1 REVERT JUMPDEST POP PUSH1 0x4 CALLDATASIZE LT PUSH2 0x93 JUMPI PUSH1 0x0 CALLDATALOAD PUSH1 0xE0 SHR DUP1 PUSH4 0x63378216 GT PUSH2 0x66 JUMPI DUP1 PUSH4 0x63378216 EQ PUSH2 0x134 JUMPI DUP1 PUSH4 0x6EB10797 EQ PUSH2 0x150 JUMPI DUP1 PUSH4 0x7C9CD2BC EQ PUSH2 0x16E JUMPI DUP1 PUSH4 0x8DA5CB5B EQ PUSH2 0x18A JUMPI DUP1 PUSH4 0xC3AD5ECB EQ PUSH2 0x1A8 JUMPI PUSH2 0x93 JUMP JUMPDEST DUP1 PUSH4 0x5A1B4A9 EQ PUSH2 0x98 JUMPI DUP1 PUSH4 0x12E7EE1C EQ PUSH2 0xCC JUMPI DUP1 PUSH4 0x3D9B569F EQ PUSH2 0xFC JUMPI DUP1 PUSH4 0x58BFA4AB EQ PUSH2 0x118 JUMPI JUMPDEST PUSH1 0x0 DUP1 REVERT JUMPDEST PUSH2 0xB2 PUSH1 0x4 DUP1 CALLDATASIZE SUB DUP2 ADD SWAP1 PUSH2 0xAD SWAP2 SWAP1 PUSH2 0xC73 JUMP JUMPDEST PUSH2 0x1D8 JUMP JUMPDEST PUSH1 0x40 MLOAD PUSH2 0xC3 SWAP6 SWAP5 SWAP4 SWAP3 SWAP2 SWAP1 PUSH2 0xD61 JUMP JUMPDEST PUSH1 0x40 MLOAD DUP1 SWAP2 SUB SWAP1 RETURN JUMPDEST PUSH2 0xE6 PUSH1 0x4 DUP1 CALLDATASIZE SUB DUP2 ADD SWAP1 PUSH2 0xE1 SWAP2 SWAP1 PUSH2 0xDBB JUMP JUMPDEST PUSH2 0x2D3 JUMP JUMPDEST PUSH1 0x40 MLOAD PUSH2 0xF3 SWAP2 SWAP1 PUSH2 0xF88 JUMP JUMPDEST PUSH1 0x40 MLOAD DUP1 SWAP2 SUB SWAP1 RETURN JUMPDEST PUSH2 0x116 PUSH1 0x4 DUP1 CALLDATASIZE SUB DUP2 ADD SWAP1 PUSH2 0x111 SWAP2 SWAP1 PUSH2 0xC73 JUMP JUMPDEST PUSH2 0x477 JUMP JUMPDEST STOP JUMPDEST PUSH2 0x132 PUSH1 0x4 DUP1 CALLDATASIZE SUB DUP2 ADD SWAP1 PUSH2 0x12D SWAP2 SWAP1 PUSH2 0xFE4 JUMP JUMPDEST PUSH2 0x63C JUMP JUMPDEST STOP JUMPDEST PUSH2 0x14E PUSH1 0x4 DUP1 CALLDATASIZE SUB DUP2 ADD SWAP1 PUSH2 0x149 SWAP2 SWAP1 PUSH2 0xC73 JUMP JUMPDEST PUSH2 0x6EB JUMP JUMPDEST STOP JUMPDEST PUSH2 0x158 PUSH2 0x80B JUMP JUMPDEST PUSH1 0x40 MLOAD PUSH2 0x165 SWAP2 SWAP1 PUSH2 0x1020 JUMP JUMPDEST PUSH1 0x40 MLOAD DUP1 SWAP2 SUB SWAP1 RETURN JUMPDEST PUSH2 0x188 PUSH1 0x4 DUP1 CALLDATASIZE SUB DUP2 ADD SWAP1 PUSH2 0x183 SWAP2 SWAP1 PUSH2 0x1170 JUMP JUMPDEST PUSH2 0x81D JUMP JUMPDEST STOP JUMPDEST PUSH2 0x192 PUSH2 0x9E1 JUMP JUMPDEST PUSH1 0x40 MLOAD PUSH2 0x19F SWAP2 SWAP1 PUSH2 0x11B9 JUMP JUMPDEST PUSH1 0x40 MLOAD DUP1 SWAP2 SUB SWAP1 RETURN JUMPDEST PUSH2 0x1C2 PUSH1 0x4 DUP1 CALLDATASIZE SUB DUP2 ADD SWAP1 PUSH2 0x1BD SWAP2 SWAP1 PUSH2 0x11D4 JUMP JUMPDEST PUSH2 0xA07 JUMP JUMPDEST PUSH1 0x40 MLOAD PUSH2 0x1CF SWAP2 SWAP1 PUSH2 0x1277 JUMP JUMPDEST PUSH1 0x40 MLOAD DUP1 SWAP2 SUB SWAP1 RETURN JUMPDEST PUSH1 0x1 PUSH1 0x20 MSTORE DUP2 PUSH1 0x0 MSTORE PUSH1 0x40 PUSH1 0x0 KECCAK256 DUP2 DUP2 SLOAD DUP2 LT PUSH2 0x1F4 JUMPI PUSH1 0x0 DUP1 REVERT JUMPDEST SWAP1 PUSH1 0x0 MSTORE PUSH1 0x20 PUSH1 0x0 KECCAK256 SWAP1 PUSH1 0x5 MUL ADD PUSH1 0x0 SWAP2 POP SWAP2 POP POP DUP1 PUSH1 0x0 ADD SLOAD SWAP1 DUP1 PUSH1 0x1 ADD PUSH1 0x0 SWAP1 SLOAD SWAP1 PUSH2 0x100 EXP SWAP1 DIV PUSH20 0xFFFFFFFFFFFFFFFFFFFFFFFFFFFFFFFFFFFFFFFF AND SWAP1 DUP1 PUSH1 0x2 ADD DUP1 SLOAD PUSH2 0x244 SWAP1 PUSH2 0x12C8 JUMP JUMPDEST DUP1 PUSH1 0x1F ADD PUSH1 0x20 DUP1 SWAP2 DIV MUL PUSH1 0x20 ADD PUSH1 0x40 MLOAD SWAP1 DUP2 ADD PUSH1 0x40 MSTORE DUP1 SWAP3 SWAP2 SWAP1 DUP2 DUP2 MSTORE PUSH1 0x20 ADD DUP3 DUP1 SLOAD PUSH2 0x270 SWAP1 PUSH2 0x12C8 JUMP JUMPDEST DUP1 ISZERO PUSH2 0x2BD JUMPI DUP1 PUSH1 0x1F LT PUSH2 0x292 JUMPI PUSH2 0x100 DUP1 DUP4 SLOAD DIV MUL DUP4 MSTORE SWAP2 PUSH1 0x20 ADD SWAP2 PUSH2 0x2BD JUMP JUMPDEST DUP3 ADD SWAP2 SWAP1 PUSH1 0x0 MSTORE PUSH1 0x20 PUSH1 0x0 KECCAK256 SWAP1 JUMPDEST DUP2 SLOAD DUP2 MSTORE SWAP1 PUSH1 0x1 ADD SWAP1 PUSH1 0x20 ADD DUP1 DUP4 GT PUSH2 0x2A0 JUMPI DUP3 SWAP1 SUB PUSH1 0x1F AND DUP3 ADD SWAP2 JUMPDEST POP POP POP POP POP SWAP1 DUP1 PUSH1 0x3 ADD SLOAD SWAP1 DUP1 PUSH1 0x4 ADD SLOAD SWAP1 POP DUP6 JUMP JUMPDEST PUSH1 0x60 PUSH1 0x1 PUSH1 0x0 DUP4 PUSH20 0xFFFFFFFFFFFFFFFFFFFFFFFFFFFFFFFFFFFFFFFF AND PUSH20 0xFFFFFFFFFFFFFFFFFFFFFFFFFFFFFFFFFFFFFFFF AND DUP2 MSTORE PUSH1 0x20 ADD SWAP1 DUP2 MSTORE PUSH1 0x20 ADD PUSH1 0x0 KECCAK256 DUP1 SLOAD DUP1 PUSH1 0x20 MUL PUSH1 0x20 ADD PUSH1 0x40 MLOAD SWAP1 DUP2 ADD PUSH1 0x40 MSTORE DUP1 SWAP3 SWAP2 SWAP1 DUP2 DUP2 MSTORE PUSH1 0x20 ADD PUSH1 0x0 SWAP1 JUMPDEST DUP3 DUP3 LT ISZERO PUSH2 0x46C JUMPI DUP4 DUP3 SWAP1 PUSH1 0x0 MSTORE PUSH1 0x20 PUSH1 0x0 KECCAK256 SWAP1 PUSH1 0x5 MUL ADD PUSH1 0x40 MLOAD DUP1 PUSH1 0xA0 ADD PUSH1 0x40 MSTORE SWAP1 DUP2 PUSH1 0x0 DUP3 ADD SLOAD DUP2 MSTORE PUSH1 0x20 ADD PUSH1 0x1 DUP3 ADD PUSH1 0x0 SWAP1 SLOAD SWAP1 PUSH2 0x100 EXP SWAP1 DIV PUSH20 0xFFFFFFFFFFFFFFFFFFFFFFFFFFFFFFFFFFFFFFFF AND PUSH20 0xFFFFFFFFFFFFFFFFFFFFFFFFFFFFFFFFFFFFFFFF AND PUSH20 0xFFFFFFFFFFFFFFFFFFFFFFFFFFFFFFFFFFFFFFFF AND DUP2 MSTORE PUSH1 0x20 ADD PUSH1 0x2 DUP3 ADD DUP1 SLOAD PUSH2 0x3C7 SWAP1 PUSH2 0x12C8 JUMP JUMPDEST DUP1 PUSH1 0x1F ADD PUSH1 0x20 DUP1 SWAP2 DIV MUL PUSH1 0x20 ADD PUSH1 0x40 MLOAD SWAP1 DUP2 ADD PUSH1 0x40 MSTORE DUP1 SWAP3 SWAP2 SWAP1 DUP2 DUP2 MSTORE PUSH1 0x20 ADD DUP3 DUP1 SLOAD PUSH2 0x3F3 SWAP1 PUSH2 0x12C8 JUMP JUMPDEST DUP1 ISZERO PUSH2 0x440 JUMPI DUP1 PUSH1 0x1F LT PUSH2 0x415 JUMPI PUSH2 0x100 DUP1 DUP4 SLOAD DIV MUL DUP4 MSTORE SWAP2 PUSH1 0x20 ADD SWAP2 PUSH2 0x440 JUMP JUMPDEST DUP3 ADD SWAP2 SWAP1 PUSH1 0x0 MSTORE PUSH1 0x20 PUSH1 0x0 KECCAK256 SWAP1 JUMPDEST DUP2 SLOAD DUP2 MSTORE SWAP1 PUSH1 0x1 ADD SWAP1 PUSH1 0x20 ADD DUP1 DUP4 GT PUSH2 0x423 JUMPI DUP3 SWAP1 SUB PUSH1 0x1F AND DUP3 ADD SWAP2 JUMPDEST POP POP POP POP POP DUP2 MSTORE PUSH1 0x20 ADD PUSH1 0x3 DUP3 ADD SLOAD DUP2 MSTORE PUSH1 0x20 ADD PUSH1 0x4 DUP3 ADD SLOAD DUP2 MSTORE POP POP DUP2 MSTORE PUSH1 0x20 ADD SWAP1 PUSH1 0x1 ADD SWAP1 PUSH2 0x334 JUMP JUMPDEST POP POP POP POP SWAP1 POP SWAP2 SWAP1 POP JUMP JUMPDEST DUP1 PUSH1 0x1 PUSH1 0x0 DUP5 PUSH20 0xFFFFFFFFFFFFFFFFFFFFFFFFFFFFFFFFFFFFFFFF AND PUSH20 0xFFFFFFFFFFFFFFFFFFFFFFFFFFFFFFFFFFFFFFFF AND DUP2 MSTORE PUSH1 0x20 ADD SWAP1 DUP2 MSTORE PUSH1 0x20 ADD PUSH1 0x0 KECCAK256 DUP3 DUP2 SLOAD DUP2 LT PUSH2 0x4C9 JUMPI PUSH2 0x4C8 PUSH2 0x12F9 JUMP JUMPDEST JUMPDEST SWAP1 PUSH1 0x0 MSTORE PUSH1 0x20 PUSH1 0x0 KECCAK256 SWAP1 PUSH1 0x5 MUL ADD PUSH1 0x0 ADD SLOAD EQ PUSH2 0x51B JUMPI PUSH1 0x40 MLOAD PUSH32 0x8C379A000000000000000000000000000000000000000000000000000000000 DUP2 MSTORE PUSH1 0x4 ADD PUSH2 0x512 SWAP1 PUSH2 0x1374 JUMP JUMPDEST PUSH1 0x40 MLOAD DUP1 SWAP2 SUB SWAP1 REVERT JUMPDEST PUSH1 0x0 PUSH1 0x1 PUSH1 0x0 DUP5 PUSH20 0xFFFFFFFFFFFFFFFFFFFFFFFFFFFFFFFFFFFFFFFF AND PUSH20 0xFFFFFFFFFFFFFFFFFFFFFFFFFFFFFFFFFFFFFFFF AND DUP2 MSTORE PUSH1 0x20 ADD SWAP1 DUP2 MSTORE PUSH1 0x20 ADD PUSH1 0x0 KECCAK256 DUP3 DUP2 SLOAD DUP2 LT PUSH2 0x56E JUMPI PUSH2 0x56D PUSH2 0x12F9 JUMP JUMPDEST JUMPDEST SWAP1 PUSH1 0x0 MSTORE PUSH1 0x20 PUSH1 0x0 KECCAK256 SWAP1 PUSH1 0x5 MUL ADD PUSH1 0x4 ADD SLOAD GT PUSH2 0x5C0 JUMPI PUSH1 0x40 MLOAD PUSH32 0x8C379A000000000000000000000000000000000000000000000000000000000 DUP2 MSTORE PUSH1 0x4 ADD PUSH2 0x5B7 SWAP1 PUSH2 0x13E0 JUMP JUMPDEST PUSH1 0x40 MLOAD DUP1 SWAP2 SUB SWAP1 REVERT JUMPDEST PUSH1 0x1 PUSH1 0x0 DUP4 PUSH20 0xFFFFFFFFFFFFFFFFFFFFFFFFFFFFFFFFFFFFFFFF AND PUSH20 0xFFFFFFFFFFFFFFFFFFFFFFFFFFFFFFFFFFFFFFFF AND DUP2 MSTORE PUSH1 0x20 ADD SWAP1 DUP2 MSTORE PUSH1 0x20 ADD PUSH1 0x0 KECCAK256 DUP2 DUP2 SLOAD DUP2 LT PUSH2 0x611 JUMPI PUSH2 0x610 PUSH2 0x12F9 JUMP JUMPDEST JUMPDEST SWAP1 PUSH1 0x0 MSTORE PUSH1 0x20 PUSH1 0x0 KECCAK256 SWAP1 PUSH1 0x5 MUL ADD PUSH1 0x4 ADD PUSH1 0x0 DUP2 SLOAD DUP1 SWAP3 SWAP2 SWAP1 PUSH2 0x633 SWAP1 PUSH2 0x142F JUMP JUMPDEST SWAP2 SWAP1 POP SSTORE POP POP POP JUMP JUMPDEST PUSH1 0x2 PUSH1 0x0 SWAP1 SLOAD SWAP1 PUSH2 0x100 EXP SWAP1 DIV PUSH20 0xFFFFFFFFFFFFFFFFFFFFFFFFFFFFFFFFFFFFFFFF AND PUSH20 0xFFFFFFFFFFFFFFFFFFFFFFFFFFFFFFFFFFFFFFFF AND CALLER PUSH20 0xFFFFFFFFFFFFFFFFFFFFFFFFFFFFFFFFFFFFFFFF AND EQ PUSH2 0x6CC JUMPI PUSH1 0x40 MLOAD PUSH32 0x8C379A000000000000000000000000000000000000000000000000000000000 DUP2 MSTORE PUSH1 0x4 ADD PUSH2 0x6C3 SWAP1 PUSH2 0x14A4 JUMP JUMPDEST PUSH1 0x40 MLOAD DUP1 SWAP2 SUB SWAP1 REVERT JUMPDEST DUP1 PUSH1 0x0 DUP1 PUSH2 0x100 EXP DUP2 SLOAD DUP2 PUSH2 0xFFFF MUL NOT AND SWAP1 DUP4 PUSH2 0xFFFF AND MUL OR SWAP1 SSTORE POP POP JUMP JUMPDEST DUP1 PUSH1 0x1 PUSH1 0x0 DUP5 PUSH20 0xFFFFFFFFFFFFFFFFFFFFFFFFFFFFFFFFFFFFFFFF AND PUSH20 0xFFFFFFFFFFFFFFFFFFFFFFFFFFFFFFFFFFFFFFFF AND DUP2 MSTORE PUSH1 0x20 ADD SWAP1 DUP2 MSTORE PUSH1 0x20 ADD PUSH1 0x0 KECCAK256 DUP3 DUP2 SLOAD DUP2 LT PUSH2 0x73D JUMPI PUSH2 0x73C PUSH2 0x12F9 JUMP JUMPDEST JUMPDEST SWAP1 PUSH1 0x0 MSTORE PUSH1 0x20 PUSH1 0x0 KECCAK256 SWAP1 PUSH1 0x5 MUL ADD PUSH1 0x0 ADD SLOAD EQ PUSH2 0x78F JUMPI PUSH1 0x40 MLOAD PUSH32 0x8C379A000000000000000000000000000000000000000000000000000000000 DUP2 MSTORE PUSH1 0x4 ADD PUSH2 0x786 SWAP1 PUSH2 0x1374 JUMP JUMPDEST PUSH1 0x40 MLOAD DUP1 SWAP2 SUB SWAP1 REVERT JUMPDEST PUSH1 0x1 PUSH1 0x0 DUP4 PUSH20 0xFFFFFFFFFFFFFFFFFFFFFFFFFFFFFFFFFFFFFFFF AND PUSH20 0xFFFFFFFFFFFFFFFFFFFFFFFFFFFFFFFFFFFFFFFF AND DUP2 MSTORE PUSH1 0x20 ADD SWAP1 DUP2 MSTORE PUSH1 0x20 ADD PUSH1 0x0 KECCAK256 DUP2 DUP2 SLOAD DUP2 LT PUSH2 0x7E0 JUMPI PUSH2 0x7DF PUSH2 0x12F9 JUMP JUMPDEST JUMPDEST SWAP1 PUSH1 0x0 MSTORE PUSH1 0x20 PUSH1 0x0 KECCAK256 SWAP1 PUSH1 0x5 MUL ADD PUSH1 0x4 ADD PUSH1 0x0 DUP2 SLOAD DUP1 SWAP3 SWAP2 SWAP1 PUSH2 0x802 SWAP1 PUSH2 0x14C4 JUMP JUMPDEST SWAP2 SWAP1 POP SSTORE POP POP POP JUMP JUMPDEST PUSH1 0x0 DUP1 SLOAD SWAP1 PUSH2 0x100 EXP SWAP1 DIV PUSH2 0xFFFF AND DUP2 JUMP JUMPDEST PUSH1 0x0 DUP1 SLOAD SWAP1 PUSH2 0x100 EXP SWAP1 DIV PUSH2 0xFFFF AND PUSH2 0xFFFF AND DUP2 MLOAD GT ISZERO PUSH2 0x873 JUMPI PUSH1 0x40 MLOAD PUSH32 0x8C379A000000000000000000000000000000000000000000000000000000000 DUP2 MSTORE PUSH1 0x4 ADD PUSH2 0x86A SWAP1 PUSH2 0x1558 JUMP JUMPDEST PUSH1 0x40 MLOAD DUP1 SWAP2 SUB SWAP1 REVERT JUMPDEST PUSH1 0x0 PUSH1 0x40 MLOAD DUP1 PUSH1 0xA0 ADD PUSH1 0x40 MSTORE DUP1 PUSH1 0x1 PUSH1 0x0 CALLER PUSH20 0xFFFFFFFFFFFFFFFFFFFFFFFFFFFFFFFFFFFFFFFF AND PUSH20 0xFFFFFFFFFFFFFFFFFFFFFFFFFFFFFFFFFFFFFFFF AND DUP2 MSTORE PUSH1 0x20 ADD SWAP1 DUP2 MSTORE PUSH1 0x20 ADD PUSH1 0x0 KECCAK256 DUP1 SLOAD SWAP1 POP DUP2 MSTORE PUSH1 0x20 ADD CALLER PUSH20 0xFFFFFFFFFFFFFFFFFFFFFFFFFFFFFFFFFFFFFFFF AND DUP2 MSTORE PUSH1 0x20 ADD DUP4 DUP2 MSTORE PUSH1 0x20 ADD TIMESTAMP DUP2 MSTORE PUSH1 0x20 ADD PUSH1 0x0 DUP2 MSTORE POP SWAP1 POP PUSH1 0x1 PUSH1 0x0 CALLER PUSH20 0xFFFFFFFFFFFFFFFFFFFFFFFFFFFFFFFFFFFFFFFF AND PUSH20 0xFFFFFFFFFFFFFFFFFFFFFFFFFFFFFFFFFFFFFFFF AND DUP2 MSTORE PUSH1 0x20 ADD SWAP1 DUP2 MSTORE PUSH1 0x20 ADD PUSH1 0x0 KECCAK256 DUP2 SWAP1 DUP1 PUSH1 0x1 DUP2 SLOAD ADD DUP1 DUP3 SSTORE DUP1 SWAP2 POP POP PUSH1 0x1 SWAP1 SUB SWAP1 PUSH1 0x0 MSTORE PUSH1 0x20 PUSH1 0x0 KECCAK256 SWAP1 PUSH1 0x5 MUL ADD PUSH1 0x0 SWAP1 SWAP2 SWAP1 SWAP2 SWAP1 SWAP2 POP PUSH1 0x0 DUP3 ADD MLOAD DUP2 PUSH1 0x0 ADD SSTORE PUSH1 0x20 DUP3 ADD MLOAD DUP2 PUSH1 0x1 ADD PUSH1 0x0 PUSH2 0x100 EXP DUP2 SLOAD DUP2 PUSH20 0xFFFFFFFFFFFFFFFFFFFFFFFFFFFFFFFFFFFFFFFF MUL NOT AND SWAP1 DUP4 PUSH20 0xFFFFFFFFFFFFFFFFFFFFFFFFFFFFFFFFFFFFFFFF AND MUL OR SWAP1 SSTORE POP PUSH1 0x40 DUP3 ADD MLOAD DUP2 PUSH1 0x2 ADD SWAP1 DUP2 PUSH2 0x9C6 SWAP2 SWAP1 PUSH2 0x1724 JUMP JUMPDEST POP PUSH1 0x60 DUP3 ADD MLOAD DUP2 PUSH1 0x3 ADD SSTORE PUSH1 0x80 DUP3 ADD MLOAD DUP2 PUSH1 0x4 ADD SSTORE POP POP POP POP JUMP JUMPDEST PUSH1 0x2 PUSH1 0x0 SWAP1 SLOAD SWAP1 PUSH2 0x100 EXP SWAP1 DIV PUSH20 0xFFFFFFFFFFFFFFFFFFFFFFFFFFFFFFFFFFFFFFFF AND DUP2 JUMP JUMPDEST PUSH2 0xA0F PUSH2 0xB86 JUMP JUMPDEST PUSH1 0x1 PUSH1 0x0 CALLER PUSH20 0xFFFFFFFFFFFFFFFFFFFFFFFFFFFFFFFFFFFFFFFF AND PUSH20 0xFFFFFFFFFFFFFFFFFFFFFFFFFFFFFFFFFFFFFFFF AND DUP2 MSTORE PUSH1 0x20 ADD SWAP1 DUP2 MSTORE PUSH1 0x20 ADD PUSH1 0x0 KECCAK256 DUP3 DUP2 SLOAD DUP2 LT PUSH2 0xA60 JUMPI PUSH2 0xA5F PUSH2 0x12F9 JUMP JUMPDEST JUMPDEST SWAP1 PUSH1 0x0 MSTORE PUSH1 0x20 PUSH1 0x0 KECCAK256 SWAP1 PUSH1 0x5 MUL ADD PUSH1 0x40 MLOAD DUP1 PUSH1 0xA0 ADD PUSH1 0x40 MSTORE SWAP1 DUP2 PUSH1 0x0 DUP3 ADD SLOAD DUP2 MSTORE PUSH1 0x20 ADD PUSH1 0x1 DUP3 ADD PUSH1 0x0 SWAP1 SLOAD SWAP1 PUSH2 0x100 EXP SWAP1 DIV PUSH20 0xFFFFFFFFFFFFFFFFFFFFFFFFFFFFFFFFFFFFFFFF AND PUSH20 0xFFFFFFFFFFFFFFFFFFFFFFFFFFFFFFFFFFFFFFFF AND PUSH20 0xFFFFFFFFFFFFFFFFFFFFFFFFFFFFFFFFFFFFFFFF AND DUP2 MSTORE PUSH1 0x20 ADD PUSH1 0x2 DUP3 ADD DUP1 SLOAD PUSH2 0xAE9 SWAP1 PUSH2 0x12C8 JUMP JUMPDEST DUP1 PUSH1 0x1F ADD PUSH1 0x20 DUP1 SWAP2 DIV MUL PUSH1 0x20 ADD PUSH1 0x40 MLOAD SWAP1 DUP2 ADD PUSH1 0x40 MSTORE DUP1 SWAP3 SWAP2 SWAP1 DUP2 DUP2 MSTORE PUSH1 0x20 ADD DUP3 DUP1 SLOAD PUSH2 0xB15 SWAP1 PUSH2 0x12C8 JUMP JUMPDEST DUP1 ISZERO PUSH2 0xB62 JUMPI DUP1 PUSH1 0x1F LT PUSH2 0xB37 JUMPI PUSH2 0x100 DUP1 DUP4 SLOAD DIV MUL DUP4 MSTORE SWAP2 PUSH1 0x20 ADD SWAP2 PUSH2 0xB62 JUMP JUMPDEST DUP3 ADD SWAP2 SWAP1 PUSH1 0x0 MSTORE PUSH1 0x20 PUSH1 0x0 KECCAK256 SWAP1 JUMPDEST DUP2 SLOAD DUP2 MSTORE SWAP1 PUSH1 0x1 ADD SWAP1 PUSH1 0x20 ADD DUP1 DUP4 GT PUSH2 0xB45 JUMPI DUP3 SWAP1 SUB PUSH1 0x1F AND DUP3 ADD SWAP2 JUMPDEST POP POP POP POP POP DUP2 MSTORE PUSH1 0x20 ADD PUSH1 0x3 DUP3 ADD SLOAD DUP2 MSTORE PUSH1 0x20 ADD PUSH1 0x4 DUP3 ADD SLOAD DUP2 MSTORE POP POP SWAP1 POP SWAP2 SWAP1 POP JUMP JUMPDEST PUSH1 0x40 MLOAD DUP1 PUSH1 0xA0 ADD PUSH1 0x40 MSTORE DUP1 PUSH1 0x0 DUP2 MSTORE PUSH1 0x20 ADD PUSH1 0x0 PUSH20 0xFFFFFFFFFFFFFFFFFFFFFFFFFFFFFFFFFFFFFFFF AND DUP2 MSTORE PUSH1 0x20 ADD PUSH1 0x60 DUP2 MSTORE PUSH1 0x20 ADD PUSH1 0x0 DUP2 MSTORE PUSH1 0x20 ADD PUSH1 0x0 DUP2 MSTORE POP SWAP1 JUMP JUMPDEST PUSH1 0x0 PUSH1 0x40 MLOAD SWAP1 POP SWAP1 JUMP JUMPDEST PUSH1 0x0 DUP1 REVERT JUMPDEST PUSH1 0x0 DUP1 REVERT JUMPDEST PUSH1 0x0 PUSH20 0xFFFFFFFFFFFFFFFFFFFFFFFFFFFFFFFFFFFFFFFF DUP3 AND SWAP1 POP SWAP2 SWAP1 POP JUMP JUMPDEST PUSH1 0x0 PUSH2 0xC0A DUP3 PUSH2 0xBDF JUMP JUMPDEST SWAP1 POP SWAP2 SWAP1 POP JUMP JUMPDEST PUSH2 0xC1A DUP2 PUSH2 0xBFF JUMP JUMPDEST DUP2 EQ PUSH2 0xC25 JUMPI PUSH1 0x0 DUP1 REVERT JUMPDEST POP JUMP JUMPDEST PUSH1 0x0 DUP2 CALLDATALOAD SWAP1 POP PUSH2 0xC37 DUP2 PUSH2 0xC11 JUMP JUMPDEST SWAP3 SWAP2 POP POP JUMP JUMPDEST PUSH1 0x0 DUP2 SWAP1 POP SWAP2 SWAP1 POP JUMP JUMPDEST PUSH2 0xC50 DUP2 PUSH2 0xC3D JUMP JUMPDEST DUP2 EQ PUSH2 0xC5B JUMPI PUSH1 0x0 DUP1 REVERT JUMPDEST POP JUMP JUMPDEST PUSH1 0x0 DUP2 CALLDATALOAD SWAP1 POP PUSH2 0xC6D DUP2 PUSH2 0xC47 JUMP JUMPDEST SWAP3 SWAP2 POP POP JUMP JUMPDEST PUSH1 0x0 DUP1 PUSH1 0x40 DUP4 DUP6 SUB SLT ISZERO PUSH2 0xC8A JUMPI PUSH2 0xC89 PUSH2 0xBD5 JUMP JUMPDEST JUMPDEST PUSH1 0x0 PUSH2 0xC98 DUP6 DUP3 DUP7 ADD PUSH2 0xC28 JUMP JUMPDEST SWAP3 POP POP PUSH1 0x20 PUSH2 0xCA9 DUP6 DUP3 DUP7 ADD PUSH2 0xC5E JUMP JUMPDEST SWAP2 POP POP SWAP3 POP SWAP3 SWAP1 POP JUMP JUMPDEST PUSH2 0xCBC DUP2 PUSH2 0xC3D JUMP JUMPDEST DUP3 MSTORE POP POP JUMP JUMPDEST PUSH2 0xCCB DUP2 PUSH2 0xBFF JUMP JUMPDEST DUP3 MSTORE POP POP JUMP JUMPDEST PUSH1 0x0 DUP2 MLOAD SWAP1 POP SWAP2 SWAP1 POP JUMP JUMPDEST PUSH1 0x0 DUP3 DUP3 MSTORE PUSH1 0x20 DUP3 ADD SWAP1 POP SWAP3 SWAP2 POP POP JUMP JUMPDEST PUSH1 0x0 JUMPDEST DUP4 DUP2 LT ISZERO PUSH2 0xD0B JUMPI DUP1 DUP3 ADD MLOAD DUP2 DUP5 ADD MSTORE PUSH1 0x20 DUP2 ADD SWAP1 POP PUSH2 0xCF0 JUMP JUMPDEST PUSH1 0x0 DUP5 DUP5 ADD MSTORE POP POP POP POP JUMP JUMPDEST PUSH1 0x0 PUSH1 0x1F NOT PUSH1 0x1F DUP4 ADD AND SWAP1 POP SWAP2 SWAP1 POP JUMP JUMPDEST PUSH1 0x0 PUSH2 0xD33 DUP3 PUSH2 0xCD1 JUMP JUMPDEST PUSH2 0xD3D DUP2 DUP6 PUSH2 0xCDC JUMP JUMPDEST SWAP4 POP PUSH2 0xD4D DUP2 DUP6 PUSH1 0x20 DUP7 ADD PUSH2 0xCED JUMP JUMPDEST PUSH2 0xD56 DUP2 PUSH2 0xD17 JUMP JUMPDEST DUP5 ADD SWAP2 POP POP SWAP3 SWAP2 POP POP JUMP JUMPDEST PUSH1 0x0 PUSH1 0xA0 DUP3 ADD SWAP1 POP PUSH2 0xD76 PUSH1 0x0 DUP4 ADD DUP9 PUSH2 0xCB3 JUMP JUMPDEST PUSH2 0xD83 PUSH1 0x20 DUP4 ADD DUP8 PUSH2 0xCC2 JUMP JUMPDEST DUP2 DUP2 SUB PUSH1 0x40 DUP4 ADD MSTORE PUSH2 0xD95 DUP2 DUP7 PUSH2 0xD28 JUMP JUMPDEST SWAP1 POP PUSH2 0xDA4 PUSH1 0x60 DUP4 ADD DUP6 PUSH2 0xCB3 JUMP JUMPDEST PUSH2 0xDB1 PUSH1 0x80 DUP4 ADD DUP5 PUSH2 0xCB3 JUMP JUMPDEST SWAP7 SWAP6 POP POP POP POP POP POP JUMP JUMPDEST PUSH1 0x0 PUSH1 0x20 DUP3 DUP5 SUB SLT ISZERO PUSH2 0xDD1 JUMPI PUSH2 0xDD0 PUSH2 0xBD5 JUMP JUMPDEST JUMPDEST PUSH1 0x0 PUSH2 0xDDF DUP5 DUP3 DUP6 ADD PUSH2 0xC28 JUMP JUMPDEST SWAP2 POP POP SWAP3 SWAP2 POP POP JUMP JUMPDEST PUSH1 0x0 DUP2 MLOAD SWAP1 POP SWAP2 SWAP1 POP JUMP JUMPDEST PUSH1 0x0 DUP3 DUP3 MSTORE PUSH1 0x20 DUP3 ADD SWAP1 POP SWAP3 SWAP2 POP POP JUMP JUMPDEST PUSH1 0x0 DUP2 SWAP1 POP PUSH1 0x20 DUP3 ADD SWAP1 POP SWAP2 SWAP1 POP JUMP JUMPDEST PUSH2 0xE1D DUP2 PUSH2 0xC3D JUMP JUMPDEST DUP3 MSTORE POP POP JUMP JUMPDEST PUSH2 0xE2C DUP2 PUSH2 0xBFF JUMP JUMPDEST DUP3 MSTORE POP POP JUMP JUMPDEST PUSH1 0x0 DUP3 DUP3 MSTORE PUSH1 0x20 DUP3 ADD SWAP1 POP SWAP3 SWAP2 POP POP JUMP JUMPDEST PUSH1 0x0 PUSH2 0xE4E DUP3 PUSH2 0xCD1 JUMP JUMPDEST PUSH2 0xE58 DUP2 DUP6 PUSH2 0xE32 JUMP JUMPDEST SWAP4 POP PUSH2 0xE68 DUP2 DUP6 PUSH1 0x20 DUP7 ADD PUSH2 0xCED JUMP JUMPDEST PUSH2 0xE71 DUP2 PUSH2 0xD17 JUMP JUMPDEST DUP5 ADD SWAP2 POP POP SWAP3 SWAP2 POP POP JUMP JUMPDEST PUSH1 0x0 PUSH1 0xA0 DUP4 ADD PUSH1 0x0 DUP4 ADD MLOAD PUSH2 0xE94 PUSH1 0x0 DUP7 ADD DUP3 PUSH2 0xE14 JUMP JUMPDEST POP PUSH1 0x20 DUP4 ADD MLOAD PUSH2 0xEA7 PUSH1 0x20 DUP7 ADD DUP3 PUSH2 0xE23 JUMP JUMPDEST POP PUSH1 0x40 DUP4 ADD MLOAD DUP5 DUP3 SUB PUSH1 0x40 DUP7 ADD MSTORE PUSH2 0xEBF DUP3 DUP3 PUSH2 0xE43 JUMP JUMPDEST SWAP2 POP POP PUSH1 0x60 DUP4 ADD MLOAD PUSH2 0xED4 PUSH1 0x60 DUP7 ADD DUP3 PUSH2 0xE14 JUMP JUMPDEST POP PUSH1 0x80 DUP4 ADD MLOAD PUSH2 0xEE7 PUSH1 0x80 DUP7 ADD DUP3 PUSH2 0xE14 JUMP JUMPDEST POP DUP1 SWAP2 POP POP SWAP3 SWAP2 POP POP JUMP JUMPDEST PUSH1 0x0 PUSH2 0xEFE DUP4 DUP4 PUSH2 0xE7C JUMP JUMPDEST SWAP1 POP SWAP3 SWAP2 POP POP JUMP JUMPDEST PUSH1 0x0 PUSH1 0x20 DUP3 ADD SWAP1 POP SWAP2 SWAP1 POP JUMP JUMPDEST PUSH1 0x0 PUSH2 0xF1E DUP3 PUSH2 0xDE8 JUMP JUMPDEST PUSH2 0xF28 DUP2 DUP6 PUSH2 0xDF3 JUMP JUMPDEST SWAP4 POP DUP4 PUSH1 0x20 DUP3 MUL DUP6 ADD PUSH2 0xF3A DUP6 PUSH2 0xE04 JUMP JUMPDEST DUP1 PUSH1 0x0 JUMPDEST DUP6 DUP2 LT ISZERO PUSH2 0xF76 JUMPI DUP5 DUP5 SUB DUP10 MSTORE DUP2 MLOAD PUSH2 0xF57 DUP6 DUP3 PUSH2 0xEF2 JUMP JUMPDEST SWAP5 POP PUSH2 0xF62 DUP4 PUSH2 0xF06 JUMP JUMPDEST SWAP3 POP PUSH1 0x20 DUP11 ADD SWAP10 POP POP PUSH1 0x1 DUP2 ADD SWAP1 POP PUSH2 0xF3E JUMP JUMPDEST POP DUP3 SWAP8 POP DUP8 SWAP6 POP POP POP POP POP POP SWAP3 SWAP2 POP POP JUMP JUMPDEST PUSH1 0x0 PUSH1 0x20 DUP3 ADD SWAP1 POP DUP2 DUP2 SUB PUSH1 0x0 DUP4 ADD MSTORE PUSH2 0xFA2 DUP2 DUP5 PUSH2 0xF13 JUMP JUMPDEST SWAP1 POP SWAP3 SWAP2 POP POP JUMP JUMPDEST PUSH1 0x0 PUSH2 0xFFFF DUP3 AND SWAP1 POP SWAP2 SWAP1 POP JUMP JUMPDEST PUSH2 0xFC1 DUP2 PUSH2 0xFAA JUMP JUMPDEST DUP2 EQ PUSH2 0xFCC JUMPI PUSH1 0x0 DUP1 REVERT JUMPDEST POP JUMP JUMPDEST PUSH1 0x0 DUP2 CALLDATALOAD SWAP1 POP PUSH2 0xFDE DUP2 PUSH2 0xFB8 JUMP JUMPDEST SWAP3 SWAP2 POP POP JUMP JUMPDEST PUSH1 0x0 PUSH1 0x20 DUP3 DUP5 SUB SLT ISZERO PUSH2 0xFFA JUMPI PUSH2 0xFF9 PUSH2 0xBD5 JUMP JUMPDEST JUMPDEST PUSH1 0x0 PUSH2 0x1008 DUP5 DUP3 DUP6 ADD PUSH2 0xFCF JUMP JUMPDEST SWAP2 POP POP SWAP3 SWAP2 POP POP JUMP JUMPDEST PUSH2 0x101A DUP2 PUSH2 0xFAA JUMP JUMPDEST DUP3 MSTORE POP POP JUMP JUMPDEST PUSH1 0x0 PUSH1 0x20 DUP3 ADD SWAP1 POP PUSH2 0x1035 PUSH1 0x0 DUP4 ADD DUP5 PUSH2 0x1011 JUMP JUMPDEST SWAP3 SWAP2 POP POP JUMP JUMPDEST PUSH1 0x0 DUP1 REVERT JUMPDEST PUSH1 0x0 DUP1 REVERT JUMPDEST PUSH32 0x4E487B7100000000000000000000000000000000000000000000000000000000 PUSH1 0x0 MSTORE PUSH1 0x41 PUSH1 0x4 MSTORE PUSH1 0x24 PUSH1 0x0 REVERT JUMPDEST PUSH2 0x107D DUP3 PUSH2 0xD17 JUMP JUMPDEST DUP2 ADD DUP2 DUP2 LT PUSH8 0xFFFFFFFFFFFFFFFF DUP3 GT OR ISZERO PUSH2 0x109C JUMPI PUSH2 0x109B PUSH2 0x1045 JUMP JUMPDEST JUMPDEST DUP1 PUSH1 0x40 MSTORE POP POP POP JUMP JUMPDEST PUSH1 0x0 PUSH2 0x10AF PUSH2 0xBCB JUMP JUMPDEST SWAP1 POP PUSH2 0x10BB DUP3 DUP3 PUSH2 0x1074 JUMP JUMPDEST SWAP2 SWAP1 POP JUMP JUMPDEST PUSH1 0x0 PUSH8 0xFFFFFFFFFFFFFFFF DUP3 GT ISZERO PUSH2 0x10DB JUMPI PUSH2 0x10DA PUSH2 0x1045 JUMP JUMPDEST JUMPDEST PUSH2 0x10E4 DUP3 PUSH2 0xD17 JUMP JUMPDEST SWAP1 POP PUSH1 0x20 DUP2 ADD SWAP1 POP SWAP2 SWAP1 POP JUMP JUMPDEST DUP3 DUP2 DUP4 CALLDATACOPY PUSH1 0x0 DUP4 DUP4 ADD MSTORE POP POP POP JUMP JUMPDEST PUSH1 0x0 PUSH2 0x1113 PUSH2 0x110E DUP5 PUSH2 0x10C0 JUMP JUMPDEST PUSH2 0x10A5 JUMP JUMPDEST SWAP1 POP DUP3 DUP2 MSTORE PUSH1 0x20 DUP2 ADD DUP5 DUP5 DUP5 ADD GT ISZERO PUSH2 0x112F JUMPI PUSH2 0x112E PUSH2 0x1040 JUMP JUMPDEST JUMPDEST PUSH2 0x113A DUP5 DUP3 DUP6 PUSH2 0x10F1 JUMP JUMPDEST POP SWAP4 SWAP3 POP POP POP JUMP JUMPDEST PUSH1 0x0 DUP3 PUSH1 0x1F DUP4 ADD SLT PUSH2 0x1157 JUMPI PUSH2 0x1156 PUSH2 0x103B JUMP JUMPDEST JUMPDEST DUP2 CALLDATALOAD PUSH2 0x1167 DUP5 DUP3 PUSH1 0x20 DUP7 ADD PUSH2 0x1100 JUMP JUMPDEST SWAP2 POP POP SWAP3 SWAP2 POP POP JUMP JUMPDEST PUSH1 0x0 PUSH1 0x20 DUP3 DUP5 SUB SLT ISZERO PUSH2 0x1186 JUMPI PUSH2 0x1185 PUSH2 0xBD5 JUMP JUMPDEST JUMPDEST PUSH1 0x0 DUP3 ADD CALLDATALOAD PUSH8 0xFFFFFFFFFFFFFFFF DUP2 GT ISZERO PUSH2 0x11A4 JUMPI PUSH2 0x11A3 PUSH2 0xBDA JUMP JUMPDEST JUMPDEST PUSH2 0x11B0 DUP5 DUP3 DUP6 ADD PUSH2 0x1142 JUMP JUMPDEST SWAP2 POP POP SWAP3 SWAP2 POP POP JUMP JUMPDEST PUSH1 0x0 PUSH1 0x20 DUP3 ADD SWAP1 POP PUSH2 0x11CE PUSH1 0x0 DUP4 ADD DUP5 PUSH2 0xCC2 JUMP JUMPDEST SWAP3 SWAP2 POP POP JUMP JUMPDEST PUSH1 0x0 PUSH1 0x20 DUP3 DUP5 SUB SLT ISZERO PUSH2 0x11EA JUMPI PUSH2 0x11E9 PUSH2 0xBD5 JUMP JUMPDEST JUMPDEST PUSH1 0x0 PUSH2 0x11F8 DUP5 DUP3 DUP6 ADD PUSH2 0xC5E JUMP JUMPDEST SWAP2 POP POP SWAP3 SWAP2 POP POP JUMP JUMPDEST PUSH1 0x0 PUSH1 0xA0 DUP4 ADD PUSH1 0x0 DUP4 ADD MLOAD PUSH2 0x1219 PUSH1 0x0 DUP7 ADD DUP3 PUSH2 0xE14 JUMP JUMPDEST POP PUSH1 0x20 DUP4 ADD MLOAD PUSH2 0x122C PUSH1 0x20 DUP7 ADD DUP3 PUSH2 0xE23 JUMP JUMPDEST POP PUSH1 0x40 DUP4 ADD MLOAD DUP5 DUP3 SUB PUSH1 0x40 DUP7 ADD MSTORE PUSH2 0x1244 DUP3 DUP3 PUSH2 0xE43 JUMP JUMPDEST SWAP2 POP POP PUSH1 0x60 DUP4 ADD MLOAD PUSH2 0x1259 PUSH1 0x60 DUP7 ADD DUP3 PUSH2 0xE14 JUMP JUMPDEST POP PUSH1 0x80 DUP4 ADD MLOAD PUSH2 0x126C PUSH1 0x80 DUP7 ADD DUP3 PUSH2 0xE14 JUMP JUMPDEST POP DUP1 SWAP2 POP POP SWAP3 SWAP2 POP POP JUMP JUMPDEST PUSH1 0x0 PUSH1 0x20 DUP3 ADD SWAP1 POP DUP2 DUP2 SUB PUSH1 0x0 DUP4 ADD MSTORE PUSH2 0x1291 DUP2 DUP5 PUSH2 0x1201 JUMP JUMPDEST SWAP1 POP SWAP3 SWAP2 POP POP JUMP JUMPDEST PUSH32 0x4E487B7100000000000000000000000000000000000000000000000000000000 PUSH1 0x0 MSTORE PUSH1 0x22 PUSH1 0x4 MSTORE PUSH1 0x24 PUSH1 0x0 REVERT JUMPDEST PUSH1 0x0 PUSH1 0x2 DUP3 DIV SWAP1 POP PUSH1 0x1 DUP3 AND DUP1 PUSH2 0x12E0 JUMPI PUSH1 0x7F DUP3 AND SWAP2 POP JUMPDEST PUSH1 0x20 DUP3 LT DUP2 SUB PUSH2 0x12F3 JUMPI PUSH2 0x12F2 PUSH2 0x1299 JUMP JUMPDEST JUMPDEST POP SWAP2 SWAP1 POP JUMP JUMPDEST PUSH32 0x4E487B7100000000000000000000000000000000000000000000000000000000 PUSH1 0x0 MSTORE PUSH1 0x32 PUSH1 0x4 MSTORE PUSH1 0x24 PUSH1 0x0 REVERT JUMPDEST PUSH32 0x545745455420444F4553204E4F54204558495354000000000000000000000000 PUSH1 0x0 DUP3 ADD MSTORE POP JUMP JUMPDEST PUSH1 0x0 PUSH2 0x135E PUSH1 0x14 DUP4 PUSH2 0xCDC JUMP JUMPDEST SWAP2 POP PUSH2 0x1369 DUP3 PUSH2 0x1328 JUMP JUMPDEST PUSH1 0x20 DUP3 ADD SWAP1 POP SWAP2 SWAP1 POP JUMP JUMPDEST PUSH1 0x0 PUSH1 0x20 DUP3 ADD SWAP1 POP DUP2 DUP2 SUB PUSH1 0x0 DUP4 ADD MSTORE PUSH2 0x138D DUP2 PUSH2 0x1351 JUMP JUMPDEST SWAP1 POP SWAP2 SWAP1 POP JUMP JUMPDEST PUSH32 0x545745455420484153204E4F204C494B45530000000000000000000000000000 PUSH1 0x0 DUP3 ADD MSTORE POP JUMP JUMPDEST PUSH1 0x0 PUSH2 0x13CA PUSH1 0x12 DUP4 PUSH2 0xCDC JUMP JUMPDEST SWAP2 POP PUSH2 0x13D5 DUP3 PUSH2 0x1394 JUMP JUMPDEST PUSH1 0x20 DUP3 ADD SWAP1 POP SWAP2 SWAP1 POP JUMP JUMPDEST PUSH1 0x0 PUSH1 0x20 DUP3 ADD SWAP1 POP DUP2 DUP2 SUB PUSH1 0x0 DUP4 ADD MSTORE PUSH2 0x13F9 DUP2 PUSH2 0x13BD JUMP JUMPDEST SWAP1 POP SWAP2 SWAP1 POP JUMP JUMPDEST PUSH32 0x4E487B7100000000000000000000000000000000000000000000000000000000 PUSH1 0x0 MSTORE PUSH1 0x11 PUSH1 0x4 MSTORE PUSH1 0x24 PUSH1 0x0 REVERT JUMPDEST PUSH1 0x0 PUSH2 0x143A DUP3 PUSH2 0xC3D JUMP JUMPDEST SWAP2 POP PUSH1 0x0 DUP3 SUB PUSH2 0x144D JUMPI PUSH2 0x144C PUSH2 0x1400 JUMP JUMPDEST JUMPDEST PUSH1 0x1 DUP3 SUB SWAP1 POP SWAP2 SWAP1 POP JUMP JUMPDEST PUSH32 0x594F5520415245204E4F5420544845204F574E45520000000000000000000000 PUSH1 0x0 DUP3 ADD MSTORE POP JUMP JUMPDEST PUSH1 0x0 PUSH2 0x148E PUSH1 0x15 DUP4 PUSH2 0xCDC JUMP JUMPDEST SWAP2 POP PUSH2 0x1499 DUP3 PUSH2 0x1458 JUMP JUMPDEST PUSH1 0x20 DUP3 ADD SWAP1 POP SWAP2 SWAP1 POP JUMP JUMPDEST PUSH1 0x0 PUSH1 0x20 DUP3 ADD SWAP1 POP DUP2 DUP2 SUB PUSH1 0x0 DUP4 ADD MSTORE PUSH2 0x14BD DUP2 PUSH2 0x1481 JUMP JUMPDEST SWAP1 POP SWAP2 SWAP1 POP JUMP JUMPDEST PUSH1 0x0 PUSH2 0x14CF DUP3 PUSH2 0xC3D JUMP JUMPDEST SWAP2 POP PUSH32 0xFFFFFFFFFFFFFFFFFFFFFFFFFFFFFFFFFFFFFFFFFFFFFFFFFFFFFFFFFFFFFFFF DUP3 SUB PUSH2 0x1501 JUMPI PUSH2 0x1500 PUSH2 0x1400 JUMP JUMPDEST JUMPDEST PUSH1 0x1 DUP3 ADD SWAP1 POP SWAP2 SWAP1 POP JUMP JUMPDEST PUSH32 0x747765657420697320746F206C6F6E6720212121000000000000000000000000 PUSH1 0x0 DUP3 ADD MSTORE POP JUMP JUMPDEST PUSH1 0x0 PUSH2 0x1542 PUSH1 0x14 DUP4 PUSH2 0xCDC JUMP JUMPDEST SWAP2 POP PUSH2 0x154D DUP3 PUSH2 0x150C JUMP JUMPDEST PUSH1 0x20 DUP3 ADD SWAP1 POP SWAP2 SWAP1 POP JUMP JUMPDEST PUSH1 0x0 PUSH1 0x20 DUP3 ADD SWAP1 POP DUP2 DUP2 SUB PUSH1 0x0 DUP4 ADD MSTORE PUSH2 0x1571 DUP2 PUSH2 0x1535 JUMP JUMPDEST SWAP1 POP SWAP2 SWAP1 POP JUMP JUMPDEST PUSH1 0x0 DUP2 SWAP1 POP DUP2 PUSH1 0x0 MSTORE PUSH1 0x20 PUSH1 0x0 KECCAK256 SWAP1 POP SWAP2 SWAP1 POP JUMP JUMPDEST PUSH1 0x0 PUSH1 0x20 PUSH1 0x1F DUP4 ADD DIV SWAP1 POP SWAP2 SWAP1 POP JUMP JUMPDEST PUSH1 0x0 DUP3 DUP3 SHL SWAP1 POP SWAP3 SWAP2 POP POP JUMP JUMPDEST PUSH1 0x0 PUSH1 0x8 DUP4 MUL PUSH2 0x15DA PUSH32 0xFFFFFFFFFFFFFFFFFFFFFFFFFFFFFFFFFFFFFFFFFFFFFFFFFFFFFFFFFFFFFFFF DUP3 PUSH2 0x159D JUMP JUMPDEST PUSH2 0x15E4 DUP7 DUP4 PUSH2 0x159D JUMP JUMPDEST SWAP6 POP DUP1 NOT DUP5 AND SWAP4 POP DUP1 DUP7 AND DUP5 OR SWAP3 POP POP POP SWAP4 SWAP3 POP POP POP JUMP JUMPDEST PUSH1 0x0 DUP2 SWAP1 POP SWAP2 SWAP1 POP JUMP JUMPDEST PUSH1 0x0 PUSH2 0x1621 PUSH2 0x161C PUSH2 0x1617 DUP5 PUSH2 0xC3D JUMP JUMPDEST PUSH2 0x15FC JUMP JUMPDEST PUSH2 0xC3D JUMP JUMPDEST SWAP1 POP SWAP2 SWAP1 POP JUMP JUMPDEST PUSH1 0x0 DUP2 SWAP1 POP SWAP2 SWAP1 POP JUMP JUMPDEST PUSH2 0x163B DUP4 PUSH2 0x1606 JUMP JUMPDEST PUSH2 0x164F PUSH2 0x1647 DUP3 PUSH2 0x1628 JUMP JUMPDEST DUP5 DUP5 SLOAD PUSH2 0x15AA JUMP JUMPDEST DUP3 SSTORE POP POP POP POP JUMP JUMPDEST PUSH1 0x0 SWAP1 JUMP JUMPDEST PUSH2 0x1664 PUSH2 0x1657 JUMP JUMPDEST PUSH2 0x166F DUP2 DUP5 DUP5 PUSH2 0x1632 JUMP JUMPDEST POP POP POP JUMP JUMPDEST JUMPDEST DUP2 DUP2 LT ISZERO PUSH2 0x1693 JUMPI PUSH2 0x1688 PUSH1 0x0 DUP3 PUSH2 0x165C JUMP JUMPDEST PUSH1 0x1 DUP2 ADD SWAP1 POP PUSH2 0x1675 JUMP JUMPDEST POP POP JUMP JUMPDEST PUSH1 0x1F DUP3 GT ISZERO PUSH2 0x16D8 JUMPI PUSH2 0x16A9 DUP2 PUSH2 0x1578 JUMP JUMPDEST PUSH2 0x16B2 DUP5 PUSH2 0x158D JUMP JUMPDEST DUP2 ADD PUSH1 0x20 DUP6 LT ISZERO PUSH2 0x16C1 JUMPI DUP2 SWAP1 POP JUMPDEST PUSH2 0x16D5 PUSH2 0x16CD DUP6 PUSH2 0x158D JUMP JUMPDEST DUP4 ADD DUP3 PUSH2 0x1674 JUMP JUMPDEST POP POP JUMPDEST POP POP POP JUMP JUMPDEST PUSH1 0x0 DUP3 DUP3 SHR SWAP1 POP SWAP3 SWAP2 POP POP JUMP JUMPDEST PUSH1 0x0 PUSH2 0x16FB PUSH1 0x0 NOT DUP5 PUSH1 0x8 MUL PUSH2 0x16DD JUMP JUMPDEST NOT DUP1 DUP4 AND SWAP2 POP POP SWAP3 SWAP2 POP POP JUMP JUMPDEST PUSH1 0x0 PUSH2 0x1714 DUP4 DUP4 PUSH2 0x16EA JUMP JUMPDEST SWAP2 POP DUP3 PUSH1 0x2 MUL DUP3 OR SWAP1 POP SWAP3 SWAP2 POP POP JUMP JUMPDEST PUSH2 0x172D DUP3 PUSH2 0xCD1 JUMP JUMPDEST PUSH8 0xFFFFFFFFFFFFFFFF DUP2 GT ISZERO PUSH2 0x1746 JUMPI PUSH2 0x1745 PUSH2 0x1045 JUMP JUMPDEST JUMPDEST PUSH2 0x1750 DUP3 SLOAD PUSH2 0x12C8 JUMP JUMPDEST PUSH2 0x175B DUP3 DUP3 DUP6 PUSH2 0x1697 JUMP JUMPDEST PUSH1 0x0 PUSH1 0x20 SWAP1 POP PUSH1 0x1F DUP4 GT PUSH1 0x1 DUP2 EQ PUSH2 0x178E JUMPI PUSH1 0x0 DUP5 ISZERO PUSH2 0x177C JUMPI DUP3 DUP8 ADD MLOAD SWAP1 POP JUMPDEST PUSH2 0x1786 DUP6 DUP3 PUSH2 0x1708 JUMP JUMPDEST DUP7 SSTORE POP PUSH2 0x17EE JUMP JUMPDEST PUSH1 0x1F NOT DUP5 AND PUSH2 0x179C DUP7 PUSH2 0x1578 JUMP JUMPDEST PUSH1 0x0 JUMPDEST DUP3 DUP2 LT ISZERO PUSH2 0x17C4 JUMPI DUP5 DUP10 ADD MLOAD DUP3 SSTORE PUSH1 0x1 DUP3 ADD SWAP2 POP PUSH1 0x20 DUP6 ADD SWAP5 POP PUSH1 0x20 DUP2 ADD SWAP1 POP PUSH2 0x179F JUMP JUMPDEST DUP7 DUP4 LT ISZERO PUSH2 0x17E1 JUMPI DUP5 DUP10 ADD MLOAD PUSH2 0x17DD PUSH1 0x1F DUP10 AND DUP3 PUSH2 0x16EA JUMP JUMPDEST DUP4 SSTORE POP JUMPDEST PUSH1 0x1 PUSH1 0x2 DUP9 MUL ADD DUP9 SSTORE POP POP POP JUMPDEST POP POP POP POP POP POP JUMP INVALID LOG2 PUSH5 0x6970667358 0x22 SLT KECCAK256 0xA5 PUSH27 0xEE3872FFCAECD0116A79E100ACE471F60EE8E9561971E9ED3A0174 0x5F LOG4 SWAP1 PUSH5 0x736F6C6343 STOP ADDMOD SLT STOP CALLER "
				},
				"gasEstimates": {
					"creation": {
						"codeDepositCost": "1237600",
						"executionCost": "49821",
						"totalCost": "1287421"
					},
					"external": {
						"MAX_TWEET_LENGTH()": "2490",
						"changeTweetLength(uint16)": "26916",
						"createTweet(string)": "infinite",
						"getAllTweets(address)": "infinite",
						"getTweet(uint256)": "infinite",
						"likeTweet(address,uint256)": "infinite",
						"owner()": "2580",
						"tweets(address,uint256)": "infinite",
						"unlikeTweet(address,uint256)": "infinite"
					}
				},
				"methodIdentifiers": {
					"MAX_TWEET_LENGTH()": "6eb10797",
					"changeTweetLength(uint16)": "58bfa4ab",
					"createTweet(string)": "7c9cd2bc",
					"getAllTweets(address)": "12e7ee1c",
					"getTweet(uint256)": "c3ad5ecb",
					"likeTweet(address,uint256)": "63378216",
					"owner()": "8da5cb5b",
					"tweets(address,uint256)": "05a1b4a9",
					"unlikeTweet(address,uint256)": "3d9b569f"
				}
			},
			"storageLayout": {
				"storage": [
					{
						"astId": 4,
						"contract": "contracts/Twitter.sol:Twitter",
						"label": "MAX_TWEET_LENGTH",
						"offset": 0,
						"slot": "0",
						"type": "t_uint16"
					},
					{
						"astId": 21,
						"contract": "contracts/Twitter.sol:Twitter",
						"label": "tweets",
						"offset": 0,
						"slot": "1",
						"type": "t_mapping(t_address,t_array(t_struct(Tweet)15_storage)dyn_storage)"
					},
					{
						"astId": 23,
						"contract": "contracts/Twitter.sol:Twitter",
						"label": "owner",
						"offset": 0,
						"slot": "2",
						"type": "t_address"
					}
				],
				"types": {
					"t_address": {
						"encoding": "inplace",
						"label": "address",
						"numberOfBytes": "20"
					},
					"t_array(t_struct(Tweet)15_storage)dyn_storage": {
						"base": "t_struct(Tweet)15_storage",
						"encoding": "dynamic_array",
						"label": "struct Twitter.Tweet[]",
						"numberOfBytes": "32"
					},
					"t_mapping(t_address,t_array(t_struct(Tweet)15_storage)dyn_storage)": {
						"encoding": "mapping",
						"key": "t_address",
						"label": "mapping(address => struct Twitter.Tweet[])",
						"numberOfBytes": "32",
						"value": "t_array(t_struct(Tweet)15_storage)dyn_storage"
					},
					"t_string_storage": {
						"encoding": "bytes",
						"label": "string",
						"numberOfBytes": "32"
					},
					"t_struct(Tweet)15_storage": {
						"encoding": "inplace",
						"label": "struct Twitter.Tweet",
						"members": [
							{
								"astId": 6,
								"contract": "contracts/Twitter.sol:Twitter",
								"label": "id",
								"offset": 0,
								"slot": "0",
								"type": "t_uint256"
							},
							{
								"astId": 8,
								"contract": "contracts/Twitter.sol:Twitter",
								"label": "author",
								"offset": 0,
								"slot": "1",
								"type": "t_address"
							},
							{
								"astId": 10,
								"contract": "contracts/Twitter.sol:Twitter",
								"label": "content",
								"offset": 0,
								"slot": "2",
								"type": "t_string_storage"
							},
							{
								"astId": 12,
								"contract": "contracts/Twitter.sol:Twitter",
								"label": "timestamp",
								"offset": 0,
								"slot": "3",
								"type": "t_uint256"
							},
							{
								"astId": 14,
								"contract": "contracts/Twitter.sol:Twitter",
								"label": "likes",
								"offset": 0,
								"slot": "4",
								"type": "t_uint256"
							}
						],
						"numberOfBytes": "160"
					},
					"t_uint16": {
						"encoding": "inplace",
						"label": "uint16",
						"numberOfBytes": "2"
					},
					"t_uint256": {
						"encoding": "inplace",
						"label": "uint256",
						"numberOfBytes": "32"
					}
				}
			},
			"userdoc": {
				"kind": "user",
				"methods": {},
				"version": 1
			}
		}
	}
}